:100000000C9489030C94D0030C94D0030C94D0036B
:100010000C94D0030C94D0030C94D0030C94D00314
:100020000C94D0030C94D0030C941B290C94ED2950
:100030000C94401E0C94D0030C94D0030C94D00369
:100040000C94D0030C94D0030C94D0030C94D003E4
:100050000C94D0030C94A81E0C94D0030C94D003E1
:100060000C94D0030C94D0030C94D0030C94D003C4
:100070000C94D0030C94D0030C94D0030C94D003B4
:100080000C94D0030C94D0030C94D0030C94D003A4
:100090000C94D0030C94D0030C94D0030C94D00394
:1000A0000C94D0030C94D0030C94D003CD04CF0453
:1000B000DA04D104D304D504D704D904DC04DE0463
:1000C000E004EB04E204E404E604E804EA04ED04DA
:1000D000F413F4132614261464148414F415F4157C
:1000E000C614F41573157315E415F415F415ED1510
:1000F0008015801580158015801580158015801558
:100100008015801580158015801580158015801547
:1001100091159F15A615AD15B7158316831695165F
:1001200095168C16951695169516831683169116A8
:1001300095169516911669235F237723D023D7232D
:10014000D723D023D723D7239823D723A223AC2385
:10015000D723D723D723D723D023D723D723D023DD
:10016000D7238523D723D723BC23BC23BC23BC237D
:10017000BC23BC23BC23BC23BC23D223D7236923A9
:100180005C23D723D723D723D723D723D723D7231A
:10019000D723D723D723D223D723D723D023D7239B
:1001A000BA23BA23BA23BA23BA23BA23BA23BA2367
:1001B000BA23D2235A2A812A732B812A732BCD2A60
:1001C000F02A732B462B552B2900B2004A004B0016
:1001D000A9007C007D007B0002512F00300031001F
:1001E00052004F0050002B0035004D004E00AA0079
:1001F0002D001E001F002000330034003800510085
:100200004C002A0014001A000800150017002E00E8
:1002100021002200230027001C0018000C001200FF
:10022000130004001600070009000A002C00240037
:1002300025002600360037000B000D000E000F00D1
:1002400001511D001B0006001900E100E000E20062
:10025000E70028002C00050011001000E400CD5C30
:10026000D25CCB5CCC5C0000000000000000000011
:1002700000000000F400F000F300F200CE5CD35C5C
:10028000C95CCA5C000000003A003B003C00000072
:100290000000F600F100F900FA00CF5CD45CC75C06
:1002A000C85C000000003D003E003F0043004400E9
:1002B00045000000FC00FB00D05CD15CC55CC65C66
:1002C000000000004000410042000000000000006B
:1002D0000000000000000000C25CC35CC45C0000C1
:1002E000000000000000000000000000000000000E
:1002F00000000000000000000000000000000000FE
:1003000000000000000000000000000000000000ED
:1003100000000000000000000000000000000000DD
:1003200000000000000000000000000000000000CD
:1003300000000000000000000000000000000000BD
:100340000000005C00000000000000000000000051
:10035000000000000000000000000000000000009D
:10036000000000000000000000000000000000008D
:10037000000000000000000000000000000000007D
:100380000000000000000000000000047F3F1F6428
:100390003214643214783C1E1E140A0522232526CA
:1003A00028292A2C2D2F3032333536383A3B3D3E22
:1003B0004042434547494A4C4E5051535557595A6C
:1003C0005C5E6062646668696B6D6F717375777986
:1003D0007B7D7F81838587898A8C8E909294969885
:1003E0009A9C9E9FA1A3A5A7A8AAACAEAFB1B3B497
:1003F000B6B8B9BBBCBEBFC1C2C3C5C6C7C9CACBEC
:10040000CCCDCED0D1D2D2D3D4D5D6D7D7D8D9D9B6
:10041000DADADBDBDBDCDCDCDCDCDDDDDDDDDCDC1F
:10042000DCDCDCDBDBDBDADAD9D9D8D7D7D6D5D43C
:10043000D3D2D2D1D0CECDCCCBCAC9C7C6C5C3C208
:10044000C1BFBEBCBBB9B8B6B4B3B1AFAEACAAA85D
:10045000A7A5A3A19F9E9C9A98969492908E8C8A11
:1004600089878583817F7D7B79777573716F6D6BEC
:100470006968666462605E5C5A5957555351504EC4
:100480004C4A4947454342403E3D3B3A3836353376
:1004900032302F2D2C2A292826252322FFAA7F55EA
:1004A0004000000000000000000000010101010107
:1004B000010101010202020202020202030303031C
:1004C00003030304040404040505050505060606E4
:1004D000060607070707080808080909090A0A0A9B
:1004E0000B0B0B0C0C0C0D0D0D0E0E0E0F0F101038
:1004F00010111112121313141415151616171718BC
:100500001819191A1A1B1C1C1D1D1E1F1F20212122
:1005100022232324252526272828292A2B2C2C2D65
:100520002E2F30313132333435363738393A3B3C7F
:100530003D3E3F404142434445464748494B4C4D70
:100540004E4F50525354555758595A5C5D5E606136
:1005500063646567686A6B6C6E6F717274767779C5
:100560007A7C7D7F8182848687898B8D8E90929420
:100570009597999B9D9FA1A2A4A6A8AAACAEB0B244
:10058000B4B6B9BBBDBFC1C3C5C8CACCCED0D3D524
:10059000D7DADCDEE1E3E6E8EAEDEFF2F4F7F9FCC6
:1005A000FF0403300000000A035800440037003500
:1005B0000000000C03780069007500640069000009
:1005C000000403090409023B00020100A0FA090427
:1005D0000000010301010009211101000122400076
:1005E0000705810308000A09040100010300000057
:1005F00009211101000122C0000705820320000A21
:100600001201100100000008CDCD75750100010236
:10061000030105010902A10185020901A1000509E3
:10062000190129051500250195057501810295011E
:10063000750381010501093009311581257F950276
:100640007508810609381581257F95017508810691
:10065000050C0A38021581257F950175088106C0B1
:10066000C005010980A10185031601002603001AB7
:1006700081002A8300751095018100C0050C0901D5
:10068000A1018504160100269C021A01002A9C0281
:10069000751095018100C005010906A101850505B8
:1006A0000719E029E7150025019508750181020564
:1006B00008190129059505750191029501750391A8
:1006C000010507190029EF1500250195F075018135
:1006D00002C005010906A101050719E029E7150077
:1006E00025019508750181029501750881010508AC
:1006F000190129059505750191029501750391016F
:100700000507190029FF150026FF009506750881C9
:1007100000C011241FBECFEFDAE0DEBFCDBF04B6AC
:1007200003FE27C08091950290919602A0919702B6
:10073000B09198028730904BA740B04BD1F4109203
:10074000950210929602109297021092980214BE8F
:1007500084B7877F84BF0FB6F894A8958091600016
:10076000886180936000109260000FBEE0E0F8E3C3
:10077000099511E0A0E0B1E0E8E5F8E502C00590D8
:100780000D92A636B107D9F722E0A6E6B1E001C086
:100790001D92A539B207E1F70E943D260C942A2C40
:1007A0000C9400000C94CD080C94F8030C943C04B9
:1007B0002A9A0895229A0C94D8038F9A0895879ABA
:1007C0000C94DD038C980895849A0C94E2038D9A1E
:1007D0000895859A0C94E7030E94DA030E94DF03D0
:1007E0000E94E4030E94E9030C94CC0881E0089580
:1007F00081E008951F93CF93DF9300D000D01F9224
:10080000CDB7DEB749835A832091A00189819A81AF
:10081000211112C0662349F00E94A81B182F682FCF
:1008200089819A810E944D1B03C00E947C1B182F56
:1008300069817A81812F04C00E94A81B69817A8115
:100840000F900F900F900F900F90DF91CF911F910D
:100850000C945B06FC01408151816281738184812B
:100860000C94FA030E94D81C811102C00E945C1DE6
:100870000C94EC030C94D20308950C94D6030895C1
:100880000E9473160E943F042FEF84E39CE02150E6
:1008900080409040E1F700C000000C94CE1E0F9302
:1008A0001F93CF93DF938C010E942A04EC01B801BF
:1008B0000E94D403882309F4F4C1B801CE010E9438
:1008C0004F10882309F4EDC1CA3CFCE5DF0741F471
:1008D000F8018281882309F4E4C10E94AA0CE1C1D5
:1008E000CB3C8CE5D80708F00FC1C33C9CE5D90789
:1008F00061F4F8018281882309F4D3C10E94281C85
:100900008272E1F00E94C30ECCC1C43CECE5DE076C
:10091000C0F0C63C9CE5D90709F4C7C008F0D9C0AF
:10092000C43CFCE5DF0709F0C8C0F80182818823D8
:1009300009F4B7C10E94281C827221F30E94B60EEE
:10094000B0C1C531FCE5DF0708F078C0C2308CE5E6
:10095000D80708F452C0F8018281882309F454C0F2
:100960000E94D81C811102C00E945C1D0E94F51CCF
:1009700090E09093870280938602FE01E350FC454D
:10098000E231F10530F4EA5AFF4F809186020C946F
:10099000CF2B80918602816027C0826025C0846051
:1009A00023C0806121C080621FC080641DC0806838
:1009B0001BC08460886018C08E7F16C08D7F14C0F5
:1009C0008B7F12C08F7E10C08F7D0EC08F7B0CC0BE
:1009D0008F770AC08B7F877F07C087FB222720F98C
:1009E00091E0922790FB87F980938602809186029E
:1009F0000E94F91C0E94731654C1C1159CE5D907C9
:100A000051F0C130DC4579F0C801DF91CF911F91E1
:100A10000F910C94F603F8018281882309F441C1F7
:100A20000E9440043EC1F8018281882309F439C143
:100A30008091380281608093380233C1C631FCE571
:100A4000DF0739F50E94281C282FF8018281409188
:100A5000100150911101882379F02A7A91E009F46C
:100A600090E090936601911102C069E201C065E3D4
:100A7000CA010E94C31D0AC080916601811102C093
:100A800069E201C065E3CA010E94CE1D0E94741C88
:100A900008C1C23CDC4509F0B7CFF8018281882348
:100AA00009F4FFC00E94D10EFCC0F80182818823A6
:100AB00009F4F7C00E946E0CF4C0C53CDC4509F097
:100AC000A3CFF8018281882309F4EBC00E94610C56
:100AD000E8C0F8018281C83CFCE5DF0731F48823D7
:100AE00009F4DFC00E948C0CDCC0C93CDC4530F44A
:100AF000882309F4D6C00E947D0CD3C0882309F452
:100B0000D0C00E949B0CCDC0C13DECE5DE0791F446
:100B1000F8018281882309F4C4C00E94DC0A8F3066
:100B200028F00E94DC0A843108F408CF8FE00E948C
:100B3000C60EB7C0C23DFCE5DF0708F05AC0CD3C89
:100B40008CE5D80739F4F8018281882309F4A9C01B
:100B500081E0EDCFCE3C9CE5D907C0F4CB3CECE581
:100B6000DE0741F4F8018281882309F49AC00E94CB
:100B7000E40A97C0CC3CDC4509F046CFF8018281FD
:100B8000882309F48EC00E94F50A8BC0F801828187
:100B9000CF3CFCE5DF0771F4882309F482C00E9492
:100BA000DC0A863028F00E94DC0A883008F4C6CEC1
:100BB00086E0BDCFC03DDC4570F4882309F471C0E8
:100BC0000E94DC0A823028F00E94DC0A853008F49A
:100BD000B5CE82E0ACCF882309F463C00E94DC0A62
:100BE000893028F00E94DC0A8E3008F4A7CE89E014
:100BF0009ECFC53DECE5DE0739F4F80182818823FC
:100C000009F44FC083E293CFC63DFCE5DF0740F512
:100C1000F8018281C33DFCE5DF0729F4882309F44C
:100C200040C088E184CFC43DDC4568F48823C9F125
:100C30000E94DC0A853128F00E94DC0A873108F422
:100C40007DCE85E174CF882361F10E94DC0A893171
:100C500028F00E94DC0A823208F470CE89E167CF66
:100C6000CD3DECE5DE0741F4F80182818823C9F02F
:100C700082E00E94DE2615C0CE3DFCE5DF0739F498
:100C8000F8018281882369F00E945C1D0AC0CC3D76
:100C9000DC4509F0B9CEF8018281882311F080E0AB
:100CA000E8CF80E0DF91CF911F910F91089580E010
:100CB00090E0089508959FE0799FF00111249BE44E
:100CC000899FE00DF11D1124E60FF11DEE0FFF1FAE
:100CD000E853FE4F859194910895880F991FFC0168
:100CE000E657FC4F859194910895CF93DF930E942E
:100CF0005B060E942C08EC01811520E59207F0F5B7
:100D0000811530E4930708F024C1883E910500F571
:100D1000803E910508F09CC1883A910570F4853AAF
:100D2000910508F09FC08130910509F491C108F444
:100D300042C1049708F08CC13EC18F3B910508F475
:100D40009CC0803C910508F436C1805C9109F4C0D8
:100D5000811540E2940758F4C11581E0D80708F0E6
:100D600077C1C03FD10508F426C1D06571C1811596
:100D700020E3920708F0E4C09F70DEC0811535E5DE
:100D8000930708F044C0811544E5940708F0F8C0C3
:100D9000C11582E5D80708F5C11521E5D20708F08D
:100DA000DBC08C2F837021E030E002C0220F331FA4
:100DB0008A95E2F73C68CE0174E0969587957A951E
:100DC000E1F78370382BCF70C695C69580E2C89F37
:100DD000E0011124C22BD32B3BC12C2F2695269545
:100DE000CE0183709927C115D34508F0BAC040E2FF
:100DF000249F90011124C1E0D0E002C0CC0FDD1F80
:100E00008A95E2F72C2B3D2BE901DC6821C1811585
:100E100049E59407A0F4C11588E5D80708F0B5C0E6
:100E2000C11526E5D20708F0C6C08C2F0E94A9087C
:100E30008F71C82FD0E0DC2FCC27D06209C181157B
:100E40003AE5930708F4A6C090568115904208F041
:100E5000B2C08D2F8F710E94A908DD27D0628F71DB
:100E6000D82BF6C0853A910509F4A8C0863A9105B9
:100E700009F0A7C0C2E8D0E4EBC0883A910509F4B4
:100E8000A3C0893A910509F4A2C08A3A910509F4F0
:100E9000A1C08B3A910509F4A0C08C3A910509F4E0
:100EA0009FC08B3B910509F49EC08C3B910509F4D2
:100EB0009DC08D3A910509F49CC0803B910509F4D1
:100EC0009BC08E3A910509F49AC08F3A910509F4B6
:100ED00099C0813B910509F498C0823B910509F4C2
:100EE00097C0833B910509F496C0843B910509F4B2
:100EF00095C0853B910509F494C0863B910509F4A2
:100F000093C0873B910509F492C0883B910509F491
:100F100091C0893B910509F490C08D3B910509F47E
:100F20008FC08E3B910509F48EC08A3B910509F470
:100F30008DC0C0E0D4E48CC00E946D06EC0188C076
:100F40009927D3FF03C0EC01D86C82C0EC01D06CB0
:100F50007FC0DF70D06A7CC0DC2FCC27C16FD06A25
:100F600077C040E2249F90011124C1E0D0E002C08C
:100F7000CC0FDD1F8A95E2F7C22BD32BDA6868C04D
:100F8000D82FCC27C46FD06A63C0DC2FCC27C06FAA
:100F9000D06A5EC08F700E94A90894E0D695C7956C
:100FA0009A95E1F7CF70D0E0DC2FCC27D06A8F7014
:100FB000806EC82B4DC0C0E0D0E04AC0C1E8D0E48C
:100FC00047C0C3E8D0E444C0C2EED4E441C0C9EE97
:100FD000D4E43EC0CAEED4E43BC0C5EBD4E438C090
:100FE000C6EBD4E435C0C3EBD4E432C0C4EBD4E4E4
:100FF0002FC0C7EBD4E42CC0CCECD4E429C0CDEC9A
:10100000D4E426C0C3E8D5E423C0CAE8D5E420C0B0
:10101000C2E9D5E41DC0C4E9D5E41AC0C1E2D6E4F2
:1010200017C0C3E2D6E414C0C4E2D6E411C0C5E2DE
:10103000D6E40EC0C6E2D6E40BC0C7E2D6E408C0D0
:10104000CFE6D4E405C0C0E7D4E402C0CAE2D6E4E7
:10105000CE01DF91CF9108958238910549F1B0F426
:101060008133910509F458C048F48932910509F497
:101070004EC08A32910509F454C008958533910514
:1010800009F440C08933910599F00895833E910594
:1010900029F138F4803E910591F0823E9105A1F04E
:1010A0000895863E9105F9F0873E910531F1089546
:1010B0002091860220FD3AC021FD38C0089580911C
:1010C000860280FD35C032C08091860282FF32C028
:1010D0008091860284FD30C083EE39C08091860203
:1010E00082FD28C0F5CF8091860283FF27C08091C2
:1010F000860284FD21C087EE2AC08091860283FD8E
:101100001DC0F5CF8091860285FD1AC01BC080915D
:10111000860285FD17C014C08091860286FD14C02A
:1011200015C08091860286FD11C00EC080EE0FC0F2
:1011300089E30DC082EE0BC080E009C086EE07C0D7
:1011400089E205C085E303C08AE201C081E390E043
:1011500008959091860292FF0DC0282F28712830A3
:1011600019F4877F846006C0282F2471243011F47D
:101170008B7F886093FF0DC0282F2871283119F4C8
:10118000877E846106C0282F2471243111F48B7E60
:10119000886194FD877E089508950895E82FF0E012
:1011A000EE0FFF1FE959FE4F808191810895089548
:1011B000E2E3F1E041E050E025E02E0F9191A92F0C
:1011C000A295AF70B0E091963C9191979F70BA0153
:1011D00002C0660F771F9A95E2F7CB0180958323B3
:1011E00091968C932E13EACFA3E2B1E041E050E058
:1011F0002FE02A0F8D91E82FE295EF70F0E031A1FA
:101200008F70BA0102C0660F771F8A95E2F7CB0193
:10121000962F9095932391A392A1892B82A32A13B1
:10122000E9CFE1E7F1E0A7E6B1E0119211921D925A
:101230001D9271E0EB37F707C1F785E00E94BA090C
:101240000C9432044F925F927F928F929F92AF9252
:10125000BF92CF92DF92EF92FF920F931F93CF93A3
:10126000DF9322E3422E21E0522EA1E7B1E020E0FD
:1012700001E010E05D018D909C90119711961C92F9
:101280001E92E20189912E01E82FE295EF70F0E0C5
:1012900031A18F70A80102C0440F551F8A95E2F753
:1012A000CA01342B31A342A1382F3095432342A3E6
:1012B00050EA5A95F1F793E2C92E91E0D92E40E019
:1012C00050E0E60179906E01672D62956F7070E0D5
:1012D000EB01E8A06D917C911197F12CD72DDF7077
:1012E00002C0F594E794DA95E2F7E0FC08C07801D3
:1012F000042E02C0EE0CFF1C0A94E2F702C0E12C9F
:10130000F12C6E297F2911967C936E934F5F5F4F6E
:101310004F305105B1F691A1392331A392A1892B08
:1013200082A3129681E0F5014081518184169506D1
:1013300009F480E0282BF1E0AB37BF0709F09ACF22
:1013400045E067E671E081E791E00E94BB090E94F9
:101350003A0481E0DF91CF911F910F91FF90EF90C0
:10136000DF90CF90BF90AF909F908F907F905F90D5
:101370004F9008950895FF920F931F93CF93DF939B
:10138000F82E092F162FD72FC42F222349F081E0E2
:1013900080937D010E94721E90937C0180937B015B
:1013A00080917D018823D9F080917B0190917C010F
:1013B0000E947E1E069798F0EF2DF02FA12FBD2FD3
:1013C00080E090E04C2F50E08417950734F4219191
:1013D00031912D933D930196F7CF10927D01DF91CE
:1013E000CF911F910F91FF900895CF92DF92EF92CE
:1013F000FF920F931F93CF93DF93D62E472FE82FA3
:10140000F82F711103C0682F782F7CC0072F10E0D0
:10141000E82EF12C26E0629FC0011124CFEFD0E02E
:10142000BE010E94A72B9B015BEA5603C001579F98
:10143000900D11248D0D911D8D0D911D982F990FDB
:10144000980F6E01C01AD10AB701C69ED001C79E7F
:10145000B00DD69EB00D11248B2F949FA0011124A6
:10146000452F55277E01E41AF50AE69EA001E79E66
:10147000500DF69E500D11246E01C91AD108C09E60
:101480007001C19EF00CD09EF00C11240F2D11277D
:10149000C01BD10BC69F8001C79F100DD69F100D9A
:1014A0001124712F2230310591F04CF421153105B2
:1014B000D9F021303105B1F47E2FE52F15C024304D
:1014C000310561F044F02630310571F00BC0EB2F8F
:1014D000812F7F2F09C0752FEB2F02C0E12F7B2FAB
:1014E0008F2F02C07B2F852FF0E0EF55FB4F6491CB
:1014F000E72FF0E0EF55FB4F7491E82FF0E0EF5548
:10150000FB4F8491DF91CF911F910F91FF90EF904E
:10151000DF90CF9008950895CF93DF93762FE90160
:10152000682F842F0E94F509698378838A83DF916D
:10153000CF91089580916902282F269530E02115DA
:10154000310519F48170826005C02532310524F01F
:101550008170886480936902089588E090E00C941B
:10156000EA2BCF93DF9300D000D0CDB7DEB7AB012D
:10157000BC0149835A836B837C830E949A0A498108
:101580005A816B817C8188E090E00F900F900F90E2
:101590000F90DF91CF910C94082CE9E6F2E083E004
:1015A000808311828FEF82838383148260817181B3
:1015B000828193810C94B10A8091690280FF02C0FC
:1015C0008695089580E0089580916D02833018F427
:1015D0008F5F80936D026091690270916A028091C1
:1015E0006B0290916C020C94B10A80916D02882379
:1015F00019F0815080936D026091690270916A02C6
:1016000080916B0290916C020C94B10A609104017C
:1016100070E08091690280FF0AC08091820123E01E
:10162000829FC001112482599D4F0C94DF0F80913D
:10163000810190910301891780F7E82FF0E09F0165
:10164000220F331FE20FF31FE259FD4F1182108268
:1016500012828F5FF0CF9091690290FF16C0909137
:10166000810120910301921770F4E92FF0E0DF016E
:10167000AA0FBB1FEA0FFB1FE259FD4F8183608356
:1016800042839F5FF0CF0C94060B0895CF93DF93B6
:1016900000D01F92CDB7DEB79091690290FF0AC0CB
:1016A0009E012F5F3F4F0E948C0A4B8169818A8186
:1016B0000E942B0B0F900F900F90DF91CF91089508
:1016C000CF93DF93EC01EC81F0E0E456FC4F4491C2
:1016D000E9E6F2E0628181810E94460B8C818F5F96
:1016E0008C83DF91CF910895CF93DF93EC01E9E6EE
:1016F000F2E0438162818C810E94460B8C818F5F76
:101700008C83DF91CF9108950F931F93CF93DF9335
:1017100000D01F92CDB7DEB78C0180917E01811180
:101720000AC09E012F5F3F4F4FEF6FEF0E948C0A60
:101730008A8180937E01F8018481813051F028F004
:10174000823061F440917E010AC080917E0140E0C8
:1017500007C060917E0140E080E003C040E080E08F
:1017600060E00E942B0BF801248130E0C901019652
:1017700063E070E00E94BB2B84830F900F900F906A
:10178000DF91CF911F910F910895AF92BF92CF92A9
:10179000DF92EF92FF920F931F93CF93DF9300D0CE
:1017A0001F92CDB7DEB7182FF62E042FE22E9091A0
:1017B000690290FF6EC0E92FE695AE2FB0E0A95CFC
:1017C000BE4F8C9180938A019E7F923061F49E017E
:1017D0002F5F3F4F812F0E948C0A4B8169818A8144
:1017E0000E942B0B44C0823019F400916C023FC060
:1017F000863019F410916A023AC08930D9F38931E0
:10180000B1F5E9518E2F8170D82EE695F0E0E456BF
:10181000FB4FA590B490C12CBB2460910201C61669
:1018200020F5EC2DF0E0EA9DC001EB9D900DFA9DB6
:10183000900D112470E00E94A72B812FD11002C0BF
:10184000860F01C0861B90918101E90FF11D9F0158
:10185000220F331FE20FF31F9F0122593D4F402FEC
:101860006F2D0E948C0AC394D8CF0E94060B109350
:101870006A02F0926B0200936C02EE2051F06091CC
:10188000690270916A0280916B0290916C020E94D1
:10189000B10A0F900F900F90DF91CF911F910F9190
:1018A000FF90EF90DF90CF90BF90AF900895E9E662
:1018B000F2E09181282F438162818CE0890F0C94A2
:1018C000C50B81E00C94570CE9E6F2E09181282FDA
:1018D0004381628184EF890F0C94C50B81E00C94E5
:1018E000640CE9E6F2E0628129E1620F08F46FEF2F
:1018F000282F438181810C94C50B81E00C94710CDD
:10190000E9E6F2E0628129E1621B08F460E0282F39
:10191000438181810C94C50B81E00C94800CE9E635
:10192000F2E043812CE0420F08F44FEF282F628150
:1019300081810C94C50B81E00C948F0CE9E6F2E0F8
:1019400043812CE0421B08F440E0282F6281818112
:101950000C94C50B81E00C949E0C20E00C94C50BFC
:10196000FF920F931F93CF93DF93EC01F12C0FEFB6
:1019700010E060910201F616E8F42091810130E058
:101980002F0D311DC901880F991F280F391F2259AA
:101990003D4F70E0C8010E94BB2B962F8C81409177
:1019A0006C0260916B02F99E800D11240E948C0ADA
:1019B000F394DFCF0E94060B9A818C8190FF02C0C6
:1019C0008F5F01C081508C83DF91CF911F910F9168
:1019D000FF900895BF92CF92DF92EF92FF920F9304
:1019E0001F93CF93DF93FC01828180FF02C00FEF32
:1019F00001C001E010E0809102011817E0F5C12E4E
:101A0000D12C80918101E601C80FD11DCE01880F34
:101A1000991FC80FD91FC259DD4F198218821A8227
:101A200034E0E32EF12CB12C809180018B0D87FFE7
:101A300003C090910201890F082E000C990BC81663
:101A4000D90691F480916C028E9DA0018F9D500D5E
:101A5000112455954795559547959E0160916B02C8
:101A600080916A020E948C0AB00EF1E0EF1AF10830
:101A7000D9F61F5FC0CF0E94060B80918001013014
:101A800031F4811102C080910201815007C090E0C1
:101A900001966091020170E00E94BB2B809380014F
:101AA000DF91CF911F910F91FF90EF90DF90CF903A
:101AB000BF900895CF938091810190910301891780
:101AC00070F4E82FF0E09F01220F331FE20FF31FA5
:101AD000E259FD4F1182108212828F5FF0CFC0E079
:101AE00060910201C617B8F5EC2FF0E070E0CF016D
:101AF0000E94BB2B40918101480F80917F01082EED
:101B0000000C990B50E0E817F907C4F0209101018F
:101B1000022E000C330B2E173F0784F09A01220F80
:101B2000331F240F351F22593D4F40916C026091A5
:101B30006B0280916A020E948C0A0BC0FA01EE0FC0
:101B4000FF1F4E0F5F1FFA01E259FD4F11821082F5
:101B50001282CF5FC5CF0E94060B209100018091B9
:101B60007F01820F80937F0190910101920F9093EA
:101B7000010119165CF4082E000C990B409102012A
:101B800050E041505109841795071CF0219520938E
:101B90000001CF9108950F931F93CF93DF938C0192
:101BA000FC018481958101968170992795838483B6
:101BB000C0E0D5E580910201C817F8F420918101B9
:101BC00030E02C0F311DC901880F991F280F391FD4
:101BD00022593D4F4C2F4695F80184819581840F01
:101BE000911D817040916C0260916B028D9F802DE0
:101BF00011240E948C0ACF5FDDCFDF91CF911F911E
:101C00000F910C94060B0F931F93CF93DF93EC016E
:101C100000E010E080910201282F30E00217130746
:101C200024F5909181019801290F311DA901440FDC
:101C3000551F240F351F22593D4F869590E04C814A
:101C4000081719071CF4442331F002C0411103C0E6
:101C500040916C0201C040E060916B0280916A0289
:101C60000E948C0A0F5F1F4FD5CF0E94060B2C815C
:101C700030E02F5F3F4F217033272C83DF91CF91CE
:101C80001F910F910895E9E6F2E080818E7F8083B5
:101C900060817181828193810E94B10A10928B01CF
:101CA0002FEF80E792E0215080409040E1F700C0A4
:101CB00000000C94060B60916902669570E04BE0A1
:101CC00050E085E091E00E94D52B892B19F481E04A
:101CD00080938B010E94721E9093840180938301F4
:101CE00008959091690290FF35C09170811102C0F2
:101CF000926006C0853210F0986402C0880F982B5D
:101D000090936902662351F06091690270916A02B2
:101D100080916B0290916C020E94B10A60916902FD
:101D2000669570E04BE050E085E091E00E94D52B95
:101D3000892B19F010928B0102C00E945B0E81E08A
:101D40008093860140916C0260916B0280916A02DF
:101D50000C94AD0C0895682F90916902969581E0DE
:101D6000890F853208F081E00C94710E81E00C94AB
:101D7000AB0E682F9091690296958FEF890F09F449
:101D800084E20C94710E81E00C94B90E61E00C9425
:101D9000710EE9E6F2E080818160808386950C9483
:101DA000C60E8091690280FD0C94430E0C94C90EFE
:101DB00060E00C94710E80918901811133C0809193
:101DC00038028160809338020E94D81C811104C0BF
:101DD0000E945C1D0E94CD0A0E94AD0A60936902B8
:101DE00070936A0280936B0290936C026E7F61F431
:101DF0000E94CD0A0E94AD0A6093690270936A0244
:101E000080936B0290936C020E949A0A10928B014D
:101E10008091690280FF03C086950E94D80E81E000
:101E20008093890108950F931F93CF93DF9380913F
:101E30008B01882309F48CC080918A01E0916902AA
:101E4000E695E81BE0938501823049F4F0E0E8561E
:101E5000FC4FE491CE2FD0E000E61BE049C0863075
:101E600049F4F0E0EB56FC4FE491CE2FD0E004E7CC
:101E70001BE03EC0893051F4E695F0E0EE56FC4F91
:101E8000E491CE2FD0E000EB1CE032C08F3051F453
:101E9000E695F0E0E157FC4FE491CE2FD0E00AEE5A
:101EA0001CE026C0853149F4F0E0E457FC4FE49192
:101EB000CE2FD0E00AE51DE01BC0883181F08332CF
:101EC00039F4EAE8F3E0C591D49104E81BE010C0CE
:101ED000843251F4C4EFD1E003E01EE009C0C8EE43
:101EE000D3E00BEC1DE004C0C0EDD7E00BE81AE036
:101EF00080918601882389F0109286010E94721ECB
:101F00009E0120953095820F931F909384018093BA
:101F10008301109288011092870180918301909132
:101F200084010E947E1E8C179D0790F0E091830132
:101F3000F0918401CE0FDF1FD0938401C093830101
:101F400083E891E0F801DF91CF911F910F910994FF
:101F5000DF91CF911F910F91089521B3342F3095C8
:101F6000232331B3432B3FB7F894FC01680F791F4B
:101F7000E617F70789F0819198E041BB000000C0A7
:101F800087FF21BB880F000000C000C000C021BB3C
:101F900000C09A9591F7ECCF3FBF089520B3242B52
:101FA00020BB9B01220F331F620F731F0E94AD0FD6
:101FB00087EC90E00197F1F700C00000089540E43D
:101FC0000C94CE0F0F931F93CF93DF93C62FD42F74
:101FD000022FFC0182818823C9F060938E010E9448
:101FE000721E90938D0180938C0180E28C0F88305B
:101FF00008F050C0C77081E001C0880FCA95EAF7A9
:10200000DF91CF911F910F910C94B01310918E011D
:10201000161330C080918C0190918D010E947E1E1C
:10202000883C910538F5C0E2CD0F1D17B9F080E26C
:10203000810F883040F4177081E001C0880F1A9535
:10204000EAF70E94B713C83048F481E09D2F9770DB
:1020500001C0880F9A95EAF70E94B013802F0E9462
:10206000A813C830B8F4D77081E001C0880FDA95A2
:10207000EAF70AC080E28C0F883060F4C77081E014
:1020800001C0880FCA95EAF7DF91CF911F910F9198
:102090000C94B713DF91CF911F910F9108959C017C
:1020A000CB01203F4CE53407F9F078F4283DFCE5FE
:1020B0003F07B9F0293D4CE5340711F1273D3C4578
:1020C00031F526E241EE61EE1EC0223FFCE53F07FE
:1020D00099F070F0233F3C45D1F427E245EE66EEDF
:1020E00012C027E245EE0EC026E241EE60EE0BC0C4
:1020F00027E245EE64EE07C026E241EE62EE03C041
:1021000028E241E065EE0E94E20F80E00895FC01C4
:102110008281882319F010928E01089581E008953C
:1021200090939401809393010895E0919301F0912D
:102130009401309721F00190F081E02D099480E026
:102140000895E0919301F0919401309799F02091D6
:102150002201222359F02091860227FF07C0DC01CB
:102160002C9111962C93119725E02C930280F381EA
:10217000E02D09940895E0919301F0919401309736
:1021800039F022E0DC012C930480F581E02D0994E4
:10219000089520919101309192018217930771F077
:1021A0009093920180939101E0919301F0919401B9
:1021B000309721F00680F781E02D09940895209151
:1021C0008F01309190018217930771F090939001E5
:1021D00080938F01E0919301F0919401309721F069
:1021E0000084F185E02D0994089585B7806885BF46
:1021F00085B7806885BF0895089508950C94FD10F3
:1022000008950C9400110E94F5100E94FC100C948B
:10221000FE1081E008950E94691E0E94D8080E9465
:102220003E1F0E94DB0E0C9401114F925F927F9231
:102230008F929F92AF92BF92CF92DF92EF92FF92D6
:102240000F931F93CF93DF93CDB7DEB72A970FB6C7
:10225000F894DEBF0FBECDBF0E9422090E94091173
:10226000811111C08FEF89838A831B820E94721EA5
:102270008160782F9D838C8349815A816B818D8108
:102280000E94D31157C096E9C92E91E0D92E00E0E3
:1022900010E0AA24A394B12C702E802F0E94CE08A7
:1022A0004C01F601419051906F0148265926411486
:1022B000510431F40F5F1F4F0530110569F7D2CF7C
:1022C0008091380281FD0E94D70820E030E075013E
:1022D000022E02C0EE0CFF1C0A94E2F7C701842113
:1022E0009521892B09F12E837F828E209F2091E0FA
:1022F000892809F490E098870E94721E8160782FE7
:102300009A8789874E815F8168858A850E94D3116B
:10231000000F111FF801EA56FE4F80819181E826D7
:10232000F926F182E08206C02F5F3F4F2F30310542
:1023300071F6C0CF0E94E121109195010E94951085
:102340001817D9F00E949510809395012A960FB620
:10235000F894DEBF0FBECDBFDF91CF911F910F91DB
:10236000FF90EF90DF90CF90BF90AF909F908F90B5
:102370007F905F904F900C943D042A960FB6F8948E
:10238000DEBF0FBECDBFDF91CF911F910F91FF90A8
:10239000EF90DF90CF90BF90AF909F908F907F9005
:1023A0005F904F900895CF93DF93CDB7DEB72B9713
:1023B0000FB6F894DEBF0FBECDBF4F835887698735
:1023C0007A878B87DE01119686E0FD0111928A954E
:1023D000E9F785E0FE01379601900D928A95E1F7C5
:1023E00049815A816B817C818D819E810E941D195A
:1023F0002B960FB6F894DEBF0FBECDBFDF91CF9105
:102400000895FC01808191810E94E91B0895CF937A
:10241000DF931F92CDB7DEB7882309F42DC1682F53
:102420008238C1F40E94951081FD26C169E3809134
:102430001001909111010E94C31D0E94741C2FEF86
:1024400081EE94E0215080409040E1F700C0000010
:1024500069E319C0833811F50E94951080FD0CC105
:1024600063E580911001909111010E94C31D0E94AB
:10247000741C2FEF81EE94E0215080409040E1F7F2
:1024800000C0000063E580911001909111010E944D
:10249000CE1D0F90DF91CF910C94741C8438C1F441
:1024A0000E94951082FDE8C067E480911001909130
:1024B00011010E94C31D0E94741C2FEF81EE94E055
:1024C000215080409040E1F700C0000067E4DBCF7E
:1024D0008CEF860F813A70F4862F69830E94EA237D
:1024E00069818111C9C080911001909111010E94F0
:1024F000C31DCFCF80E2860F883048F4677081E03B
:1025000001C0880F6A95EAF70E942B1CC2CF8BE5A9
:10251000860F833088F4653A29F0663A31F083E813
:1025200090E005C081E890E002C082E890E00F9062
:10253000DF91CF910C94C91088E5860F873108F0A0
:1025400091C0683A09F445C0693A09F445C06A3A4D
:1025500009F445C06B3A09F445C06C3A09F445C02A
:102560006B3B09F445C06C3B09F445C06D3A09F476
:1025700045C0603B09F445C06E3A09F445C06F3A66
:1025800009F445C0613B09F445C0623B09F445C00C
:10259000633B09F445C0643B09F445C0653B09F45D
:1025A00045C0663B09F445C0673B09F445C0683B3C
:1025B00009F445C0693B09F445C06D3B09F445C0C9
:1025C0006E3B09F445C06A3B09F445C080E090E0E9
:1025D00044C082EE90E041C089EE90E03EC08AEEB9
:1025E00090E03BC085EB90E038C086EB90E035C0D2
:1025F00083EB90E032C084EB90E02FC087EB90E05B
:102600002CC08CEC90E029C08DEC90E026C083E8D3
:1026100091E023C08AE891E020C082E991E01DC0EA
:1026200084E991E01AC081E292E017C083E292E06F
:1026300014C084E292E011C085E292E00EC086E20E
:1026400092E00BC087E292E008C08FE690E005C000
:1026500080E790E002C08AE292E00F90DF91CF9194
:102660000C94DF10603F40F0862F0E94E9200F900D
:10267000DF91CF910C94D6210F90DF91CF910895E7
:10268000882309F464C0823879F40E94951081FF90
:102690005EC069E380911001909111010E94C31DF9
:1026A0000E94741C69E310C08338B1F40E94951035
:1026B00080FF4DC063E580911001909111010E944F
:1026C000C31D0E94741C63E580911001909111015B
:1026D0000E94CE1D0C94741C843879F40E949510CD
:1026E00082FF35C067E480911001909111010E9432
:1026F000C31D0E94741C67E4E7CF9CEF980F913ACA
:1027000010F4682FE1CF90E2980F983050F4877062
:1027100091E001C0990F8A95EAF7892F0E94311C38
:10272000D9CF9BE5980F933020F480E090E00C9493
:10273000C91098E5980F973120F480E090E00C9450
:10274000DF10803F20F00E9451210C94D621089583
:10275000CF93C82F0E9407128C2FCF910C94401357
:10276000882321F00E942B1C0C94741C089588234C
:1027700021F00E94311C0C94741C08954F925F92BA
:102780006F927F92BF92CF92DF92EF92FF920F9360
:102790001F93CF93DF937C01D62FC72FFC010581B8
:1027A00002950F70128111110E94481C0E94211C79
:1027B000882379F0112369F080E28D0F883048F08A
:1027C00082E00E94BF1C0E94211C91E0B82EB92615
:1027D00001C0B12CCC2EC2948FE0C822D12CF601BE
:1027E000E859FF4F0C94CF2B8C2F807FCF7088231C
:1027F00011F0C295C07F112399F0CC2309F4CFC109
:1028000080E28D0F883010F0D11104C08C2F0E940F
:102810002B1C03C08C2F0E943B1C0E94741CBFC148
:102820008D2F0E944013CC2309F4DEC180E28D0F6E
:10283000883010F0D11104C08C2F0E94311C03C0CD
:102840008C2F0E94411C0E94741CCEC18C2F807F53
:10285000CF70803211F0C295C07FDD2319F0D130E6
:10286000C9F022C0112371F0002341F0013031F48E
:102870000E945B1C8C2B0E94611CB6C10E945B1CD9
:102880008C2B46C1002319F0013009F4ADC10E9420
:102890006A1C18C0112321F0063008F0A5C10EC033
:1028A000053008F0A1C10EC0112351F0002331F012
:1028B000F701858180FF73C18F7085838C2F28C1BC
:1028C00001117EC18C2F2AC18C2F8695869583702D
:1028D00090E0009719F0019761F086C1112321F073
:1028E0008D2F9C2F937002C080E090E00E94C91051
:1028F0008BC1112321F08D2F9C2F937002C080E09B
:1029000090E00E94DF1080C11123F9F0D53F51F013
:10291000D63F71F0D43FA9F480918002909181025A
:1029200081600BC08091800290918102826005C01D
:1029300080918002909181028460909381028093C3
:1029400080028D2F0E94E9201EC0D53F51F0D63F56
:1029500071F0D43FA9F480918002909181028E7F22
:102960000BC080918002909181028D7F05C0809183
:102970008002909181028B7F9093810280938002EC
:102980008D2F0E9451210E94D6213EC18C2F837031
:1029900009F050C0111134C18D2F82958695877032
:1029A000880F880F9D2F9F70492E512C612C712C00
:1029B000082E04C0440C551C661C771C0A94D2F7E0
:1029C000D4FF14C00FE010E020E030E0B901A8010E
:1029D00004C0440F551F661F771F8A95D2F7CB019D
:1029E000BA01609570958095909503C060E070E0A5
:1029F000CB01C695C695C370D0E0C230D10561F059
:102A0000C330D10581F0642975298629972921973A
:102A100071F00E94621AF4C06429752986299729E9
:102A20000E94741AEDC00E94621AC301B2010E9492
:102A3000501AE6C0112319F08C2F817001C08695C1
:102A4000882309F4DDC08D2F829586958770880FC5
:102A5000880F9D2F9F70492E512C612C712C082EB0
:102A600004C0440C551C661C771C0A94D2F7D4FF92
:102A700014C00FE010E020E030E0B901A80104C06C
:102A8000440F551F661F771F8A95D2F7CB01BA01F5
:102A9000609570958095909503C060E070E0CB01E3
:102AA000C695C695C3704C2F50E04230510569F071
:102AB0004330510589F064297529862997294130C9
:102AC000510571F00E94281B9BC064297529862935
:102AD00097290E943A1B94C00E94281BC301B2018F
:102AE0000E94161B8DC08D2F90E0FC01E05EF10965
:102AF000E531F10508F04FC0E858FF4F0C94CF2B9B
:102B0000DF708C2F8F71112331F00E94AF1A8D2F3F
:102B10000E94B01369C00E94D01A8D2F0E94B71373
:102B200063C0112341F0053008F05EC08C2F8F7117
:102B30000E94F51A59C0063008F056C0F7CF11238D
:102B400039F08C2F8F710E94AF1A4EC01123C9F338
:102B50008C2F8F710E94D01A47C0112329F08C2F1F
:102B60008F710E949A1A40C00E94951A3DC011238D
:102B700049F0CF718C2F0E94AF1A63E08C2F0E9416
:102B8000AA1C32C081E00E94BF1C023068F182E0C2
:102B90000E94BF1C29C0112331F0002391F28D2F18
:102BA0000E94071221C0002399F2D93349F45FEF44
:102BB00067EE73E0515060407040E1F700C00000E4
:102BC0008D2F0E94401310C04C2F4F706D2FC701E6
:102BD0000E9457060E94C11917C04C2F4F706D2FCD
:102BE000C7010E945A0610C088E0C816D10441F0FF
:102BF0005CF0EAE0CE1AD108F2E0CF16D10420F45E
:102C00000E9495100E943D04BB20F1F00E941D1C03
:102C100080FD1AC0F70112820E94171C0E94AF1A91
:102C2000C7010E9432160E94171CDF91CF911F919D
:102C30000F91FF90EF90DF90CF90BF907F906F90BB
:102C40005F904F900C94D01ADF91CF911F910F910C
:102C5000FF90EF90DF90CF90BF907F906F905F904C
:102C60004F9008950F931F93CF93DF93EC018881CA
:102C700099812B813C81232BB9F09F3F11F48F3F29
:102C800099F0CE010E944F04882371F06881798108
:102C90008A810E94F41B8C010E944C1B0E944D1AD9
:102CA000B801CE010E94BE13DF91CF911F910F9109
:102CB00008950E94481C0E94581C0E94741C0E9487
:102CC0007C220E94D62180E090E00E94C91080E022
:102CD00090E00C94DF1080911001909111010E94FE
:102CE000D91D0C9459160E94381C0C946B16E92FB0
:102CF000E295EF70F0E03297EE30F105B0F4E35773
:102D0000FF4F0C94CF2B803F91F018F4803E68F475
:102D10000EC0843F51F40BC0803E48F0813F29F43F
:102D200006C093FB882780F9089580E0089581E02C
:102D300008950E94E91B0E9477160895CF93DF93B0
:102D400000D000D01F92CDB7DEB70F900F900F903C
:102D50000F900F90DF91CF910895CF93DF9300D024
:102D600000D000D0CDB7DEB726960FB6F894DEBF00
:102D70000FBECDBFDF91CF9108951F93CF93DF9307
:102D8000C091A10116E08091A201C81799F0D0E08E
:102D90001C9FF0011D9FF00D1124ED55FE4F408149
:102DA000518162817381848195810E94AD16219643
:102DB000C770E9CFDF91CF911F9108954091D30162
:102DC0005091D4016091D5017091D6018091D701C5
:102DD0009091D8010C94AD168091D80182958F7096
:102DE00009F054C08091D501882309F44FC0809127
:102DF000A101A091A2016091D3017091D4014091F1
:102E0000D6015091D701B6E08A1709F43FC090E08F
:102E100041155105C1F17F3F11F46F3FA1F1B89FFA
:102E2000F001B99FF00D1124ED55FE4F2181721371
:102E30002AC02081621327C02281211124C023814E
:102E400034812417350710F421503109241B350B28
:102E5000283C3105C0F42091D8012F7020612093C7
:102E6000D80126E0289FF001299FF00D1124E85594
:102E7000FE4F80818F708061808383ED91E00E949E
:102E800032160C94BD1601968770BECF0895CF926E
:102E9000DF92EF92FF920F931F93CF93DF93CDB703
:102EA000DEB762970FB6F894DEBF0FBECDBF8C01C0
:102EB00085E0F801DE011D9601900D928A95E1F7FB
:102EC000D8014C9111965C91119712966C911297C2
:102ED0001396CD90DC9014973091D3017091D4016A
:102EE0008091D6019091D701009709F46BC17F3F83
:102EF00019F43F3F09F466C1E090D501EE2009F4D2
:102F0000C0C02091D801C816D90628F0F601E81BE8
:102F1000F90BCF0104C0809590958C0D9D1DFF2469
:102F2000F394883C910578F0F12C207F09F0C6C01D
:102F30007C2DD98AC88A89890E949E1683ED91E0EA
:102F40000E943216B1C0822F807F09F046C07513EF
:102F500014C0341312C0611110C02F70206120936F
:102F6000D8010E94DE1683ED91E00E943216809116
:102F7000D801D80115968C932EC0CD2819F15F3F4A
:102F800011F44F3FF9F0F62E61111CC08091A101A0
:102F90002091A20136E0821709F45AC090E0389FD0
:102FA000F001399FF00D1124ED55FE4F718157133B
:102FB00006C07081471303C07281711103C001966E
:102FC0008770E9CFF62E662309F427C18091D801D6
:102FD00081608093D801F12C20C1751308C034138F
:102FE00006C0611104C08091D801D801C3C04D87CB
:102FF0005E878D859E856A8B0E9499166A898823D3
:10300000E1F16623D1F12091D801822F82958F7052
:1030100090E0029774F08091D3019091D401988749
:103020008F831986DB86CA862C87CE0107960E947D
:10303000321686E0F801A3EDB1E001900D928A9579
:10304000E1F70E94EC160E94DE16FF24F394E5C01F
:103050004D875E878D859E850E94E91B292F2295CD
:103060002F7030E0223031050CF0CBC09F7009F09A
:10307000C5C0805E883008F4D0C0C8010E943216F6
:10308000E4CFC816D90608F453C0F601E81BF90BC3
:10309000CF01883C910508F450C0F12C7C2DD98AD1
:1030A000C88A89890E949E16E3EDF1E086E0DF017F
:1030B0001D928A95E9F70E94DE16AFC0751314C001
:1030C000341312C0611110C08091D801F8018583BA
:1030D000C8010E94321686E0E3EDF1E0DF011D92A7
:1030E0008A95E9F7FE2C99C04D875E878D859E8570
:1030F0006A8B0E9499166A89882309F4BECF6623D9
:1031000009F4BBCF2091D801822F82958F7090E077
:1031100002970CF48ECF8091D3019091D4019A83C1
:1031200089831B82DD82CC822E83CE0101967FCFE4
:10313000809590958C0D9D1DACCFF62E662309F4DD
:103140009CCF75132EC034132CC02091D80120FDC4
:103150001FC0822F82958F70D9F0D80115962C93BD
:1031600015978F3049F08F5F982F9295907F822F1F
:103170008F70892B15968C93C8010E94321686E0B9
:10318000F801A3EDB1E001900D928A95E1F793CF9C
:1031900086E0F801A3EDB1E001900D928A95E1F788
:1031A0003CC04D875E878D859E850E949916811152
:1031B00040CF8091D80181608093D801C8010E94DE
:1031C00032162BC0662309F458CF4D875E878D8554
:1031D0009E850E949916F82E882309F44ECF86E02A
:1031E000F801A3EDB1E001900D928A95E1F783ED2E
:1031F00091E00E9401120E94EC165DCF811139CF3F
:103200000CC0243031050CF038CF9F7009F431CF59
:10321000F8019581907F09F02CCF8F2D62960FB623
:10322000F894DEBF0FBECDBFDF91CF911F910F91FC
:10323000FF90EF90DF90CF9008951F93CF93DF938F
:10324000CDB7DEB72C970FB6F894DEBF0FBECDBF5B
:103250004F83588769877A878B879C87CE0107962B
:103260000E944717882369F08F8198852A853B85BE
:10327000232BF1F19F3F09F063C08F3F09F060C03D
:1032800037C086E0FE013796DE01119601900D925F
:103290008A95E1F76F817885EA85FB85309741F162
:1032A0007F3F11F46F3F21F12091A20130E0C9016D
:1032B0000196877099274091A10150E084179507E6
:1032C00009F447C069837A83FD83EC8396E0929F7B
:1032D000D001939FB00D1124AD55BE4FFE01319624
:1032E00001900D929A95E1F78093A2010E94BD167C
:1032F00016E08091A1019091A2018917C1F1189F58
:10330000C00111248D559E4F0E944717882379F1E3
:10331000E091A1011E9FF0011124ED55FE4F408167
:10332000518162817381848195810E94AD16809163
:10333000A10190E00196877099278093A101D9CFD0
:103340004F81588569857A858B859C850E94AD164D
:10335000CFCF0E9473161092A2011092A101E3ED4B
:10336000F1E086E0DF011D928A95E9F7C1CF2C9646
:103370000FB6F894DEBF0FBECDBFDF91CF911F9186
:103380000895EF92FF920F931F93CF93DF938C01D9
:10339000892B09F46CC0F12CEE24E394E80121960A
:1033A000F8018491843740F4843008F051C08130B2
:1033B00081F0823019F15BC0853709F444C0A8F16F
:1033C0009CE7980F903708F052C08F770E94401307
:1033D00041C00E5F1F4FFE01C49180E28C0F883008
:1033E00048F4C7708E2D01C0880FCA95EAF70E9475
:1033F0004B1C14C08C2F0E9407122DC00E5F1F4F54
:10340000FE01C49180E28C0F883058F4C7708E2D75
:1034100001C0880FCA95EAF70E94511C0E94741CD3
:103420001AC08C2F0E94401316C00E5F1F4FFE0162
:10343000C491CC2381F08FE99FE00197F1F700C0A0
:103440000000C150F6CF0E5F1F4FFE01F49003C085
:103450000E9407128E018F2D882309F49FCFEFE978
:10346000FFE03197F1F700C000008150F5CFDF9108
:10347000CF911F910F91FF90EF90089508950C94B4
:103480003E1A0E943F1A60930F02709310028093BD
:103490001102909312020C94591608950C94411A3B
:1034A0000F931F9300910F021091100220911102AF
:1034B00030911202602B712B822B932B1F910F9155
:1034C0000C94411A0F931F9300910F021091100258
:1034D00020911102309112026023712382239323E1
:1034E0001F910F910C94411A0F931F9300910F029B
:1034F0001091100220911102309112026027712761
:10350000822793271F910F910C94411A08950C94D0
:10351000861A0E94871A60930B0270930C028093A4
:103520000D0290930E020C94591660E070E0CB01EE
:103530000C94891A0F931F9341E050E060E070E013
:103540008A019B0104C0000F111F221F331F8A959F
:10355000D2F7C901B8011F910F910C94891A0F93EA
:103560001F9341E050E060E070E004C0440F551F3D
:10357000661F771F8A95D2F780910B0290910C02FB
:10358000A0910D02B0910E028A019B01082B192B0C
:103590002A2B3B2BC901B8011F910F910C94891A5A
:1035A0000F931F9341E050E060E070E004C0440FCF
:1035B000551F661F771F8A95D2F7409550956095E5
:1035C000709580910B0290910C02A0910D02B09128
:1035D0000E028A019B01082319232A233B23C901D8
:1035E000B8011F910F910C94891A0F931F9341E01A
:1035F00050E060E070E004C0440F551F661F771F65
:103600008A95D2F780910B0290910C02A0910D0245
:10361000B0910E028A019B01082719272A273B2710
:10362000C901B8011F910F910C94891A0F931F9330
:1036300000910B0210910C0220910D0230910E02AC
:10364000602B712B822B932B1F910F910C94891A55
:103650000F931F9300910B0210910C0220910D0209
:1036600030910E0260237123822393231F910F91C7
:103670000C94891A0F931F9300910B0210910C0266
:1036800020910D0230910E02602771278227932727
:103690001F910F910C94891A08952FE0929F800D2D
:1036A0001124A82FA695A695A695877051E001C074
:1036B000550F8A95EAF785E0A89FD001112420E0F4
:1036C00030E070E0F901EA0FFB1FE752FE4F408146
:1036D000CB01022E02C0969587950A94E2F781707D
:1036E0009927819584278523842780832F5F3F4FE7
:1036F0002530310539F708952FE0929F800D112470
:10370000682F669566956695982F977085E0689FF7
:10371000B001112440E050E080E0FA01E60FF71F0D
:10372000E752FE4F208130E0092E02C036952795E2
:103730000A94E2F721703327042E01C0220F0A9465
:10374000EAF7822B4F5F5F4F4530510531F70895FF
:10375000BF92CF92DF92EF92FF920F931F93CF937E
:10376000DF938C01C0900F02D0901002E090110204
:10377000F090120280910B0290910C02A0910D0228
:10378000B0910E02C82AD92AEA2AFB2ACFE1D0E05A
:10379000D701C6010C2E04C0B695A79597958795BD
:1037A0000A94D2F780FF07C0BC2EB8018C2F0E946C
:1037B0007506019719F4219758F7B12C8B2DDF91DD
:1037C000CF911F910F91FF90EF90DF90CF90BF901E
:1037D0000895CF93DF93EC010E94A81BBE010E94C5
:1037E0007506DF91CF9108951F93CF93DF93EB017F
:1037F0009091A001992321F0CB010E94E91B13C0F5
:10380000882349F0CB010E94A81B182F682FCE01F6
:103810000E944D1B04C0CB010E947C1B182FBE01CF
:10382000812F0E947506DF91CF911F91089580919D
:10383000130285958595859508958091130287706B
:10384000089590911302977081E009F480E0089543
:1038500080913702089590913702892B8093370227
:1038600008958095909137028923809337020895B7
:1038700010923702089590913602892B8093360278
:103880000895809590913602892380933602089599
:1038900010923602089590913502892B809335025B
:1038A000089580959091350289238093350208957B
:1038B00010923502089580911402089508950C9491
:1038C0005E1C90911402981721F0809314020C94BE
:1038D0005F1C089580911402882329F0109214022D
:1038E00080E00C945F1C0895E0911001F0911101AB
:1038F000809137028083E0911001F0911101908155
:1039000080913602892B8083E0911001F0911101A2
:10391000908180913502892B8083809114028823C5
:1039200081F0E0911001F09111019081892B808349
:1039300080911001909111010E945E1D81110E94E1
:103940006A1C80911001909111010C94A1100895AE
:103950000C94A71C98E0899F90011124262B20939A
:1039600013020E94AF1A8091130285958595859563
:103970000C94A81C1092130280E00C94A81C2091B7
:1039800013028095822380931302982F977079F405
:1039900030E0482F082E000C550B2417350739F05E
:1039A0008595859585950E94D01A0C94BA1C08952A
:1039B00080E090E00E94F02B21E08D3E9E4F09F0C8
:1039C00020E0822F089582E090E00C94E22B682F93
:1039D00082E090E00C94F62B83E090E00C94E22BD4
:1039E000682F83E090E00C94F62B84E090E00C9438
:1039F000E22B682F84E090E00C94F62BAB01BC0125
:103A00008FE090E00C94082CAB01BC0183E190E0C6
:103A10000C94082C60E070E0CB010C94041D60E075
:103A200070E0CB010E94FE1C0C940A1D6DEE7EEF2F
:103A300080E090E00E94142C60E082E090E00E9420
:103A4000F62B60E083E090E00E94F62B10920F02CC
:103A500010921002109211021092120260E084E0A3
:103A600090E00E94F62B60E085E090E00E94F62B4B
:103A700060E086E090E00E94F62B6FEF87E090E038
:103A80000E94F62B40E050E0BA0188E090E00E94EE
:103A9000082C60E08DE090E00E94F62B40E050E0C2
:103AA000BA0188E190E00E94082C60E087E190E094
:103AB0000E94F62B0C940F1D0C94161DFC013296DF
:103AC00080912201882331F08091860287FF02C015
:103AD0009EE101C096E080E0915028F021912223E0
:103AE000D9F38F5FF9CF08959C01FC0132969FEFC7
:103AF00080E04191461789F09F3F19F4411101C0C0
:103B0000982F8F5F8630A9F79F3F39F0F901E90FB1
:103B1000F11D97FDFA95628308950895FC01329690
:103B200008962081261301C010823196E817F90704
:103B3000C1F70895262F2695269526952E3168F4EF
:103B4000FC01E20FF11D677021E030E001C0220F9F
:103B50006A95EAF78281282B22830895262F2695DD
:103B6000269526952E3170F4FC01E20FF11D677049
:103B700021E030E001C0220F6A95EAF720958281AA
:103B800028232283089520912201222329F02091C5
:103B9000860227FD0C949A1D0C94741D209122011D
:103BA000222329F02091860227FD0C94AE1D0C944F
:103BB0008E1D20912201FC013296222331F080914A
:103BC000860287FF02C08EE101C086E0DF011D9200
:103BD0008A95E9F7089508950C94EB1D0E94EC1D59
:103BE00080918C02843049F11092390220E488E1FE
:103BF00090E00FB6F894A895809360000FBE2093D4
:103C0000600080E00E943D040E94EC1D83B7817F2C
:103C1000846083BF83B7816083BF7894889583B7BE
:103C20008E7F83BF0FB6F894A8958091600088615D
:103C300080936000109260000FBE0895089508956B
:103C4000CF930E941E1E0E9422090E941F1EC0E0E8
:103C50008C2F0E94CE08892B29F4CF5FC530C1F785
:103C600080E001C081E0CF91089508950C94351E45
:103C70000E9473160E9495100E943D040C94361EFB
:103C80001F920F920FB60F9211248F939F93AF93B1
:103C9000BF9380913902811113C08091820290916B
:103CA0008302A0918402B09185024196A11DB11DAD
:103CB0008093820290938302A0938402B093850242
:103CC000BF91AF919F918F910F900FBE0F901F905A
:103CD000189582E084BD93E095BD9AEF97BD8093DF
:103CE0006E0008952FB7F89480918202909183021C
:103CF000A0918402B09185022FBF0895CF92DF92E8
:103D0000EF92FF920F931F932FB7F8944091820286
:103D10005091830260918402709185022FBF6A01E5
:103D20007B01EE24FF248C0120E030E0C016D10698
:103D3000E206F30610F4415051099A01281B390B91
:103D4000C9011F910F91FF90EF90DF90CF900895E0
:103D500078941F920F920FB60F9211248F939F9316
:103D6000AF93BF938091820290918302A0918402CD
:103D7000B09185020196A11DB11D8093820290939E
:103D80008302A0938402B0938502BF91AF919F916B
:103D90008F910F900FBE0F901F90189581E0809328
:103DA000E00080E28093D8001092C9008FE19EE489
:103DB0000197F1F700C0000087E090EBDC018093F1
:103DC000950290939602A0939702B09398029CE07C
:103DD00088E10FB6F894A895809360000FBE909389
:103DE0006000FFCFAF92BF92CF92DF92EF92FF922F
:103DF0000F931F93CF93C0E0CC24C394D12CE82E13
:103E0000F12C8C2F0E94CE085C0100E010E096019E
:103E1000002E02C0220F331F0A94E2F72A213B2111
:103E2000232B31F40F5F1F4F0F30110581F70AC0AC
:103E3000602F7C2F80E00E945B06E816F90691F760
:103E400081E004C0CF5FC530E1F680E0CF911F91E3
:103E50000F91FF90EF90DF90CF90BF90AF900895BB
:103E6000CF93C82F8CE20E94F21E882321F08C2F62
:103E7000CF910C94F21E80E0CF910895CF930E94D1
:103E8000D81C811102C00E945C1DC5E6C15049F0DA
:103E90000E9422098FE39CE90197F1F700C000001E
:103EA000F5CF89E20E94301F81110FC18AE20E9482
:103EB000301F81110E945C1D85E00E94301F81111E
:103EC0000E94CE1E0E94E31C8093380287E00E946D
:103ED000301F8823A9F18BE10E94301F882351F005
:103EE0008091380281FB222720F991E0922790FBF4
:103EF00081F90EC08EE00E94301F882361F080910E
:103F0000380282FB222720F991E0922790FB82F968
:103F10008093380215C080E10E94301F90913802D2
:103F2000882341F093FB222720F981E0822780FB40
:103F300093F904C0892F809580FB90F99093380203
:103F4000809138020E94E71C0E94F51C90E090933B
:103F500087028093860280EE0E94301F882341F002
:103F600080918602982F909590FB80F9809386022D
:103F700089E30E94301F882359F08091860281FBDB
:103F8000222720F991E0922790FB81F98093860205
:103F900082EE0E94301F882359F08091860282FBB6
:103FA000222720F991E0922790FB82F980938602E4
:103FB00086EE0E94301F882359F08091860283FB91
:103FC000222720F991E0922790FB83F980938602C3
:103FD00083EE0E94301F882359F08091860284FB73
:103FE000222720F991E0922790FB84F980938602A2
:103FF00085E30E94301F882359F08091860285FB5B
:10400000222720F991E0922790FB85F98093860280
:1040100081E30E94301F882359F08091860286FB3D
:10402000222720F991E0922790FB86F9809386025F
:1040300081E10E94301F882359F08091860287FB1E
:10404000222720F991E0922790FB87F9809386023E
:10405000809186020E94F91C87E20E94301FC82FBF
:104060008EE10E94301F8111C2608FE10E94301FDB
:104070008111C46080E20E94301F8111C86081E21A
:104080000E94301F8111C06182E20E94301F8111A5
:10409000C06283E20E94301F8111C06484E20E94EA
:1040A000301F882311F0C06802C0CC2329F08C2F68
:1040B0000E94F01C6C2F03C00E94EC1C682F70E063
:1040C00080E090E0CF910C944E1ACF9108958091AA
:1040D0003D0280FF0BC06091150185E0689FB00133
:1040E000112475956795759567952BC081FF09C05B
:1040F0006091150185E0689FB00111247595679561
:1041000020C082FF07C06091150185E0689FB00163
:10411000112417C090913C029923D1F060911401B1
:10412000961788F72091150185E0289F90011124AA
:10413000929FA001939F500D112470E0CA010E942C
:10414000BB2B6038710540F46115710539F002C070
:1041500065E070E0862F08958FE7089581E0089567
:1041600080913D0280FF08C06091130170E0759559
:1041700067957595679521C081FF06C06091130111
:1041800070E07595679519C082FF04C060911301B6
:1041900070E010C090913C029923C1F0609112012F
:1041A0009617A0F780911301899FC001112470E038
:1041B0000E94BB2B6038710528F46115710521F050
:1041C000862F08958FE7089581E0089561E070E0FB
:1041D000F4CF803F21F40E946720819504C0813F85
:1041E00029F40E946720809341020895823F21F4C0
:1041F0000E946720819504C0833F29F40E946720B4
:10420000809340020895893F19F40E94B02005C0B0
:104210008A3F31F40E94B020819580934202089534
:104220008B3F21F40E94B020819504C08C3F29F47B
:104230000E94B020809343020895843F21F480912E
:104240003F02816017C0853F21F480913F02826068
:1042500011C0863F21F480913F0284600BC0873FEC
:1042600021F480913F02886005C0883F31F480913D
:104270003F02806180933F0208958D3F21F4809139
:104280003D0281600BC08E3F21F480913D0282602F
:1042900005C08F3F29F480913D02846080933D02E8
:1042A0000895803F39F48091410287FF6CC01092DD
:1042B000410269C0813F29F4809141021816BCF384
:1042C00062C090914002823F29F497FF5CC0109237
:1042D000400259C0833F19F41916CCF354C0893FEA
:1042E00041F48091420218160CF04DC01092420227
:1042F0004AC08A3F29F48091420287FF44C0F6CF2A
:104300008B3F39F48091430287FF3DC010924302F6
:104310003AC08C3F29F4809143021816BCF333C095
:10432000843F21F480913F028E7F17C0853F21F4A6
:1043300080913F028D7F11C0863F21F480913F0222
:104340008B7F0BC0873F21F480913F02877F05C0A0
:10435000883F31F480913F028F7E80933F0213C0EB
:104360008D3F21F480913D028E7F0BC08E3F21F462
:1043700080913D028D7F05C08F3F29F480913D02E1
:104380008B7F80933D028091400281110EC080910D
:10439000410281110AC080914202811106C08091C0
:1043A0004302811102C010923C0208958EE392E014
:1043B0000E94BB100E94721E90933B0280933A02AF
:1043C00008951F93CF93DF9380913A0290913B021F
:1043D0000E947E1EAC0190913C02992321F0209115
:1043E000160130E006C0209117018AE0289F900155
:1043F00011244217530708F47BC080914002C091FA
:104400004102D091420210914302811107C0C111B3
:104410006BC0D11169C0111167C06AC09F3F19F00C
:104420009F5F90933C02181624F40E9467208093AB
:1044300040028091400287FF05C00E94672081955D
:10444000809340021C1624F40E946720809341024E
:104450008091410287FF05C00E946720819580936B
:104460004102309140023323E1F0209141022223A6
:10447000C1F045EB3403C0011124892F990F990B2A
:10448000009709F481E08093400235EB2303C001DB
:104490001124892F990F990B009709F481E08093DB
:1044A00041021D1624F40E94B020809342028091A4
:1044B000420287FF05C00E94B0208195809342028E
:1044C000111624F40E94B02080934302809143028D
:1044D00087FF05C00E94B020819580934302DF9141
:1044E000CF911F910C94D6219F3F09F099CFA1CF76
:1044F000DF91CF911F910895EEE3F2E086E0DF01B6
:104500001D928A95E9F710923C0210923D0208959F
:10451000833081F128F4813059F08230D1F0089550
:10452000853009F449C0B8F1863009F456C00895C1
:1045300080911701262F30E0280F311D2F3F3105C4
:1045400024F4680F6093170108958FEF809317018B
:10455000089580911601262F30E0280F311D2F3F3E
:10456000310524F4680F6093160108958FEF80934E
:104570001601089580911501262F30E0280F311D76
:104580002F3F310524F4680F6093150108958FEFD4
:1045900080931501089580911401262F30E0280F93
:1045A000311D2F3F310524F4680F609314010895E5
:1045B0008FEF80931401089580911301262F30E02E
:1045C000280F311D2F3F310524F4680F609313012C
:1045D00008958FEF80931301089580911201262F83
:1045E00030E0280F311D2F3F310524F4680F609310
:1045F000120108958FEF809312010895833011F115
:1046000028F4813049F0823091F00895853081F1AD
:1046100020F18630C1F1089580911701681720F4C8
:10462000861B8093170108951092170108958091B9
:104630001601681720F4861B8093160108951092C6
:104640001601089580911501681720F4861B809348
:1046500015010895109215010895809114016817AD
:1046600020F4861B8093140108951092140108957C
:1046700080911301681720F4861B8093130108951D
:1046800010921301089580911201681720F4861B7F
:104690008093120108951092120108950F931F93B1
:1046A000482F50E0FA013597EF33F10508F07FC04D
:1046B000E556FF4F0C94CF2B0E945C1D71C080917A
:1046C0003802817F8E7F8093380281E0809345029B
:1046D0006FC00E9473160FEF13ED20E301501040DE
:1046E0002040E1F700C000000E94CE1E59C080911A
:1046F0003802982F9095917090FB80F98093380242
:1047000091114EC0897F877F10C08091380281FB54
:10471000222720F991E0922790FB81F980933802BB
:104720009923F1F18091380281608093380238C07A
:104730008091380282FB222720F991E0922790FB9A
:1047400082F9ECCF8091380283FB222720F991E097
:10475000922790FB83F9E2CF0E9473168091860224
:1047600087FB222720F991E0922790FB87F980931D
:10477000860216C0895301C08D5141E050E060E0CF
:1047800070E08A019B0104C0000F111F221F331F1C
:104790008A95D2F7C901B8010E944E1A0E94731679
:1047A00081E006C061E070E080E090E0F5CF80E05D
:1047B0001F910F91089580E0089580E008958E5133
:1047C0008A3030F4E82FF0E0E45AFE4F80810895FB
:1047D00080E00895CF93C82F80914502813051F039
:1047E00018F0823099F17DC00E94281C823209F0B5
:1047F0007AC004C00E94281C823261F48C2F0E946F
:10480000DB23811104C08C2F0E944E231DC081E048
:1048100090E01AC08C2F0E94DD23811114C0C43196
:1048200079F048F4CB3079F0C03109F060C082E013
:104830008093450208C0C93219F0C83321F057C02F
:104840001092450254C081E0817053C0C93289F191
:1048500018F5C43171F1B0F4C73009F046C08EE1EB
:104860008093170182E3809316018AE080931501FB
:1048700084E18093140188E08093130188E280939F
:10488000120133C082EE8C0F863078F58C2F0E9497
:10489000DF238093440229C0CE34E9F020F4CB34E6
:1048A00021F56AE013C0C13579F0C235F1F461E059
:1048B0000DC080914402882319F01092440215C063
:1048C00081E08093450215C061E006C080914402FA
:1048D0000E9488220AC06AE0809144020E94FE225F
:1048E00004C01092450280E004C081E002C080E074
:1048F000ABCFCF9108958091660208950F931F93D7
:10490000CF93DF9300D01F92CDB7DEB78C010E940A
:10491000EE26823011F0843021F584E089831B83F8
:104920000A8382E08093E9008FEF9091E800815044
:1049300095FD06C095ED9A95F1F700008111F5CF30
:104940008091E80085FF0DC040E050E063E070E03A
:10495000CE0101960E940B278091E8008E7780930C
:10496000E8000F900F900F90DF91CF911F910F9162
:104970000895CF93DF9300D01F92CDB7DEB720917B
:104980008C02243031F523E02983805891099B83E0
:104990008A8382E08093E9008FEF9091E800815054
:1049A00095FD06C095ED9A95F1F700008111F5CFC0
:1049B0008091E80085FF0DC040E050E063E070E0CA
:1049C000CE0101960E940B278091E8008E7780939C
:1049D000E8000F900F900F90DF91CF910895CF9343
:1049E000DF93EC010E94EE26823011F08430F9F45E
:1049F00082E08093E9009FEF8091E800915085FD6F
:104A000006C085ED8A95F1F700009111F5CF8091F0
:104A1000E80085FF0CC040E050E066E070E0CE01A9
:104A20000E940B278091E8008E778093E800DF9149
:104A3000CF910895CF93DF93EC010E94EE26823050
:104A400011F08430D9F580912201882339F08091CA
:104A5000860287FF03C060E282E002C068E081E076
:104A60008093E9008FEF9091E800815095FD06C09A
:104A700095ED9A95F1F700008111F5CF8091E8004E
:104A800085FF1CC080912201811105C040E050E0EB
:104A900068E070E003C070E040E050E0CE010E94AA
:104AA0000B278091E8008E778093E80080E2FE017A
:104AB000A6E4B2E001900D928A95E1F7DF91CF91E3
:104AC000089580918B02811109C00E94A0280E9444
:104AD000FD288091E20084608093E20008951092A6
:104AE0008B020895089508950C94381E42E061ECFD
:104AF00081E00E941A2842E261EC82E00C941A28BC
:104B000080918E02833009F460C030F4813071F0FE
:104B1000823009F499C008958A3009F485C08B3039
:104B200009F46BC0893009F0A7C020C080918D02C4
:104B3000813A09F0A1C08091E800877F8093E80066
:104B40008091910290919202892B21F460E286E497
:104B500092E003C060E080E090E070E00E945627A1
:104B60008091E8008B778093E800089580918D0212
:104B7000813209F081C08091910290919202029756
:104B800008F07AC08091E800877F8093E8008091E8
:104B9000E80082FD05C080918C028111F8CF6CC0C5
:104BA0002091F3008091F20090E0922B029729F47B
:104BB0008091F1008B7F813021F48091F10080930E
:104BC00066028091E8008B7753C080918D02813A14
:104BD00009F052C08091910290919202892B09F0C4
:104BE0004BC08091E800877F8093E8008091E800C7
:104BF00080FFFCCF8091220136C080918D028132EE
:104C0000D9F58091910290919202892BA9F580911A
:104C1000E800877F8093E8000E944F2880918F02F0
:104C2000809322010C94731680918D02813221F5BC
:104C30008091E800877F8093E8000E944F28809150
:104C4000900280936702089580918D02813AA1F4C9
:104C50008091E800877F8093E8008091E80080FFE2
:104C6000FCCF809167028093F1008091E8008E77FD
:104C70008093E8000C944F28089584B7877F84BF01
:104C80000FB6F894A89580916000886180936000C9
:104C9000109260000FBE80E8809361001092610066
:104CA0000E9403110E94A0280E94FD288091E2002A
:104CB00084608093E20078940E948C2B0E940B11F8
:104CC00088E191E00E94901080918C02853069F417
:104CD0000E94EE1D80918A028823B1F30E94201E5B
:104CE000882391F30E94F526EFCF0E9415110E94B0
:104CF000130FEACF0C947C26292F3327233031055C
:104D0000C9F064F42130310581F02230310509F019
:104D10004CC08BE390E025EC35E04BC021323105EF
:104D200021F12232310589F140C082E190E020E09A
:104D300036E03FC099278130910571F02CF4892B22
:104D4000A1F5E1ECF5E00DC08230910541F003974B
:104D500061F5E1EAF5E005C0E3EBF5E002C0E7EA62
:104D6000F5E0849190E09F0124C06115710541F048
:104D700061307105D1F489E090E020EF35E019C091
:104D800089E090E027ED35E014C06115710541F030
:104D90006130710551F480EC90E022E136E009C009
:104DA00080E490E022ED36E004C080E090E020E076
:104DB00030E0FA013183208308950895CF93C82FFE
:104DC0000E94DD26C0936802CF91089580918C02E5
:104DD000843011F081E0089582E0089580916802A6
:104DE000811102C00C94E626089580E189BD82E11C
:104DF00089BD09B400FEFDCF8091D8008F7D8093DE
:104E0000D8008091E00082608093E0008091E00013
:104E100081FDFCCF0895CF92DF92EF92FF920F9326
:104E20001F93CF93DF93EC018B016A010E946E28E0
:104E3000811133C0C114D10439F0F6018081918110
:104E4000081B190BC80FD91FE12CF12C01151105F6
:104E500019F18091E80085FD16C08091E8008E77F9
:104E60008093E800C114D10449F0F601808191815A
:104E7000E80EF91EF182E08285E00FC00E946E28E4
:104E8000882321F30AC089918093F1000150110910
:104E9000FFEFEF1AFF0ADACF80E0DF91CF911F9189
:104EA0000F91FF90EF90DF90CF90089520919302A3
:104EB000309194022617370748F06115710539F4CF
:104EC0002091E8002E772093E80001C0B90140E06E
:104ED00061157105A9F120918C02222309F443C0C8
:104EE000253009F442C02091E80023FD40C0209104
:104EF000E80022FD32C02091E80020FFE9CF409178
:104F0000F3002091F20030E0342BFC01CF01611559
:104F1000710559F02830310540F481918093F100FA
:104F2000615071092F5F3F4FF1CF41E028303105CB
:104F300009F040E02091E8002E772093E800C8CFE8
:104F40004111C9CF0AC080918C02882361F085305D
:104F500061F08091E80083FD0AC08091E80082FF43
:104F6000F2CF80E0089582E0089583E0089581E023
:104F7000089520919302309194022617370748F044
:104F80006115710539F42091E8002E772093E8002F
:104F900001C0B901FC0120E06115710591F180911A
:104FA0008C02882309F440C0853009F43FC0809109
:104FB000E80083FD3DC08091E80082FD2FC0809114
:104FC000E80080FFE9CF2091F3008091F20090E0AB
:104FD000922B6115710559F08830910540F42491A8
:104FE0002093F1003196615071090196F2CF21E0D2
:104FF000089709F020E08091E8008E778093E80020
:10500000CBCF2111CCCF0AC080918C02882361F0D4
:10501000853061F08091E80083FD0AC08091E8004E
:1050200082FFF2CF80E0089582E0089583E0089542
:1050300081E00895982F973058F59093E9009817DC
:1050400039F07091EC002091ED005091F00003C018
:10505000242F762F50E021FF19C03091EB003E7FC6
:105060003093EB003091ED003D7F3093ED003091B7
:10507000EB0031603093EB007093EC002093ED0077
:105080005093F0002091EE0027FF07C09F5FD3CF21
:105090008F708093E90081E0089580E00895809109
:1050A0008D0287FF11C08091E80082FD05C08091CC
:1050B0008C028111F8CF11C08091E8008B770BC072
:1050C00080918C02882349F08091E80080FFF8CF1E
:1050D0008091E8008E778093E80008952091E400A5
:1050E0003091E50095E64091EC00842F817040FFFF
:1050F00022C08091E80080FD1CC080918C02882332
:1051000091F0853091F08091EB0085FD10C04091C9
:10511000E4005091E5004217530729F39A0191509A
:1051200011F784E0089582E0089583E0089581E016
:10513000089580E008954091E80042FFDECF089591
:105140000E940E290E941629E0EEF0E08081816025
:105150008083E8EDF0E080818F77808319BCA7ED34
:10516000B0E08C918E7F8C9380818F7E80831092B3
:105170008B0208950F931F93CF93DF930E940E2904
:105180000E941629C8EDD0E088818F7788838881B6
:105190008068888388818F7D888319BC10928C02F7
:1051A0001092880210928A021092890200EE10E09A
:1051B000F80180818B7F808388818160888342E0D1
:1051C00060E080E00E941A28E1EEF0E080818E7FAE
:1051D0008083E2EEF0E0808181608083808188605E
:1051E0008083F80180818E7F8083888180618883BD
:1051F000DF91CF911F910F910895E8EDF0E080814C
:105200008F7E8083E7EDF0E080818160808384E0A1
:1052100082BF81E080938B020C94BA28E8EDF0E025
:1052200080818E7F80831092E20008951092DA00D0
:105230001092E10008951F920F920FB60F92112461
:105240002F933F934F935F936F937F938F939F938E
:10525000AF93BF93EF93FF938091E10082FF0BC068
:105260008091E20082FF07C08091E1008B7F8093F4
:10527000E1000E948B2B8091DA0080FF1FC080919B
:10528000D80080FF1BC08091DA008E7F8093DA0007
:105290008091D90080FF0DC080E189BD82E189BD88
:1052A00009B400FEFDCF81E080938C020E9461254D
:1052B00005C019BC10928C020E946F258091E100FC
:1052C00080FF19C08091E20080FF15C08091E2004C
:1052D0008E7F8093E2008091E20080618093E20003
:1052E0008091D80080628093D80019BC85E08093BB
:1052F0008C020E9473258091E10084FF30C0809170
:10530000E20084FF2CC080E189BD82E189BD09B43F
:1053100000FEFDCF8091D8008F7D8093D8008091D2
:10532000E1008F7E8093E1008091E2008F7E809388
:10533000E2008091E20081608093E2008091880227
:10534000882311F084E007C08091E30087FD02C04C
:1053500081E001C083E080938C020E9474258091DB
:10536000E10083FF29C08091E20083FF25C0809186
:10537000E100877F8093E10082E080938C021092AD
:1053800088028091E1008E7F8093E1008091E200AD
:105390008E7F8093E2008091E20080618093E20042
:1053A00042E060E080E00E941A288091F00088606E
:1053B0008093F0000E947225FF91EF91BF91AF9111
:1053C0009F918F917F916F915F914F913F912F911D
:1053D0000F900FBE0F901F9018951F920F920FB64F
:1053E0000F9211242F933F934F935F936F937F936B
:1053F0008F939F93AF93BF93CF93DF93EF93FF93DD
:10540000C091E900CF708091EC00D82FD17080FD61
:10541000D0E81092E9008091F000877F8093F0003F
:1054200078940E94312A1092E9008091F0008860FF
:105430008093F000CD2BCF70C093E900FF91EF91E6
:10544000DF91CF91BF91AF919F918F917F916F919C
:105450005F914F913F912F910F900FBE0F901F9032
:1054600018951F93CF93DF93CDB7DEB7AA970FB6EA
:10547000F894DEBF0FBECDBFEDE8F2E088E08E0FFE
:105480009091F10091938E13FBCF0E948025809123
:10549000E80083FF28C180918D0290918E02492FF0
:1054A00050E04A30510508F01EC1FA01E652FF4FA4
:1054B0000C94CF2B803821F0823809F014C108C039
:1054C0008091890290918A02992389F082600FC0AD
:1054D000809191028F70873008F005C18093E900B8
:1054E0008091EB0085FB882780F91092E90090916C
:1054F000E800977F9093E8008093F1001092F1000C
:10550000D0C0282F2D7F09F0EEC0882319F08230FB
:1055100061F0E9C080918F02813009F0E4C09330DE
:1055200009F080E080938A022EC080918F02811161
:105530002AC0809191028F702FEF280F263008F03B
:10554000D2C08093E9002091EB0020FF1CC0933073
:1055500021F48091EB00806214C09091EB00906187
:105560009093EB0021E030E0A90102C0440F551FE9
:105570008A95E2F74093EA001092EA008091EB00EE
:1055800088608093EB001092E9008091E800877FAB
:105590008093E8000E944F28A6C08111A4C01091FA
:1055A0008F021F778091E3008078812B8093E30046
:1055B0008091E800877F8093E8000E944F288091C7
:1055C000E80080FFFCCF8091E30080688093E300D7
:1055D000111102C082E001C083E080938C0283C07D
:1055E0008058823008F07FC080918F0290919002A5
:1055F0008C3D53E0950779F583E08A838AE28983BD
:105600004FB7F894DE01139620E03EE051E2E32F1D
:10561000F0E050935700E49120FF03C0E295EF7053
:105620003F5FEF708E2F90E0EA3010F0C79601C018
:10563000C0968D939D932F5F243149F74FBF809182
:10564000E800877F8093E8006AE270E0CE0101966F
:105650000E94562715C06091910270919202AE018E
:105660004F5F5F4F0E947A26BC01892BE1F1909138
:10567000E800977F9093E80089819A810E94B9277A
:105680008091E8008B778093E8002DC0803859F531
:105690008091E800877F8093E80080918802809362
:1056A000F1008091E8008E7773CF81111CC090913A
:1056B0008F029230C0F48091E800877F8093E800E9
:1056C000909388020E944F2880918802811106C021
:1056D0008091E30087FD02C081E001C084E08093F7
:1056E0008C020E9476258091E80083FF0AC0809199
:1056F000E800877F8093E8008091EB0080628093D0
:10570000EB00AA960FB6F894DEBF0FBECDBFDF91B7
:10571000CF911F9108950895CF9380918C02882393
:10572000A1F0C091E900CF709091EC00892F8170B9
:1057300090FD80E8C82B1092E9008091E80083FD7D
:105740000E94312ACF70C093E900CF910895AA1B1F
:10575000BB1B51E107C0AA1FBB1FA617B70710F05C
:10576000A61BB70B881F991F5A95A9F7809590958E
:10577000BC01CD01089597FB072E16F4009407D0C5
:1057800077FD09D00E94A72B07FC05D03EF4909529
:1057900081959F4F0895709561957F4F0895EE0F05
:1057A000FF1F0590F491E02D0994FC0141505040F9
:1057B00030F001900616D1F73197CF010895882770
:1057C00099270895F999FECF92BD81BDF89A99273E
:1057D00080B50895A6E1B0E044E050E00C941C2CA4
:1057E000A8E1B0E042E050E00C941C2C262FF9997F
:1057F000FECF92BD81BDF89A019700B4021639F030
:105800001FBA20BD0FB6F894FA9AF99A0FBE089500
:105810000396272F0E94F72B0E94F62B252F0E941C
:10582000F72B242F0C94F72B0196272F0E94F72B90
:105830000C94F62BDC01CB01FC01F999FECF06C0DC
:10584000F2BDE1BDF89A319600B40D92415050403E
:08585000B8F70895F894FFCFAA
:10585800010206060601191A1B1C1D1E1F20212203
:1058680015022808140A321E7B241A25EF24B924AD
:105878007E2401F0F1C66766369431373534979641
:1058880033309091929395000102020202060606B7
:105898000909090909090F0F0F0F0F0F1515151819
:1058A80019191919191919191919232401020304A5
:0658B800050607080900C7
:00000001FF
