:100000000C94D9020C9411030C9411030C94110359
:100010000C9411030C9411030C9411030C94110310
:100020000C9411030C9411030C94B0260C948427A7
:100030000C94CC210C9411030C9411030C94110317
:100040000C9411030C9411030C9411030C941103E0
:100050000C9411030C9453220C9411030C9411036F
:100060000C9411030C9411030C9411030C941103C0
:100070000C9411030C9411030C9411030C941103B0
:100080000C9411030C9411030C9411030C941103A0
:100090000C9411030C9411030C9411030C94110390
:1000A0000C9411030C9411030C94110335002900D6
:1000B0000000AA00000022522700280000000000D3
:1000C00000002D002E004C002A002B0014001A0006
:1000D0000800150017002400250027001C00180048
:1000E0000C00120013003100E100040016000700AC
:1000F00009000A002100220023000B000D000E0061
:100100000F0033003400E1001D001B000600190041
:10011000E5001E001F002000050011001000360041
:10012000370038002078B900000000002C00215270
:10013000E000E300E2002C000000B200AA002F0063
:100140003000010001000100010001000100010078
:100150000100010001000100010001000100010097
:100160000100010001000100010001000100010087
:100170000100010001000100010001000100010077
:100180000100010001000100010001000100010067
:100190005000510052004F00010001000100010019
:1001A0000100010001000100010001000100010047
:1001B0000100010001000100010001000100010037
:1001C0000100010001000100010001000100010027
:1001D0000100A9000100010001000100010001006F
:1001E000010001004300440001004500010001003E
:1001F00001000100007C010001000100010001007C
:100200000100400041004200010001000100010026
:1002100001000100010001000100010001000100D6
:100220003D003E003F004A004B004E004D000100E3
:1002300001000100010001000100010001003A007D
:100240003B003C0001000100010001000100010031
:100250000100010001000100010001000100010096
:1002600001000100010001000100010001001E0F5A
:100270000500047F3F1F643214643214783C1E1E54
:10028000140A052223252628292A2C2D2F30323323
:100290003536383A3B3D3E4042434547494A4C4E4D
:1002A0005051535557595A5C5E6062646668696B79
:1002B0006D6F71737577797B7D7F81838587898A7F
:1002C0008C8E90929496989A9C9E9FA1A3A5A7A885
:1002D000AAACAEAFB1B3B4B6B8B9BBBCBEBFC1C2B5
:1002E000C3C5C6C7C9CACBCCCDCED0D1D2D2D3D448
:1002F000D5D6D7D7D8D9D9DADADBDBDBDCDCDCDC66
:10030000DCDDDDDDDDDCDCDCDCDCDBDBDBDADAD933
:10031000D9D8D7D7D6D5D4D3D2D2D1D0CECDCCCBB5
:10032000CAC9C7C6C5C3C2C1BFBEBCBBB9B8B6B4D3
:10033000B3B1AFAEACAAA8A7A5A3A19F9E9C9A9863
:10034000969492908E8C8A89878583817F7D7B7934
:10035000777573716F6D6B6968666462605E5C5A15
:100360005957555351504E4C4A4947454342403ED8
:100370003D3B3A3836353332302F2D2C2A2928266A
:10038000252322FFAA7F554000010101010101013F
:10039000010102020202020202020203030303033A
:1003A0000303030404040404040405050505050609
:1003B00006060606070707070708080808090909C7
:1003C000090A0A0A0B0B0B0C0C0C0D0D0D0E0E0E70
:1003D0000F0F0F1010111111121213131414151501
:1003E00016161717181819191A1A1B1B1C1D1D1E73
:1003F0001E1F2020212222232424252626272829C7
:10040000292A2B2C2D2D2E2F3031323233343536F4
:100410003738393A3B3C3D3E3F40414243444546F4
:100420004748494A4C4D4E4F5051535455565859D0
:100430005A5B5D5E5F616264656668696B6C6D6F77
:100440007072737577787A7B7D7E808283858788EA
:100450008A8C8E8F91939596989A9C9EA0A2A3A524
:10046000A7A9ABADAFB1B3B5B7BABCBEC0C2C4C625
:10047000C9CBCDCFD1D4D6D8DBDDDFE2E4E7E9EBE1
:10048000EEF0F3F5F8FAFDFF0A03580044003700D8
:10049000350000000C0378006900750064006900F5
:1004A00000000403090409023B00020100A0FA094C
:1004B000040000010301010009211101000122448F
:1004C0000007058103080001090401000103000081
:1004D00000092111010001227B0007058203200091
:1004E0000112010002000000084478757501000146
:1004F00002000105010902A10185020901A100050F
:1005000009190129081500250195087501810205C1
:1005100001093009311581257F9502750881060989
:10052000381581257F950175088106050C0A38026A
:100530001581257F950175088106C0C005010980D8
:10054000A101850319012AB700150126B7009501FD
:1005500075108100C0050C0901A101850419012A4B
:10056000A002150126A002950175108100C00501A9
:100570000906A101050719E029E7150025019508DD
:10058000750181029501750881010507190029FF90
:10059000150026FF00950675088100050819012938
:1005A00005150025019505750191029501750391C9
:1005B00001C011241FBECFEFDAE0DEBFCDBF04B60D
:1005C00003FE18C08091120390911303A0911403AD
:1005D000B09115038730904BA740B04B59F410925F
:1005E0001203109213031092140310921503E0E00B
:1005F000F8E3099511E0A0E0B1E0EEEFF6E502C006
:1006000005900D92AE3DB107D9F723E0AEEDB1E014
:1006100001C01D92A231B207E1F70E94D9120C94D9
:10062000292B0C9400002A9A0895229A0E94130301
:1006300008958F9A0895879A0E94190308958C98B7
:100640000895849A0E941F0308950E9415030E9432
:100650001B030E9421030E94801108958330B8F487
:100660006530A8F44F3098F450E09FE0699F400D4A
:10067000511D1124FA019BE4899FE00DF11D112405
:10068000EE0FFF1FE455FF4F85919491089581E08F
:1006900090E008950E942E03089581E008950E943D
:1006A0004D03089581E008950E944D0308950E942E
:1006B0005403089508950E945A030895A6E0B0E0F7
:1006C000E4E6F3E00C94D52949835A839E83309164
:1006D000E50189819A8131111AC03E81332399F055
:1006E000222389F00E947309182F682F89819A812B
:1006F0000E944F0969817A81812F0E9441102696BC
:10070000E3E00C94F1290E946109182FF3CF0E94B5
:10071000730969817A81F1CFFC01262F40815181D3
:1007200062817381848195810E945E030895CF93D5
:10073000DF93EC0161E00E948C03BE010E944F0335
:10074000DF91CF910895CF93DF93EC0160E00E9499
:100750008C03BE010E945B03DF91CF91089581E07D
:1007600008950E94AF030895CF93C82F0E942408D4
:100770008C2F0E94B1032FEF84E39CE02150804036
:100780009040E1F700C00000CF91089581E00E9401
:10079000B4030E947722089580E00E94B4030E946F
:1007A0009B2208950F931F93CF93DF938C0161E0F9
:1007B0000E948C03EC01F801858181110E94291AA5
:1007C000B801CE010E945703811106C080E0DF917D
:1007D000CF911F910F910895B801CE010E94322050
:1007E0008823A1F3B801CE010E945C1C882371F319
:1007F000B801CE010E94321C882341F3B801CE011A
:100800000E94481A882311F3F8018581882361F03A
:10081000C330FCE7DF07E9F058F4C115ECE7DE0769
:10082000A9F0C130DC47B9F0C8010E945203CFCF14
:10083000CB358CE7D807A9F0CC35ECE7DE0771F0B3
:10084000CA35DC4789F70E948A0DEECF0E94C603A5
:10085000BDCF0E94920D0E94CC03B8CF0E94800DA4
:10086000E3CF0E948E0DE0CF0E94A8210E945B047E
:1008700008950E945F040E94AD210895089581E0CB
:1008800008950895CF93DF93D82F0E943F04C82F77
:10089000882319F08D2F0E9441048C2FDF91CF9176
:1008A00008950895CF93C82F0E943E048C2F0E9474
:1008B0004204CF91089580E00E94520408950E945E
:1008C0007B200E9452040895CF930E947B20C82F62
:1008D0008091E0018C1779F0C093E0010E943822EA
:1008E0006093E1017093E2018093E3019093E4014E
:1008F0008C2F0E945204CF910895ADE0B0E0E3E860
:10090000F4E00C94D629488759876A877B878C87BF
:100910009D8791110E94C00C1F8286E0FE013896CF
:10092000DE01119601900D928A95E1F78D8181117A
:100930000DC029813A814B815C816D817E818F81DF
:100940000E940A0C2D96E2E00C94F229CE01019649
:100950000E9497038111EDCFF5CFFC012481213056
:1009600021F4808191810E94A5090895662329F0D0
:100970000E94BD1D0E94A21E08950E94291EFACF4A
:10098000CF93C82F8823C9F08238C9F40E948820E9
:1009900081FD13C089E30E943E210E942F0D2FEF9D
:1009A00087EE93E0215080409040E1F700C00000C6
:1009B00089E30E9446210E942F0DCF91089583382C
:1009C000A1F40E94882080FDF8CF83E50E943E219B
:1009D0000E942F0D2FEF81EE94E021508040904037
:1009E000E1F700C0000083E5E4CF8438A1F40E9461
:1009F000882082FDE2CF87E40E943E210E942F0DD5
:100A00002FEF81EE94E0215080409040E1F700C04C
:100A1000000087E4CECF8CEF8C0F813A98F48C2FB6
:100A20000E94771B8111C9CF8C2F0E94032188233C
:100A300029F08C2F0E9446210E942F0D8C2F0E949E
:100A40003E21B9CF80E28C0F883048F4C77081E036
:100A500001C0880FCA95EAF70E94A30CACCFEBE562
:100A6000EC0FE33040F4F0E0EE59FE4F808190E06F
:100A70000E94A420A2CFE8E5EC0FEB3150F4F0E0A7
:100A8000EE0FFF1FE45DFE4F808191810E94C9201F
:100A900094CF83E38C0F833108F08FCF61E08C2FEC
:100AA0000E94B6048ACF882309F456C0823879F4AC
:100AB0000E94882081FF50C089E30E943E210E944D
:100AC0002F0D89E30E9446210E942F0D089583383F
:100AD00059F40E94882080FF3FC083E50E943E2198
:100AE0000E942F0D83E5EECF843859F40E948820B0
:100AF00082FF32C087E40E943E210E942F0D87E4CE
:100B0000E1CF9CEF980F913AE8F290E2980F98307D
:100B100050F4877091E001C0990F8A95EAF7892F08
:100B20000E94A90CD1CF9BE5980F933028F490E058
:100B300080E00E94A420089598E5980F9B3128F446
:100B400090E080E00E94C920089593E3980F9331CC
:100B500018F460E00E94B60408951F93CF93DF93CA
:100B6000182FEB010E94C004209739F4812F0E94B6
:100B70005305DF91CF911F9108958FE99FE0019771
:100B8000F1F700C000002197EFCF70E060E08933FB
:100B900011F460E570E00E94AD050895882321F00E
:100BA0000E94A30C0E942F0D0895882321F00E941B
:100BB000A90C0E942F0D0895B0E0A0E0E2EEF5E050
:100BC0000C94CF296C01D62FC72FFC01158106810B
:100BD00002950F700E94990CE82E8823F9F0E12EFF
:100BE0001123E1F08C2F807F803461F080E28D0F43
:100BF000883008F18C2F807E803221F4D230D8F0FA
:100C00000023C9F08091D20282FF15C082E00E94C9
:100C1000540D0E94990C91E0E82EE926BC2EB29466
:100C20009FE0B922FBE0FB15B8F1EB2DF0E0E55DAC
:100C3000F44D0C948F29E12CF1CF0C2F0F70C07F55
:100C400011F00295007F112399F0002359F080E202
:100C50008D0F883010F0D11107C0802F0E94A30C97
:100C60000E942F0D8D2F5AC0802F0E94B30CF8CFF9
:100C70008D2F0E945305002379F080E28D0F88307C
:100C800010F0D11104C0802F0E94A90C03C0802F46
:100C90000E94B90C0E942F0DEB2DE850FF0B3497EA
:100CA00020F40E947B200E945204EE2089F00E94D2
:100CB000950C80FD0DC0F60115820E948F0C0E94DC
:100CC000AD08C6010E94EB070E948F0C0E94BD0870
:100CD000CDB7DEB7E9E00C94EB292C2F2F70F22E64
:100CE000C07FC03219F0F29480EFF822DD2341F08A
:100CF000D130D1F1112309F444C00023F1F0B2CF77
:100D00008091D20282FD15C0112359F0FF2029F0F5
:100D10008F2D0E94A30C0E942F0D80E00E94C00422
:100D2000BBCF80E00E945305FF2009F4B5CF8F2D83
:100D3000ABCF112369F0011104C08F2D0E94CE05A5
:100D4000ABCF013009F0A8CF8F2D0E94D70CA4CFD4
:100D50000111A2CF8F2D0E94D5058F2D0E94E30C8B
:100D60008F2D0E94C70C98CF112321F0063008F078
:100D700093CFE3CF053008F08FCF8F2D0E94D5059C
:100D80008BCF0023D1F3D93349F43FEF87EE93E0C3
:100D9000315080409040E1F700C000008D2F0E944C
:100DA00053057ACF8C2F86958695837069F08130B4
:100DB00009F072CF8D2F9C2F9370111102C080E02B
:100DC00090E00E94C92068CF8D2F9C2F9370111145
:100DD00002C080E090E00E94A4205ECF612F8D2FA2
:100DE0000E94B60459CF8C2F8370A1F5111154CFF6
:100DF0004D2F429546954770440F440F2D2F2F706D
:100E000030E0042E02C0220F331F0A94E2F790E074
:100E100080E0D4FF09C08FE090E002C0880F991FE6
:100E20004A95E2F780959095C695C695C370822B3A
:100E3000932BC23049F058F4C13019F00E947D085C
:100E40002BCF0E94740828CF0E94860825CF0E94CD
:100E5000710822CF8695112311F08C2F8170882381
:100E600009F41ACF4D2F429546954770440F440F11
:100E70002D2F2F7030E0042E02C0220F331F0A9452
:100E8000E2F790E080E0D4FF09C08FE090E002C07C
:100E9000880F991F4A95E2F780959095C695C6955B
:100EA000C370822B932BC23049F058F4C13019F033
:100EB0000E94E808F1CE0E94DF08EECE0E94F10801
:100EC000EBCE0E949508E8CECF70112329F08C2F2D
:100ED0000E94AD088D2F32CF8D2F0E94D5058C2F0B
:100EE0000E94BD08D9CED23F41F160F4D03FB9F0A5
:100EF000D13F81F0112309F446C00111B3CE8C2FEC
:100F00008F711FC0D33F01F1D43FA1F78091D2026E
:100F100082FD24C08C2F8F71112311F312C0112375
:100F200041F0053008F0B8CE8C2F8F710E94CF08A9
:100F3000B3CE063008F0B0CEF7CF8C2F8F711111E1
:100F4000CFCF0E94AD08A8CE112329F08C2F8F712E
:100F50000E94A108A1CE0E949C089ECE112349F0B8
:100F6000CF718C2F0E94AD0863E08C2F0E94360D4C
:100F700093CE81E00E94540D023008F48DCE82E0C1
:100F80000E94540D89CE002359F0D93309F006CFC1
:100F9000EFEFF7EE23E0E150F0402040E1F7FCCE28
:100FA0008C2F8F719DCF0F931F93CF93DF93EC0105
:100FB000688179818D810E94B0098C010E94FA08B4
:100FC0000E947008B801CE010E94DC05DF91CF912C
:100FD0001F910F910895CF93DF93EC018C818823AB
:100FE00099F0CE010E94D203811111C00E94990C88
:100FF000882351F08D81882339F08091D20282FFBD
:1010000003C082E00E94540DDF91CF910895CE017C
:101010000E94D307CE010E94A303F6CF90E080E0A8
:101020000E94A42090E080E00E94C9200E94C00C91
:101030000E942F0D0E94BE1E0E94A21E08950E94B3
:101040004E210E940E0808950E94B00C0E941F08B5
:10105000089592959F70963091F058F4925F9F702A
:10106000923058F4803F19F030F4883E30F481E03B
:1010700008959A5FF4CF843FD1F380E00895883ECD
:10108000B0F3813FD1F7F3CFFC012481222339F063
:10109000808191810E94A5090E942908089580E01D
:1010A0000895A6E0B0E0E7E5F8E00C94D62926968E
:1010B000E2E00C94F229A7E0B0E0E1E6F8E00C945D
:1010C000D6292796E2E00C94F22908950E9465083B
:1010D00008950E946608909311028093100208956B
:1010E00008950E946908089520911002309111021C
:1010F000822B932B0E946908089520911002309151
:101100001102822393230E946908089520911002FE
:1011100030911102822793270E94690808950E9446
:10112000650808950E948F0808950E949208909380
:101130000F0280930E02089590E080E00E949508CF
:10114000089521E030E0A90102C0440F551F8A959F
:10115000E2F7CA010E949508089521E030E002C03C
:10116000220F331F8A95E2F780910E0290910F02B1
:10117000822B932B0E949508089521E030E002C055
:10118000220F331F8A95E2F72095309580910E0249
:1011900090910F02822393230E949508089521E0E5
:1011A00030E002C0220F331F8A95E2F780910E02D1
:1011B00090910F02822793270E949508089520910D
:1011C0000E0230910F02822B932B0E9495080895F6
:1011D00020910E0230910F02822393230E949508E2
:1011E000089520910E0230910F02822793270E94CA
:1011F000950808950895262F277091E001C0990F52
:101200002A95EAF723E0769567952A95E1F7660F28
:10121000771F660F771FFA01E60FF71F50E040E0D7
:10122000682F70E08191DF0111979B01042E02C0AD
:10123000369527950A94E2F72170219528272923CE
:1012400028272C934F5F5F4F4430510559F708957D
:10125000A82FA77023E0969587952A95E1F7880F28
:10126000991F880F991FFB01E80FF91F50E040E01C
:1012700080E0219130E00A2E02C0369527950A942D
:10128000E2F721703327042E01C0220F0A94EAF7F7
:10129000822B4F5F5F4F4430510559F70895262F39
:1012A000953070F48F3060F4682F70E08FE0989F75
:1012B000600D711D112446EE51E0822F0E94FB0843
:1012C0000895292F953068F48F3058F490E066EE39
:1012D00071E03FE0239F800D911D11240E94280999
:1012E000089580E00895B0E0A0E0E9E7F9E00C940B
:1012F000CF297C0100910E0210910F028091100203
:1013000090911102082B192BCFE0D0E0CC24C3948C
:10131000D12CBC2EC6010C2E02C0880F991F0A9436
:10132000E2F780239123892B49F4219790F7B12C80
:101330008B2DCDB7DEB7E9E00C94EB29B7018C2FEC
:101340000E944D10019789F3F3CFCF93DF93EC0107
:101350000E947309BE010E944D10DF91CF91089544
:101360001F93CF93DF93EB019091E501992339F01F
:10137000CB010E94A509DF91CF911F910895882389
:1013800069F0CB010E947309182F682FCE010E94CB
:101390004F09BE01812F0E944D10EDCFCB010E945D
:1013A0006109182FF6CF1F93CF93DF93C0911202DC
:1013B00017E0809113028C1304C0DF91CF911F912D
:1013C0000895D0E01C9FF0011D9FF00D1124EC5EEC
:1013D000FD4F2081318142815381648175818681F5
:1013E0000E945B082196C770E4CF20914C02309197
:1013F0004D0240914E0250914F0260915002709107
:101400005102809152020E945B080895CF93DF93AE
:1014100080915202807F09F04DC080915102882353
:1014200009F448C0E091120250911302C0914D029C
:10143000D0914C0260914E0270914F0247E05E17CE
:10144000C9F18E2F90E0E49FF0011124EC5EFD4F76
:101450002481222391F1489FF001499FF00D11242E
:10146000DF01AC5EBD4F11962C9111972C1325C056
:101470002C912D1322C015962C91159721111DC06A
:1014800012962D913C91261B370B283C3105A8F470
:10149000809152028F70806180935202E65EFD4F10
:1014A00080818F70806180838CE492E00E94EB07E2
:1014B0000E94D309DF91CF910895FC013196E77026
:1014C000BECF482F209112029091130257E02913AA
:1014D00002C080E0089530E0529FF001539FF00D6C
:1014E0001124EC5EFD4F8181681306C08081481392
:1014F00003C085818111EECF2F5F3F4F2770E7CF6B
:10150000A4E1B0E0E6E8FAE00C94CC298C0186E096
:10151000F801DE011F9601900D928A95E1F7F8011E
:101520008481E5809CE4A92E92E0B92E909150022E
:1015300091111FC08823D1F0EE20A9F0C8010E94AC
:101540004408F82E882379F087E0F801D50101904E
:101550000D928A95E1F7C5010E94AD040E94060A2A
:101560000E94F5095FC0C8010E94EB07FF24F394B5
:1015700059C0C080D18082809380F0905102209128
:101580004E0230914F02A401421B530BFF2009F47D
:10159000F9C0483C510508F0A7C0882309F442C0AF
:1015A00090914D0280915202282F207F09F05CC05B
:1015B0009D1116C090914C02C91212C0E1104EC08C
:1015C0008F708061809352020E94F5098CE492E052
:1015D0000E94EB0780915202F8018683F12C22C011
:1015E000E1103CC06D2D8C2D0E94610A6D2D8C2D5B
:1015F0000E94610AE82E8111F1CFCF86D88A8F85AB
:1016000098890E94A509292F22952F70243078F4FB
:101610009F702230A8F09923B9F0F8019681907F4D
:1016200099F4FE2C8F2D6496ECE00C94E8292A5F47
:101630002F70223068F0C8010E94EB07EF2CF1CF29
:10164000992311F0882369F3805E883050F3F3CF3B
:10165000803F38F3815F833070F7E3CF809152028F
:10166000816080935202BACF9D1113C090914C02B9
:10167000C9120FC0E1100DC08683C8010E94EB079C
:1016800087E0F801ACE4B2E001900D928A95E1F7B1
:1016900067CFC8010E944408882309F464CFEE2074
:1016A00009F461CF80915202803288F020914C027F
:1016B00030914D02398728879B868A869091500207
:1016C0009C871D868E87CE0108960E94EB0787E0D7
:1016D000F801ACE4B2E001900D928A95E1F70E9426
:1016E000060A0E94F50942CF90915202292F207FCD
:1016F000A1F4682D9A8A898AA6017A899E2D0E9472
:1017000051088CE492E00E94EB0787E0F50111920A
:101710008A95E9F70E94F50961CF882309F482CF01
:1017200080914D028D1110C080914C02C8120CC0E6
:10173000E1100AC09683C8010E94EB0787E0F5011B
:1017400011928A95E9F76ECFC8010E944408882358
:1017500009F409CFEE2009F406CF809152028032BD
:1017600008F4B5CF20914C0230914D023A83298381
:101770009C828B82909150029D831E828F83CE012A
:101780000196A3CF483C5105B8F5882309F4EECE65
:10179000FE2CEE2009F4E7CE80914D028D111EC083
:1017A00080914C02C8121AC08091520280FD0DC077
:1017B000982F907F51F08683903F09F45ECF982F49
:1017C000907F905F8F70892B57CF87E0F801ACE452
:1017D000B2E001900D928A95E1F724CFC8010E94F2
:1017E0004408811174CF809152028160809352022B
:1017F000C8010E94EB0716CF682D9A8A898AA60134
:101800007A899E2D0E94510887E0F50111928A95F0
:10181000E9F7A6CEAEE0B0E0E0E1FCE00C94D5291B
:10182000288739874A875B876C877D878E87CE01BB
:1018300008960E94800A8823B1F06C85662341F0E7
:10184000288539854A855B857D858E850E945B0864
:1018500017E0809112029091130289133DC02E96D9
:10186000E3E00C94F12987E0FE013896DE01119641
:1018700001900D928A95E1F78C85882349F3209198
:10188000130230E0C9010196877099274091120236
:101890004817190699F097E0929FD001939FB00DD9
:1018A0001124AC5EBD4FFE01319601900D929A95C8
:1018B000E1F7809313020E94D309CACF0E94240843
:1018C000109213021092120287E0ECE4F2E0DF01C2
:1018D0001D928A95E9F7BCCF819FC00111248C5ECF
:1018E0009D4F0E94800A882309F4B9CFE09112022B
:1018F0001E9FF0011124EC5EFD4F20813181428159
:1019000053816481758186810E945B0880911202F7
:1019100090E0019687709927809312029ACF809168
:101920005B02869586958695089580915B02877007
:10193000089590915B02977081E009F480E008952A
:1019400080916702089590916702892B80936702C6
:101950000895809590916702982390936702089567
:1019600010926702089590916602892B8093660217
:101970000895809590916602982390936602089549
:1019800010926602089508950E94C30C08959091E4
:101990005C02292F282331F08095892380935C02F3
:1019A0000E94C40C089508950E94D30C089590914C
:1019B0005D02292F2823281729F0982B90935D0288
:1019C0000E94D40C089590915D02292F282331F0B4
:1019D0008095892380935D020E94D40C08958091A4
:1019E0005D02882329F010925D0280E00E94D40CF1
:1019F00008950F931F93CF93DF93009104011091EB
:101A00000501C091670280916602C82B80915D023A
:101A1000882331F0C82B0E94EE2081110E94EF0C28
:101A2000F801C083C0910401D091050148E050E065
:101A300063E572E0CE010E949C2A892B59F088E070
:101A4000FE01A3E5B2E001900D928A95E1F7CE0187
:101A50000E948B20DF91CF911F910F9108950E94DA
:101A6000F90C089508950E94320D08959091D202C4
:101A700092FF11C098E0899F90011124622B60931E
:101A80005B020E94AD0880915B02869586958695E3
:101A90000E94330D08950E94AD08089510925B02D4
:101AA00080E00E94330D089590915B028095892318
:101AB00080935B02282F277069F4891759F0909161
:101AC000D20292FF07C08695869586950E94BD0832
:101AD0000E944E0D08959091D20292FB222720F988
:101AE000281769F080FB92F99093D2028091D1027D
:101AF0009091D2020E94B30D82E00E94540D08958D
:101B00008091D20282FB882780F991E089270E9488
:101B10006B0D089581E00E946B0D089580E00E9496
:101B20006B0D08956FEF7FEF90E080E00E94F42A44
:101B3000089590E080E00E94C02A21E0863E9E4FFA
:101B400009F020E0822F089582E090E00E94B22AFE
:101B5000089583E090E00E94B22A089584E090E026
:101B60000E94C02A0895BC0184E090E00E94F42AFB
:101B70000895AB01BC018FE090E00E94E82A08952F
:101B8000AB01BC0183E190E00E94E82A089560E087
:101B900070E0CB010E94C00D089560E070E0CB01C1
:101BA0000E94B90D0E94C70D0895A8E0B0E0EBEDCA
:101BB000FDE00C94D62966EE7EEF90E080E00E9476
:101BC000F42A60E082E090E00E94D62A81E090E072
:101BD000909311028093100261E083E090E00E94F4
:101BE000D62A60E074E184E090E00E94F42A60E08C
:101BF00086E090E00E94D62A6FEF87E090E00E9496
:101C0000D62A40E050E0BA0188E090E00E94E82A3D
:101C100060E084E290E00E94D62A60E087E190E0F4
:101C20000E94D62A60E08CE090E00E94D62A60E014
:101C30008DE090E00E94D62A19821A821B821C82B3
:101C40001D821E821F82188648E050E068E170E025
:101C5000CE0101960E94C62A40E050E0BA0180E21F
:101C600090E00E94E82A0E94CD0D2896E2E00C94B4
:101C7000F2290E94D50D0895682F8EE090E00E9411
:101C8000D62A0895A6E0B0E0E8E4FEE00C94D4295A
:101C90000E942C228C018091680290916902801729
:101CA000910781F019821A820E942C22682F4981A3
:101CB0005A81792F80E090E00E947D0410936902A0
:101CC000009368022696E4E00C94F0290E943822E2
:101CD000609378027093790280937A0290937B02EA
:101CE00060937402709375028093760290937702EA
:101CF0000895089508950E94790E089508950E9408
:101D00007E0E089583E491E10E94E6120E947A0E0D
:101D10000E947B0E089581E008950E948B0E089525
:101D20000E948B0E0895089508950E94930E0E94BC
:101D3000940E08950E9462110E94510408950E9419
:101D400023220E943E120E949A0E0E9446190E946F
:101D50007F0E0895A6E0B0E0E0EBFEE00C94CA2907
:101D60000E948D0E81110CC00E94420E0E942A1A00
:101D70000E94E01E0E9464042696EEE00C94E62980
:101D80000E9454122AE6822E22E0922E640110E074
:101D9000F601E190F1906F01812F0E9485111F5F84
:101DA000153009F44BC0E816F90691F380917C02D6
:101DB00081FD0E948E110E94900E782E10E0662404
:101DC0006394812F0E9485117C01F401A190B19050
:101DD0004F018A159B0561F100E0CC24C394D12CFE
:101DE000AE24BF24C5018C219D21892BC1F0772011
:101DF000B1F009831A830E942C229C838B836D820D
:101E000021E0C7018C219D21892B09F420E0498123
:101E10005A816B817C818D81922F0E947D040F5F9E
:101E2000CC0CDD1C0F30F1F6F4013297F182E08228
:101E30001F5F153031F60E94660E98CFE816F9063E
:101E400009F0B4CF91CF1F93CF93DF930E9452102C
:101E5000EC01C11580E5D807F0F5C11580E4D8077D
:101E600008F09CC0C03ED10520F5CD3CD10508F05E
:101E700082C0C83AD10578F4C53AD10508F073C0DC
:101E8000C130D10519F1209709F1C430D105F0F422
:101E9000D0E0C0E01BC0C33CD105D0F7C85AD0E0A9
:101EA000CC0FDD1FCB59DE4F0990D881C02DD464F3
:101EB0000DC0C11580E2D80708F0D1C0C11581E07E
:101EC000D80708F05AC0C83ED10510F7CE01DF91FF
:101ED000CF911F910895C03682E5D80718F5C03418
:101EE00082E5D80708F06BC0C03282E5D80708F059
:101EF0005FC0C11582E5D80708F497C02C2F26953E
:101F0000269580E2289F900111248C2F8370C1E0D8
:101F1000D0E002C0CC0FDD1F8A95E2F7C22BD32B95
:101F2000DD68D4CFC03A82E5D80760F4C03882E5D6
:101F3000D80708F459C0CF71D0E0DC2FCC27C46F8C
:101F4000D06AC4CFC03C82E5D80708F462C0C03E66
:101F500082E5D80708F09CCFDC2FCC27CC27DF7197
:101F6000C06FD06AB3CFC55AD0E0C556DE4FC88126
:101F7000D0E0D064ABCFD065A9CF8D2F0E94F410F4
:101F8000182FCE0199270E945210C12FD0E0DC2FCC
:101F9000CC27CC27DF71C82BD92B98CFCE0199271E
:101FA0000E945210CC27DF70C82BD92BD06A8ECF5D
:101FB000CF71D0E0DC2FCC27C16FD06A87CF2C2F18
:101FC00026952695277080E2289F900111248C2F5A
:101FD0008370C1E0D0E002C0CC0FDD1F8A95E2F72C
:101FE000C22BD32BDC6872CF2C2F26952695277019
:101FF00080E2289F900111248C2F8370C1E0D0E0F3
:1020000002C0CC0FDD1F8A95E2F7C22BD32BDA6812
:102010005DCF8C2F8F710E94F410C82FD0E0DC2F81
:10202000CC27CC27DF71D06251CF8C2F8F710E94CB
:10203000F41055E0D695C7955A95E1F7CF70D0E0EA
:10204000DC2FCC27282F30E084FF05C044E0220F8E
:10205000331F4A95E1F7C22BD32BD06937CF8D2F91
:102060008F710E94F410182FCE0199270E945210F0
:10207000C12FD0E0DC2FCC27CC27DF71C82BD92B88
:10208000D2CF462F753030F46F3020F4672F0E9486
:102090004A03089590E080E008950E9441100E9454
:1020A000230F089582389105B9F1B0F48133910579
:1020B00009F47DC048F48932910509F46DC08A3273
:1020C000910509F47BC008958533910509F45FC03B
:1020D0008933910509F10895833E9105D9F138F4CA
:1020E000803E910529F1823E910579F10895863E61
:1020F0009105D9F1873E910509F43EC0843E9105D2
:1021000041F52091D20221FF24C08091D10284FDAB
:1021100019C087EE90E008952091D102237009F054
:102120005AC02091D20223FF14C089E290E00895A2
:102130002091D10220FD38C03091D20230FF09C079
:1021400024FF43C090E080E008952091D10222FD59
:10215000F7CF08952091D10222FD3AC03091D202EA
:1021600030FD39C024FFF5CFEDCF2091D10223FF00
:10217000F0CF24FDE7CFCDCF2091D10223FD2EC09B
:102180003091D20231FFEECF84EE90E0089520919D
:10219000D10225FFDECFC9CF2091D10225FD21C07C
:1021A0002091D20223FFD5CF89E390E0D2CF2091B6
:1021B000D10226FFCECF8AE290E008952091D1028D
:1021C00026FFC7CF81E390E0089583EE90E0089565
:1021D00082EE90E0089580EE90E0089586EE90E023
:1021E000089585E390E008959091D10292FF10C088
:1021F00041E0282F2471243009F040E031E0282FFD
:102200002871283009F030E0431711F02CE08227C4
:1022100093FF10C041E0282F2471243109F040E0E1
:1022200031E0282F2871283109F030E0431711F0F0
:102230002CE082273091D20230FF10C051E0282FCD
:102240002171213009F050E041E0282F2871283019
:1022500009F040E0541711F029E0822731FF10C047
:1022600041E0282F2171213109F040E031E0282F91
:102270002871283109F030E0431711F029E0822756
:1022800094FD877E089580E008950E94920D089540
:102290000E9454122FEF86E791E021508040904039
:1022A000E1F700C000000E94541280E00E948511F6
:1022B00080FF04C00E9445110E94772208950E9469
:1022C000481108950E94990D811102C00E94390E93
:1022D0000E94A40D80937C020E94AE0D9093D202C6
:1022E0008093D1020E945F110E94A90D90E00E948C
:1022F000710880910E0290910F020E949208089539
:10230000089508950E9481110895E82FF0E0EE0FDE
:10231000FF1FE352FD4F808191810895089580EA67
:102320008A95F1F7089500C008950E948F110895CD
:10233000F894E82FE295EF70F0E031A1282F2F708C
:1023400081E090E001C0880F2A95EAF7982F9095D8
:10235000932391A392A1892B82A3789408950F933C
:102360001F93CF93DF93CDEAD1E089918F3F11F096
:102370000E94981181E0C23BD807B9F7CEE9D1E0BD
:102380000DEA11E089918F3F11F00E9498110C170E
:102390001D07C1F7DF91CF911F910F910895AF9263
:1023A000BF92DF92EF92FF920F931F93CF93DF9331
:1023B0008C01D62EC62FD0E0CE0183559E4F7C01D6
:1023C000FC0120812F3F09F44CC0F894E22FE295E4
:1023D000EF70F0E031A12F7081E090E001C0880F34
:1023E0002A95EAF7932F982B91A392A180958923A0
:1023F00082A378940E949311EEE9F1E041E050E06D
:10240000B12CA12C21912F3FB1F1A22FA295AF7039
:10241000B0E090968C9190E02F7002C095958795D2
:102420002A95E2F780FD27C0CA01A82AB92A440FDD
:10243000551F81E0ED3AF80729F7F70180818F3FBA
:1024400011F00E94981161E0A114B10409F460E058
:102450008D2D0E949511CC0FDD1FC00FD11FB982A9
:10246000A882DF91CF911F910F91FF90EF90DF90A5
:10247000BF90AF90089590E080E0D7CF0E94AF1159
:102480008AE0EDEDF2E0DF01982F1D929A95E9F7D1
:10249000E3EDF2E0DF011D928A95E9F785E00E9405
:1024A0008F120E9425030895AAE0B0E0EAE5F2E168
:1024B0000C94D3298E010F5F1F4F8AE0F80111920F
:1024C0008A95E9F7F12C6F2DC8010E94CF11F39482
:1024D000F5E0FF12F8CF4AE050E0B80183ED92E05A
:1024E0000E949C2A21E0009709F420E0892B41F00A
:1024F0008AE0F801A3EDB2E001900D928A95E1F730
:1025000045E06DED72E083ED92E00E949012182F8D
:102510000E948211812F2A96E5E00C94EF290895FC
:10252000B0E0A0E0E6E9F2E10C94D0296C017B0177
:10253000042FC22F222379F081E080937F020E9432
:102540002C2290937E0280937D0280E0CDB7DEB78F
:10255000E8E00C94EC29D0917F02DD23B1F3809167
:102560007D0290917E020E944422059770F310E054
:10257000000F111FA801B601C7010E949C2A892BD8
:1025800031F0A801B601C7010E94A92ACD2F1092EF
:102590007F028C2FDBCF0E9401240E949F0E0E949D
:1025A0000E2408950E9413240E94AA0E0E942D2436
:1025B00008950E94C5210E94E7230E94820E0E9476
:1025C000CB120E94D2120E94950EFBCF9093DF0196
:1025D0008093DE010895EF92FF920F931F93CF93A4
:1025E000DF93EB01E82FD1110EC0442321F0F0E07E
:1025F000E857FC4FE4916E2F7E2F8E2FCDB7DEB7BC
:10260000E6E00C94EE290D2F10E0282F30E0442353
:1026100029F028573C4FF901249130E0F6E0CF9F94
:10262000C0011124EFEFF0E0BF010E944529AB018A
:102630008C2F90E0880F991FA5E5A49FB001A59F5E
:10264000700D1124861B970B982F990F980FBF01BF
:10265000601B710B629FD001639FB00D729FB00D24
:1026600011248B2F9D9FB0011124672F7727EF0135
:10267000C61BD70BBE01629FE001639FD00D729F06
:10268000D00D11247F01E91AF108E09EB001E19E0E
:10269000700DF09E700D1124672F7727E61BF70B46
:1026A000E29F8001E39F100DF29F100D1124E12F96
:1026B000722F4230510599F048F44115510569F0E7
:1026C0004130510581F0EB2F8D2F07C0443051056B
:1026D00069F080F046305105B1F76E2F8FCFE22FB1
:1026E0007B2F812FFACFE22F7D2FF7CFEB2F822F79
:1026F000712FF3CF7B2F822FED2FEFCF41E00E9480
:10270000EB12089508950E947E130895CF93DF93EE
:10271000762FE901682F842F0E94831379836883C1
:102720008A83DF91CF9108958091E702982F9C7F53
:1027300029F4837084608093E70208958C3AE8F36B
:102740008370886AF8CFB0E0A0E0E9EAF3E10C9486
:10275000D02988E090E00E94BA2A6B017C0184E2D3
:1027600090E00E94B22A282F30E040E050E060E084
:1027700070E080E090E000E20E94FD29B22FA32FDC
:10278000F42FE52FD62FC72F97018601BC29A12B47
:10279000FE295E2F532B2B2F3A2F4F2F6D2F7C2F7F
:1027A000CDB7DEB7E8E00C94EC29B0E0A0E0EBEDAB
:1027B000F3E10C94CC2949015A016B017C010E9480
:1027C00094138401A4016A2D7B2D88E090E00E947F
:1027D000E82A94014A2D5B2DB601C70100E20E9450
:1027E000182A622F84E290E00E94D62ACDB7DEB785
:1027F000ECE00C94E829E7EEF2E085E080831182BA
:102800008FEF828383831482758125E030E04FEF60
:102810005FEF60E0868197810E94D51308958091D3
:10282000E70280FF03C086958695089580E00895AD
:102830009091EB02933018F49F5F9093EB02882302
:1028400091F02091E7023091E8024091E902509125
:10285000EA026091EB027091EC028091ED0290919E
:10286000EE020E94D513089581E00E941814089585
:102870009091EB02992319F091509093EB028823E9
:1028800091F02091E7023091E8024091E9025091E5
:10289000EA026091EB027091EC028091ED0290915E
:1028A000EE020E94D513089581E00E943814089525
:1028B00070E00E94BA1A089560910A018091E702BF
:1028C00080FF0BC08091090123E0829FC001112489
:1028D00081519D4F0E945814089580910B01909151
:1028E0000C0123E0829FF0011124E151FD4F891773
:1028F00048F71182108212828F5F3396F8CF909141
:10290000E70290FF0EC090910B0120910C0133E083
:10291000939FF0011124E151FD4F921718F00E948E
:102920005C1408958183608342839F5F3396F5CF63
:10293000A3E0B0E0EEE9F4E10C94D6299091E7022F
:1029400090FF0AC09E012F5F3F4F0E9486134B816C
:1029500069818A810E947F142396E2E00C94F22917
:10296000CF93DF93EC01EC81F0E0ED57FD4F449104
:10297000E7EEF2E0628181810E9498148C818F5F82
:102980008C83DF91CF910895CF93DF93EC01E7EE35
:10299000F2E0438162818C810E9498148C818F5F68
:1029A0008C83DF91CF910895A3E0B0E0EAEDF4E1EC
:1029B0000C94D4298C018091800281110AC09E015F
:1029C0002F5F3F4F4FEF6FEF0E9486138A818093F6
:1029D0008002F8016481613069F08091800240E0FA
:1029E000662361F040E0623011F44091800280E0A3
:1029F00060E004C06091800240E080E00E947F14AB
:102A0000F801848190E0019663E070E00E9459290A
:102A100084832396E4E00C94F029A3E0B0E0E3E1A2
:102A2000F5E10C94CF29082FD62EF42EC22E9091CA
:102A3000E70290FF2FC0E92FE695E695AE2FB0E0B4
:102A4000AE54BE4F8C918093A8029C7F943031F598
:102A50009E012F5F3F4F802F0E9486134B8169811B
:102A60008A810E947F140093E802D092E902F092DA
:102A7000EA02CC2079F02091E7026091EB0270919C
:102A8000EC02302F4D2D5F2D8091ED029091EE02E2
:102A90000E94D5132396E9E00C94EB29823019F4B7
:102AA000F090EA02E0CF863019F40091E802DBCF23
:102AB0008930D9F38931B9F6E9516E2F6170B62E9C
:102AC000E695F0E0ED57FC4F1491E12C60910D017B
:102AD000E61618F00E945C14C6CFE19EC0011124D6
:102AE00070E00E944529802FB11014C0860F2091FC
:102AF0000B01622F6E0D7727771F9B01220F331F6B
:102B0000260F371F21513D4F4F2D6D2D0E948613EB
:102B1000E394DCCF861BEBCFE7EEF2E09181282F28
:102B2000438162818CE0890F0E940D15089581E038
:102B30000E948C150895E7EEF2E09181282F4381E1
:102B4000628184EF890F0E940D15089581E00E9433
:102B50009B150895E7EEF2E0628129E1620F08F427
:102B60006FEF282F438181810E940D15089581E028
:102B70000E94AA150895E7EEF2E0628129E1621B46
:102B800008F460E0282F438181810E940D1508958B
:102B900081E00E94BB150895E7EEF2E043812CE04E
:102BA000420F08F44FEF282F628181810E940D159A
:102BB000089581E00E94CC150895E7EEF2E043818C
:102BC0002CE0421B08F440E0282F628181810E94A2
:102BD0000D15089581E00E94DD15089520E00E9402
:102BE0000D150895EF92FF921F93CF93DF93EC01A1
:102BF00010E0EE24EA94F12C60910D01161770F0AC
:102C00000E945C149A818C8190FF27C08F5F8C8317
:102C1000DF91CF911F91FF90EF90089520910B01CC
:102C2000422F410F5527551FCA019A01220F331F0A
:102C3000280F391F21513D4F70E0C7010E945929CB
:102C4000962F8C814091EA026091E902199F800DD4
:102C500011240E9486131F5FCFCF8150D8CFB0E0E0
:102C6000A0E0E5E3F6E10C94CE29FC0182810FEFB0
:102C700080FF01E010E046E0A42E80910D011817BE
:102C800098F00E945C1480918202013009F04FC0DC
:102C9000811102C080910D01815080938202CDB7D5
:102CA000DEB7EAE00C94EA29C0910B01C12ED12CC9
:102CB000CC0DDD2DD11DCE01880F991FC80FD91F56
:102CC000C151DD4F198218821A8234E0E32EF12CB3
:102CD000B12C809182028B0D87301CF16A2D0E94ED
:102CE0003729892F082E000C990BC816D90691F4A4
:102CF0008091EA028E9DA0018F9D500D1124559563
:102D00004795559547959E016091E9028091E802AB
:102D10000E948613B00EF1E0EF1AF108D1F61F5FA2
:102D2000ACCF87FFDFCF90910D01890FDBCF90E013
:102D3000019660910D0170E00E945929AECF0F936A
:102D40001F93CF93DF9380910B0190910C0123E0AF
:102D5000829FF0011124E151FD4F891740F1C0E03D
:102D6000D3E060910D01C61740F10E945C142091E0
:102D7000070180918102820F809381029091080166
:102D8000920F90930801191654F4082E000C990B19
:102D900040910D014150550B841795071CF021956A
:102DA00020930701DF91CF911F910F910895118218
:102DB000108212828F5F3396D0CF0C2F10E070E01C
:102DC000C8010E94592920910B01820F482F50E021
:102DD00020918102022E000C330B02171307BCF066
:102DE00020910801022E000C330B201731077CF0D4
:102DF0008D9F9001112421513D4F4091EA02609135
:102E0000E9028091E8020E948613CF5FAACFFA01FF
:102E1000EE0FFF1FE40FF51FE151FD4F11821082ED
:102E20001282F3CFB0E0A0E0E8E1F7E10C94CC2906
:102E3000EC014C81042F10E09801D8010E949D29DB
:102E40009B01AC010E94B3294B015C01E0E2F0E080
:102E5000E01BF10BA5E5B0E0AC019B010E94B3299A
:102E60006B017C019F01DF010E9495299B01AC0150
:102E70000E94BE299B01AC01280D391D4A1D5B1D16
:102E8000C701B6010E946D29F22E822F90E039E22F
:102E90003F1520F143E0249F90011124359527959B
:102EA000122F109500E085E5E82EEF1880910D01B6
:102EB000081718F10E945C149C8181E0992319F095
:102EC000903219F48FEF8093060180910601890FEB
:102ED0008C83CDB7DEB7ECE00C94E82925E530E033
:102EE000B901681B790B9B01220F331F260F371F77
:102EF00037FFD4CF2F5F3F4FD1CF8E2D01FD8F2DC8
:102F000020910B01622F600F7727771F9B01220F03
:102F1000331F260F371F21513D4F412F6091E9028A
:102F20000E9486130F5FC2CF0F931F93CF93DF933F
:102F3000EC0110E000E090910D019017110609F0EE
:102F40006CF40E945C148C8190E00196817099274A
:102F50008C83DF91CF911F910F91089520910B01E8
:102F6000A801420F511D9A01220F331F240F351F54
:102F700021513D4F4C816091E9028091E802969584
:102F80009017110651F04CF0442349F04091EA02A9
:102F90000E9486130F5F1F4FCECF4423B9F340E04A
:102FA000F7CFB0E0A0E0E7EDF7E10C94C829FC0111
:102FB0006280448081E08483E3E8F2E07490E2E0A0
:102FC000F3E0E491C091EA02C695C158D0E0CC0F7D
:102FD000DD1FCD2FDD27812C75E0972EAA24AA9422
:102FE000B12C55245A94E719EE2EF12C80910D0145
:102FF000881638F00E945C14CDB7DEB7E0E10C947F
:10300000E429C82CD12C82E0861568F09C9CF00144
:103010009D9CF00D1124ED57FD4F8091E8028083B7
:103020008091E9028183411023C09C9CF0019D9C0A
:10303000F00D1124ED57FD4F1382128220910B01E8
:10304000C601820F911D9C01220F331F280F391FCB
:1030500021513D4F9C9CF0019D9CF00D1124ED579A
:10306000FD4F4281618180810E9486138394BECF8F
:103070009C9C80019D9C100D11240D571D4FF80143
:1030800083818823F1F081508383859DC0011124C1
:10309000648170E00E944529FB01FF27ED57FD4F39
:1030A0008491E82FE719E59DC0011124B7010E9422
:1030B00045298091EA02689FB0011124F8017283CA
:1030C000BDCF0E947F2AB5010E9459298C179D0708
:1030D0000CF0B4CFF2E0F61598F40E947F2AB50107
:1030E0000E945929F80180830E947F2A2091E902D9
:1030F0002695622F70E00E945929280FF80121833C
:103100009C9CF0019D9CF00D1124ED57FD4F128207
:103110008091EA02893C58F088EC9C9CF0019D9CCF
:10312000F00D1124ED57FD4F8483838387CF8431C5
:10313000A0F784E1F2CFE7EEF2E020812E7F20833A
:1031400031814281538164817581868197810E949A
:10315000D5131092A9020E945C1408956091E702B1
:103160006695669570E04BE050E08EE091E00E943D
:103170008F2A892B19F481E08093A9020E942C22C6
:103180009093A2028093A10208959091E70290FF8C
:1031900034C09370811132C094609093E70266232B
:1031A00091F02091E7023091E8024091E9025091BC
:1031B000EA026091EB027091EC028091ED02909135
:1031C000EE020E94D5136091E7026695669570E065
:1031D0004BE050E08EE091E00E948F2A892BB1F005
:1031E0001092A90281E08093A4024091EA026091CA
:1031F000E9028091E8020E94EE1508958B3210F0EA
:10320000986ACBCF880F880F982BC7CF0E94AE1833
:10321000E9CF682F9091E7029695969581E0890F06
:103220008B3208F081E00E94C518089581E00E9469
:1032300009190895682F9091E702969596958FEF5A
:10324000890F09F48AE20E94C518089581E00E945E
:103250001A19089561E00E94C5180895E7EEF2E09A
:10326000808181608083869586950E942A190895C1
:103270008091E70280FF03C00E949B1808950E947E
:103280002E19089560E00E94C51808958091A70244
:1032900081113FC00E94990D811104C00E94390E16
:1032A0000E94FB130E94A3132093E7023093E802CD
:1032B0004093E9025093EA026093EB027093EC02B0
:1032C0008093ED029093EE022C7FA1F40E94FB13F9
:1032D0000E94A3132093E7023093E8024093E9028F
:1032E0005093EA026093EB027093EC028093ED023C
:1032F0009093EE020E9494131092A9028091E7022B
:1033000080FF04C0869586950E94421981E08093D3
:10331000A70208950F931F93CF93DF938091A90283
:103320008823C1F18091A802E091E702E695E69535
:10333000E81BE093A302823091F5F0E0E158FD4FE5
:10334000E491CE2FD0E000EB14E18091A402882319
:1033500061F01092A4020E942C229093A20280930A
:10336000A1021092A6021092A5020E942C22E091C6
:10337000A102F091A2028E1B9F0B8F3F9F4750F43A
:10338000EC0FFD1FF093A202E093A10281EA92E00C
:10339000F8010995DF91CF911F910F910895863023
:1033A00049F4F0E0E458FD4FE491CE2FD0E004EC76
:1033B00014E1CBCF893051F4E695F0E0E758FD4FAA
:1033C000E491CE2FD0E002EF15E1BFCF8F3051F462
:1033D000E695F0E0EA58FD4FE491CE2FD0E00FE201
:1033E00016E1B3CF853149F4F0E0ED58FD4FE4919B
:1033F000CE2FD0E00FE916E1A8CFC8E2D0E002E17D
:1034000017E1883109F4A1CF833239F4E1E7F2E022
:10341000C591D49104ED14E198CFC4EFD1E004E953
:1034200017E1843209F491CFC0EDD7E002E813E14F
:10343000853209F08ACF8E2F63E00E942B29E92F75
:10344000F0E0E259FD4FE491CE2FD0E001ED17E11D
:103450007CCF08950E948A190895FA01811101C054
:10346000FB0109950895CF93DF93C82FD62F0E94B3
:103470000F148C1748F00E940F148D1728F40E9427
:103480001619DF91CF9108958C2F0E942A19F9CF38
:103490001F93CF93DF93EC01FB011581111110C035
:1034A0000E94A00C8272FE01E052F847E531F1055E
:1034B00008F05EC0E95CF44D0C948F290E94381925
:1034C000812FDF91CF911F91089546E259E166E186
:1034D00079E10E942D1AF4CF46E159E166E279E1E3
:1034E000F8CF46EA55E167E975E1F3CF47E955E1E1
:1034F00066EA75E1EECF48EC55E167EB75E1E9CF9F
:1035000047EB55E168EC75E1E4CF4AEE55E169ED32
:1035100075E1DFCF49ED55E16AEE75E1DACF44E5BB
:1035200054E164E374E1D5CF44E354E164E574E12C
:10353000D0CF81E00E942A19C3CF65E082E00E94CB
:10354000331ABECF68E086E0FACF6EE089E0F7CFAD
:1035500064E18FE0F4CF67E185E1F1CF88E1EACF64
:1035600062E289E1ECCF83E2E5CF6AE285E2E7CF70
:1035700011E0A6CF869A41B34F7B51B35064EFB7A9
:10358000F8949B01220F331F260F371F280F391F76
:103590002817390741F4EFBF8FE594E00197F1F761
:1035A00000C000000895DC016D91CD0178E051BBB1
:1035B000000000C067FF41BB660F000000C000C0F4
:1035C00000C041BB00C07A9591F7E2CF8B3109F47E
:1035D00065C040F58B3071F078F4863009F447C04F
:1035E00020F4853059F180E00895873009F448C00F
:1035F0008830C9F781E00895803109F45DC068F42E
:103600008E3089F790917C02892F8B7F92FF8460A6
:1036100080937C0282FD4CC0EDCF863159F3893115
:1036200049F3E1CF8A3201F160F48732B1F020F43E
:103630008E31C8F28D514CC08932A9F60E94C60362
:10364000D9CF833440F48A3308F041C0853329F060
:10365000883381F2C8CF833431F681E090E00E9454
:1036600071080E942408C6CF0E94390EC3CF8091F2
:103670007C02807F80937C0281E08093AD0208957C
:1036800090917C02892F8E7F90FF816080937C02D5
:1036900080FDB0CF817F80937C02ACCF90917C0283
:1036A000892F8D7F91FF826080937C0281FFA2CF62
:1036B00080917C028160EFCF90917C02892F877F7F
:1036C00093FF886080937C0283FDF2CF93CF895370
:1036D00021E030E0A90102C0440F551F8A95E2F7AE
:1036E000CA01BDCF80E008950E94721B0895CF9358
:1036F000C82F8091AD028130B9F0882331F082303B
:10370000A1F11092AD0280E00DC00E94A00C8232A7
:10371000D1F78C2F0E94721B81111BC08C2F0E942D
:10372000E61A8170CF9108950E94A00C823289F32D
:103730008C2F0E94741B81110AC0C43199F060F46F
:10374000CB3029F0C03169F782E08093AD0281E08F
:10375000E8CF81E090E0E5CFC93221F0C833B9F37A
:1037600080E0DFCF1092AD02FBCFC93209F440C038
:10377000F0F4C431E9F1A8F481E0C73099F6809300
:10378000200184E180931F018AE080931E018EE175
:1037900080931D0188E080931A0188E280931901CB
:1037A00004C082EE8C0F8A3070F181E0BBCFC0354F
:1037B00009F450C0B8F48AE0CF34B9F7E091AA0216
:1037C000F091AB02309789F32081082E000C990B01
:1037D000820F911D8F3F910509F00CF43FC08FEFD0
:1037E0008083E3CFC135C1F181E0C23539F39ACF8F
:1037F0008091AC028823C9F21092AC021092AB0205
:103800001092AA02D2CFCD51C093AC02C330C9F0FE
:1038100048F4C13099F08FE191E0C23051F010923C
:10382000AC02C3CFC53099F078F089E191E0C630A1
:10383000B1F79093AB028093AA02B7CF80E291E0F8
:10384000F8CF8EE191E0F5CF8DE191E0F2CF8AE102
:1038500091E0EFCF86EFB2CF8FEFB0CF97FFC0CF21
:103860001082A3CFCF93DF93EB0186319C4711F5F4
:103870000E94A00C9D81992399F08A7A91E009F425
:1038800090E09093AE02811109C089E20E943E212E
:103890000E942F0D80E0DF91CF91089585E3F6CF50
:1038A0008091AE02811104C089E20E944621F0CFCE
:1038B00085E3FBCF81E0EFCFCF93DF93EC01FB01FA
:1038C0008581882309F4D2C09E0130572332310507
:1038D00008F0B2C00E94AE0D9093D2028093D10244
:1038E000FE01E150F047E232F10520F4E45BF44DD3
:1038F0000C948F298091D10281608093D10293C072
:103900008091D20288608093D2028DC08091D102D2
:103910008260F3CF8091D1028460EFCF8091D10299
:103920008860EBCF8091D2028160EDCF8091D2028E
:103930008260E9CF8091D1028061DFCF8091D10296
:103940008062DBCF8091D1028064D7CF0E942408AF
:103950008091D1028068D1CF8091D1028C60CDCF8F
:103960008091D2028360CFCF8091D1028E7FC5CF6C
:103970008091D202877FC7CF8091D1028D7FBDCF4A
:103980008091D1028B7FB9CF8091D102877FB5CF53
:103990008091D2028E7FB7CF8091D2028D7FB3CF3C
:1039A0008091D1028F7EA9CF8091D1028F7DA5CF4A
:1039B0008091D1028F7BA1CF0E9424088091D102F7
:1039C0008F779BCF8091D102837F97CF8091D20256
:1039D0008C7F99CF8091D10282FB992790F921E0C9
:1039E000922790FB82F990FB83F987CF8091D202D6
:1039F000982F909591708E7F892B90FB81F983CFC2
:103A00009091D102892F8F7B96FF806476CF0E94A0
:103A100024089091D102892F97FB87F980586DCFA8
:103A200081E00E943C0E8091D1029091D2020E94CE
:103A3000B30D0E94240880E0DF91CF91089580E0CB
:103A4000F0CF9091D102892F8F7E94FF806155CF66
:103A50009091D102892F8E7F90FF81604ECF9091FF
:103A6000D202892F877F93FF88604DCF81E0E4CF1A
:103A7000282F35EB2303C001112497FF04C0805881
:103A80009109892F089580589F4FFBCF8091B502EF
:103A900080FF0DC060911E0170E0660F771F6038D7
:103AA000710570F56115710569F1862F089581FF23
:103AB00007C060911E0184E0689FB0011124EFCF20
:103AC00060911E0182FD0AC08091B4028823A9F092
:103AD00020911D0160911E01821710F088E0ECCF4B
:103AE000869FC001112433E0880F991F3A95E1F7B2
:103AF000622F70E00E945929D2CF68E070E0D5CFE4
:103B00008FE7089581E008958091B50280FF0CC091
:103B100060911A0170E075956795759567956115C7
:103B2000710549F1862F089581FF06C060911A0141
:103B300070E075956795F3CF60911A0182FD0BC017
:103B40009091B3029923A1F06091190180911A011B
:103B5000961738F0682F70E06038710500F38FE732
:103B60000895899FC001112470E00E945929F4CF63
:103B700061E070E0D7CF81E008959091B802209184
:103B8000B902922B2091BB02922B2091BA02922B68
:103B900031F098E09093B40291E09093B3028D3CA1
:103BA00031F40E94461D81958093B90208958E3CA0
:103BB00019F40E94461DF8CF8F3C31F40E94461D37
:103BC00081958093B8020895803D19F40E94461DA6
:103BD000F8CF893D29F40E94841D8093BA0208958C
:103BE0008A3D21F40E94841D8195F7CF8B3D31F4ED
:103BF0000E94841D81958093BB0208958C3D19F429
:103C00000E94841DF8CF9FE2980F983070F4815D78
:103C1000990B21E030E001C0220F8A95EAF78091EC
:103C2000B702822B8093B70208958D3D31F48091C5
:103C3000B50281608093B50208958E3D21F4809194
:103C4000B5028260F7CF8F3DB9F78091B5028460ED
:103C5000F1CF4091B8028D3C59F48091B90287FFB1
:103C60000DC01092B90241110BC01092B40208C0ED
:103C70008E3C81F48091B90218169CF3442381F0A4
:103C80008091BA029091BB02892B09F05AC0109220
:103C9000B30208958F3C49F447FFF0CF1092B80269
:103CA0008091B9028111ECCFE0CF803D19F4141658
:103CB000ACF3E4CF9091BA02893D29F41916F4F6D9
:103CC0001092BA02DBCF8A3D19F497FFD7CFF8CF15
:103CD0009091BB028B3D29F497FFD0CF1092BB028D
:103CE000CDCF8C3D19F41916CCF3C8CF9FE2980FB5
:103CF000983090F4815D990B21E030E0B90102C069
:103D0000660F771F8A95E2F7CB0180959091B702F5
:103D100089238093B702B2CF8D3D31F48091B502F3
:103D20008E7F8093B502AACF8E3D21F48091B5029B
:103D30008D7FF7CF8F3D09F0A1CF8091B5028B7FAA
:103D4000F0CF08950E942C229C019091B80280919E
:103D5000B902982B21F03093B2022093B1029091D6
:103D6000BA028091BB02982B21F03093B0022093CD
:103D7000AF0286EB92E00E949620089586E0E6EB83
:103D8000F2E0DF011D928A95E9F71092B4021092D9
:103D9000B3021092B5020895FC01828181110EC018
:103DA000838181110BC08481811108C091E08581DC
:103DB000811101C090E0892F8170089581E0FCCFCE
:103DC000A6E0B0E0E6EEFEE10C94D52986E0E6EB55
:103DD000F2E0DE01119601900D928A95E1F71092C2
:103DE000B8021092B9021092BA021092BB028B81F3
:103DF0009C81892B89F08091B1029091B2020E943E
:103E00004422AC019091B4029923C9F180911F0121
:103E10008417150608F440C08D819E81892B91F08E
:103E20008091AF029091B0020E944422AC01909127
:103E3000B302992309F46AC080911B018417150607
:103E400008F472C0BE016F5F7F4F86EB92E00E9464
:103E50005921811105C086EB92E00E94CC1E811190
:103E60000E94A21E86E0FE013196A6EBB2E0019010
:103E70000D928A95E1F72696E3E00C94F1292091C2
:103E800020018AE0289F900111242417350720F68D
:103E90009F5F9093B40202C09F3FD1F71B81112313
:103EA00059F00E94461D9FEF11160CF491E0899F76
:103EB000802D11248093B8021C81112359F00E9497
:103EC000461D9FEF11160CF491E0899F802D11245F
:103ED0008093B9028091B802882309F49DCF109194
:103EE000B902112309F498CF0E94381D882351F09C
:103EF0008093B802812F0E94381D882329F0809377
:103F0000B9028ACF81E0F4CF81E0F9CF20911C0182
:103F10008AE0289F900111242417350708F092CFDA
:103F20009F5F9093B30202C09F3FD1F71D81112381
:103F300059F00E94841D9FEF11160CF491E0899FA7
:103F4000802D11248093BA021E81112359F00E9402
:103F5000841D9FEF11160CF491E0899F802D112490
:103F60008093BB028091BA02882309F46BCF109131
:103F7000BB02112309F466CF0E94381D882351F03B
:103F80008093BA02812F0E94381D882329F08093E4
:103F9000BB0258CF81E0F4CF81E0F9CF0F931F939C
:103FA000CF93DF93C42FD22FFC0185818823C9F0E2
:103FB0004093BE020E942C229093BD028093BC02CB
:103FC00080E28C0F883040F4C77081E001C0880F18
:103FD000CA95EAF70E94CE05DF91CF911F910F910C
:103FE00008951091BE02141332C08091BC029091CA
:103FF000BD020E944422883C910548F5C0E2CD0FE5
:104000001D17B9F080E2810F883040F4177081E00D
:1040100001C0880F1A95EAF70E94D505C83048F408
:1040200081E09D2F977001C0880F9A95EAF70E9452
:10403000CE05802F0E94C505C83070F6D77081E08C
:1040400001C0880FDA95EAF70E94D505C5CF80E256
:104050008C0F883008F6C77081E001C0880FCA95C0
:10406000EAF7F2CF0F93DB0188519C478730910527
:10407000A0F5FC01E259F44D0C948F2906E221EEE3
:1040800041EE6AE17CE7CD010E94CE1F80E00F91F6
:10409000089507E225EE45EE6BE17CE7F4CF06E2FA
:1040A00021EE40EE68E17CE7EECF07E225EE44EE3C
:1040B00069E17CE7E8CF06E221EE42EE6CE17CE7C5
:1040C000E2CF07E225EE46EE6DE17CE7DCCF08E2C9
:1040D00021E045EE6EE17CE7D6CF15968C918823E2
:1040E00019F01092BE02D3CF81E0D1CF9093C402D9
:1040F0008093C3020895E091C302F091C402309707
:1041000029F00190F081E02D0995089580E008954F
:104110000E947B200895E091C302F091C402309781
:1041200021F00280F381E02D09950895E091C3020A
:10413000F091C402309739F022E0DC012C93068024
:10414000F781E02D09950895A3E0B0E0EAEAF0E2F6
:104150000C94D6292091C1023091C2022817390748
:10416000A1F09093C2028093C102E091C302F0914A
:10417000C402309751F023E029839B838A83008413
:10418000F185E02DCE01019609952396E2E00C948D
:10419000F229A3E0B0E0EFECF0E20C94D6292091F4
:1041A000BF023091C00228173907A1F09093C002D6
:1041B0008093BF02E091C302F091C402309751F0A6
:1041C00024E029839B838A830084F185E02DCE013E
:1041D000019609952396E2E00C94F229409104019E
:1041E000509105019A012E5F3F4F485F5F4F80E07D
:1041F0002417350709F40895F90191919F01992336
:10420000B9F38F5FF5CF882371F0209104013091CD
:104210000501F9013296285F3F4F9191981729F0D7
:10422000E217F307D1F780E0089581E008959C013B
:10423000FC0132969FEF80E04191461751F09F3F7D
:1042400019F4411101C0982F8F5F8630A9F79F3F65
:1042500009F40895290F311D97FD3A95F9016283FC
:104260000895FC01329608962191261303C0DF01C0
:1042700011971C92E817F907B9F70895682F8091F4
:104280000401909105010E9417210895682F8091E3
:104290000401909105010E9431210895E0910401EB
:1042A000F0910501329686E0DF011D928A95E9F7CB
:1042B0000895DC01FB0111969C911197818198135F
:1042C00022C012968C911297882319F0928189133B
:1042D0001AC013968C911397882319F09381891330
:1042E00012C015968C911597882319F09581891322
:1042F0000AC014969C91992321F081E0248129130E
:1043000003C080E001C081E08170089508950E949B
:1043100086210895811106C081E08093C5020E9424
:104320008721089582E0F9CF83E08093C5020E943F
:10433000872108950E948A21089581E08093C50213
:104340000E94872108950E949D210895089508954F
:104350000E94A7210895089508950E94A621089516
:10436000CF930E94AB210E9454120E94AC21C0E066
:104370008C2F0E948511892B31F4CF5FC530C1F796
:1043800080E0CF91089581E0FCCF85B7806885BF3C
:1043900085B7806885BF08951F921FB61F921124AC
:1043A0008F939F93AF93BF938091C602811113C0E7
:1043B0008091010390910203A0910303B091040343
:1043C0004196A11DB11D8093010390930203A09318
:1043D0000303B0930403BF91AF919F918F911F90FE
:1043E0001FBE1F90189580910903843031F10E94FF
:1043F00034041092C60288E190E020E40FB6F894ED
:10440000A895809360000FBE2093600083B7817FE2
:10441000846083BF83B7816083BF7894889583B7B6
:104420008E7F83BF0FB6F894A89580916000886155
:1044300080936000109260000FBE08950E942408CF
:104440000E943904089582E084BD93E095BD9AEFFF
:1044500097BD80936E0008952FB7F8948091010363
:1044600090910203A0910303B09104032FBF08951C
:104470002FB7F894609101037091020380910303B8
:10448000909104032FBF08959C014FB7F894809139
:10449000010390910203A0910303B09104034FBF65
:1044A000821B930B089578941F921FB61F921124BC
:1044B0008F939F93AF93BF938091010390910203D9
:1044C000A0910303B09104030196A11DB11D809337
:1044D000010390930203A0930303B0930403BF91DD
:1044E000AF919F918F911F901FBE1F90189581E0F3
:1044F0008093E00080E28093D8001092C9008FE1A1
:104500009EE40197F1F700C0000087E090EBDC012A
:104510008093120390931303A0931403B093150395
:1045200088E19CE00FB6F894A895809360000FBED8
:1045300090936000FFCF88E19CE00FB6F894A895B7
:10454000809360000FBE90936000FFCF8091CF02F8
:10455000089508959B01BA01909109039430E9F4FC
:104560008F708093E9009FEF8091E800915085FD66
:1045700006C085ED8A95F1F700009111F5CF809185
:10458000E80085FF0AC050E040E0C9010E94A42471
:104590008091E8008E778093E800089543E050E032
:1045A000BC0182E00E94AA22089546E050E0BC01CE
:1045B00082E00E94AA220895CF93DF93EC0148E0A5
:1045C00050E0BC0181E00E94AA2288E0FE01A7EC35
:1045D000B2E001900D928A95E1F7DF91CF910895B5
:1045E00080910803811109C00E9434260E949126FF
:1045F0008091E20084608093E200089510920803A5
:1046000008950E949D2108956091050381E0611144
:1046100001C080E00E94942108959091090381E0F7
:10462000943009F080E0609105030E949A2108957A
:1046300042E061EC81E00E94B02542E261EC82E060
:104640000E94B0259091090381E0943009F080E048
:10465000609105030E948A21089580910B038330A5
:1046600009F461C030F48130D1F1823009F49EC088
:1046700008958A3009F48AC08B3009F46FC08930FC
:1046800009F050C080910A03813209F04BC080913B
:104690000E0390910F03029708F044C08091E80048
:1046A000877F8093E8008091E80082FF37C0909177
:1046B000F3008091F200029731F48091F100813093
:1046C00011F0863021F48091F1008093CF02809127
:1046D000E8008B778093E8000E94E42523C0809156
:1046E0000A03813AF9F48091E800877F8093E8001B
:1046F00080910E0390910F03892B61F468E087ECA1
:1047000092E070E00E94F3248091E8008B77809320
:10471000E800089560E090E080E0F3CF8091090325
:104720008111C1CF089580910A03813AD9F7809110
:104730000E0390910F03892BA9F78091E800877FE2
:104740008093E8008091E80080FFFCCF80912B01EE
:104750008093F1008091E8008E77BCCF80910A03AE
:10476000813201F780910E0390910F03892BD1F6CE
:104770008091E800877F8093E8000E94E425809183
:104780000C0380932B010E942408089580910A0352
:10479000813241F68091E800877F8093E8000E9493
:1047A000E42580910D038093D002089580910A033F
:1047B000813A09F0B7CF8091E800877F8093E800C5
:1047C0008091E80080FFFCCF8091D002C1CF84B7F8
:1047D000877F84BF0FB6F894A895809160008861A8
:1047E00080936000109260000FBE80E890E00FB6EA
:1047F000F89480936100909361000FBE0E94A32102
:1048000008950E9434260E949126E2EEF0E0808115
:104810008460808378940E941029089581E291E059
:104820000E947620089580910903853031F48091AB
:104830000903853019F00E941E2208950E94F32179
:1048400080910703882399F30E94B021882379F38C
:104850000E948E240E942408EACF08959A01409174
:104860001003509111030E9436240895492F5527B3
:104870004330510519F168F44130510509F444C041
:104880004230510509F445C090E080E050E040E03E
:1048900025C04132510549F142325105A9F784E45E
:1048A00090E04EE655E061157105C1F08BE790E0B0
:1048B00043EF54E06130710589F0E6CF99278130EC
:1048C000910581F0009729F00297F1F6E8E8F4E00D
:1048D00002C0E2EAF4E0849190E0AF01F901518373
:1048E00040830895E4E9F4E0F6CF89E090E048EBF6
:1048F00054E06115710591F389E090E041ED54E0D9
:104900006130710559F3C0CF82E190E041EE54E08F
:10491000E5CF8BE390E046EA54E0E0CF80E189BD4B
:1049200082E189BD09B400FEFDCF8091D8008F7D62
:104930008093D8008091E00082608093E0008091B5
:10494000E00081FDFCCF0895AF92BF92CF92DF923D
:10495000FF920F931F93CF93DF936C01EB018A01BA
:104960000E940326F82E811123C00115110539F08C
:10497000F80180819181C81BD90BC80ED91EB12CBA
:10498000A12C2097A9F08091E80085FD22C080919C
:10499000E8008E778093E80001151105A1F0F80179
:1049A00080819181A80EB91EB182A08285E0F82E87
:1049B0008F2DDF91CF911F910F91FF90DF90CF90BE
:1049C000BF90AF9008950E9403268823D1F2F82E5D
:1049D000EFCFF60181916F018093F1002197FFEFF6
:1049E000AF1ABF0ACECFFC01809110039091110342
:1049F00086179707A0F06115710529F49091E800DA
:104A00009E779093E80090E06115710551F4911143
:104A100008C08091E80082FF34C080E00895BC01A6
:104A2000F2CF809109038823C1F18530C1F18091D3
:104A3000E80083FD30C08091E80082FDEACF8091DC
:104A4000E80080FFE1CF8091F3002091F200382F41
:104A50006115710519F02830310558F091E02830C2
:104A6000310509F090E02091E8002E772093E800CE
:104A7000CBCF81918093F100615071092F5F3F4F3F
:104A8000E7CF80910903882341F0853041F0809180
:104A9000E80083FFBECF81E0089582E0089583E0BF
:104AA0000895FC01809110039091110386179707D8
:104AB000A0F06115710529F48091E8008E7780934C
:104AC000E80090E06115710551F4911108C08091E2
:104AD000E80082FF35C080E00895BC01F2CF8091EC
:104AE00009038823C9F18530C9F18091E80083FD6D
:104AF00031C08091E80082FDEACF8091E80080FF1C
:104B0000E1CF8091F3002091F200382F61157105FB
:104B100019F02830310558F091E02830310509F0BE
:104B200090E08091E8008E778093E800CBCF84916D
:104B30008093F1003196615071092F5F3F4FE6CFAE
:104B400080910903882341F0853041F08091E8008D
:104B500083FFBDCF81E0089582E0089583E008954A
:104B6000982F973028F08F708093E90081E00895A6
:104B70009093E900242F762F50E0981731F0709130
:104B8000EC002091ED005091F00021FD02C09F5FEC
:104B9000E8CF3091EB003E7F3093EB003091ED0099
:104BA0003D7F3093ED003091EB0031603093EB00AE
:104BB0007093EC002093ED005093F0002091EE00F4
:104BC00027FDE5CF80E0089580910A0387FF13C099
:104BD0008091E80082FF06C08091E8008B77809387
:104BE000E80004C0809109038111F2CF08958091FB
:104BF00009038823D9F38091E80080FFF8CF8091E2
:104C0000E8008E77ECCF2091E4003091E50095E646
:104C1000A9012091EC00822F817020FF06C08091B5
:104C2000E80080FF06C080E008952091E80022FDA2
:104C30001AC080910903882389F0853089F080911A
:104C4000EB0085FD0FC02091E4003091E500421794
:104C50005307F9F29150E1F684E0089582E0089557
:104C600083E0089581E008950E94A3260E94AB2668
:104C7000E0EEF0E0808181608083E8EDF0E080810B
:104C80008F77808319BCA7EDB0E08C918E7F8C93D9
:104C900080818F7E80831092080308950F931F9365
:104CA000CF93DF930E94A3260E94AB26C8EDD0E0ED
:104CB00088818F77888388818068888388818F7DC9
:104CC000888319BC10920903109205031092070300
:104CD0001092060300EE10E0F80180818B7F808344
:104CE00088818160888342E060E080E00E94B02596
:104CF000E1EEF0E080818E7F8083E2EEF0E0808163
:104D000081608083808188608083F80180818E7FCC
:104D10008083888180618883DF91CF911F910F917B
:104D20000895E8EDF0E080818F7E8083E7EDF0E08C
:104D300080818160808384E082BF81E0809308036A
:104D40000E944E260895E8EDF0E080818E7F8083FA
:104D50001092E20008951092DA001092E100089596
:104D60001F920F920FB60F9211242F933F934F93E0
:104D70005F936F937F938F939F93AF93BF93EF93C3
:104D8000FF938091E10082FF0BC08091E20082FFDF
:104D900007C08091E1008B7F8093E1000E940F2982
:104DA0008091DA0080FF19C08091D80080FF15C083
:104DB0008091DA008E7F8093DA008091D90080FFA5
:104DC00096C080E189BD82E189BD09B400FEFDCFB6
:104DD00081E0809309030E94F0228091E10080FF2E
:104DE00019C08091E20080FF15C08091E2008E7FA3
:104DF0008093E2008091E20080618093E2008091E4
:104E0000D80080628093D80019BC85E080930903A4
:104E10000E9404238091E10084FF2BC08091E20076
:104E200084FF27C080E189BD82E189BD89B5982FC3
:104E3000917080FFFBCF8091D8008F7D8093D80048
:104E40008091E1008F7E8093E1008091E2008F7E6F
:104E50008093E2008091E20081608093E200809183
:104E60000503882309F449C084E0809309030E9464
:104E70000D238091E10083FF29C08091E20083FF30
:104E800025C08091E100877F8093E10082E08093DC
:104E90000903109205038091E1008E7F8093E10069
:104EA0008091E2008E7F8093E2008091E200806139
:104EB0008093E20042E060E080E00E94B0258091B3
:104EC000F00088608093F0000E940123FF91EF9131
:104ED000BF91AF919F918F917F916F915F914F9112
:104EE0003F912F910F900FBE0F901F90189519BCF6
:104EF000109209030E94FE2270CF8091E30087FD8B
:104F000093E090930903B3CF1F920F920FB60F92C5
:104F100011242F933F934F935F936F937F938F93BE
:104F20009F93AF93BF93CF93DF93EF93FF93D09172
:104F3000E900DF708091EC00C82FC17080FDC0E8EF
:104F40001092E9008091F000877F8093F0007894C0
:104F50000E94C8271092E9008091F0008860809339
:104F6000F000CD2BCF70C093E900FF91EF91DF915E
:104F7000CF91BF91AF919F918F917F916F915F91F1
:104F80004F913F912F910F900FBE0F901F9018954A
:104F9000AAE2B0E0EEECF7E20C94D5298AE093E0C7
:104FA0002091F100FC012193CF01F3E082319F07B2
:104FB000B9F70E942D238091E80083FF1EC18091E4
:104FC0000A0390910B039A3008F017C1E92FF0E023
:104FD000EB58F44D0C948F29803899F0823809F001
:104FE0000CC180910E038F70873008F006C180934A
:104FF000E9008091EB0085FB882780F91092E90099
:1050000006C08091060390910703911182609091F0
:10501000E800977F9093E8008093F1001092F100F0
:105020008091E8008E77E5C0882309F4D3C08230F0
:1050300009F0E3C080910C038111D6C080910E036A
:105040008F702FEF280F263008F0D7C08093E9002B
:105050002091EB0020FFC8C0933031F48091EB0029
:1050600080628093EB00C0C09091EB0090619093C0
:10507000EB0021E030E001C0220F8A95EAF720938F
:10508000EA001092EA008091EB008860EACF81117B
:10509000B4C010910C031F778091E3008078812BBE
:1050A0008093E3008091E800877F8093E8000E946E
:1050B000E4258091E80080FFFCCF8091E3008068C8
:1050C0008093E30082E0111183E08093090395C08F
:1050D0008058823008F091C080910C0390910D03AC
:1050E0008C3D23E09207A1F583E08A838AE28983DD
:1050F0004FB7F894DE01139620E03EE051E2E32F33
:10510000F0E050935700E49120FF03C0E295EF7068
:105110003F5FEF708E2F90E0EA30C0F0C7968D931E
:105120009D932F5F243159F74FBF8091E800877F0F
:105130008093E8006AE270E0CE0101960E94F324B9
:105140008091E8008B778093E80057C0C096E7CF46
:1051500060910E0370910F03AE014F5F5F4F0E948D
:105160002E24BC01892B09F448C09091E800977F58
:105170009093E80089819A810E945125E1CF80387F
:10518000E1F58091E800877F8093E8008091050336
:105190008093F10045CF811130C090910C03923083
:1051A00060F58091E800877F8093E8009093050385
:1051B0000E94E42580910503882311F084E005C056
:1051C0008091E30087FDFACF81E0809309030E947C
:1051D000182313C080910C03813079F481E093305F
:1051E00009F080E0809307031092E9008091E800C5
:1051F000877F8093E8000E94E4258091E80083FF88
:105200000AC08091E800877F8093E8008091EB00DE
:1052100080628093EB00AA96E3E00C94F129089554
:10522000CF93809109038823A1F0C091E900CF704A
:105230009091EC00892F817090FD80E8C82B10922E
:10524000E9008091E80083FD0E94C827CF70C093D9
:10525000E900CF910895991B79E004C0991F961732
:1052600008F0961B881F7A95C9F78095089587FBEB
:10527000082E062687FD819567FD61950E942B29E2
:105280000EF4919507FC81950895AA1BBB1B51E173
:1052900007C0AA1FBB1FA617B70710F0A61BB70BA6
:1052A000881F991F5A95A9F780959095BC01CD014B
:1052B000089597FB072E16F4009407D077FD09D0C8
:1052C0000E94452907FC05D03EF4909581959F4F9B
:1052D0000895709561957F4F0895A1E21A2EAA1B3B
:1052E000BB1BFD010DC0AA1FBB1FEE1FFF1FA21796
:1052F000B307E407F50720F0A21BB30BE40BF50B93
:10530000661F771F881F991F1A9469F7609570951B
:10531000809590959B01AC01BD01CF010895EE0FE2
:10532000FF1F0590F491E02D09940E949D293323DD
:1053300012F48A1B9B0B0C94AE29A29FB001B39F61
:10534000C001A39F700D811D1124911DB29F700D8E
:10535000811D1124911D08950E949D29B7FF089574
:10536000821B930B08950E949D29A59F900DB49FC9
:10537000900DA49F800D911D11240895B7FF0C94EA
:10538000B3290E94B329821B930B08952F923F9259
:105390004F925F926F927F928F929F92AF92BF9245
:1053A000CF92DF92EF92FF920F931F93CF93DF93F1
:1053B000CDB7DEB7CA1BDB0B0FB6F894DEBF0FBE4E
:1053C000CDBF09942A88398848885F846E847D849B
:1053D0008C849B84AA84B984C884DF80EE80FD809D
:1053E0000C811B81AA81B981CE0FD11D0FB6F89413
:1053F000DEBF0FBECDBFED010895002E083090F046
:10540000982F872F762F652F542F432F322F222747
:105410000850F4CF220F331F441F551F661F771FFC
:10542000881F991F0A95B2F7002D089597FD1094D3
:10543000002E083098F00850232F342F452F562F78
:10544000672F782F892F912DF4CF159497958795F5
:105450007795679557954795379527950A95AAF7B4
:105460001124002D08958F929F92AF92BF92CF92F8
:10547000DF92EF92FF92CF93DF93EC016881798105
:105480008A819B81611571058105910521F464E292
:1054900079ED8BE597E02DE133EF41E050E00E949C
:1054A0000A2B49015A019B01AC01A7EAB1E40E9411
:1054B000B3296B017C01ACEEB4EFA50194010E940D
:1054C000C129DC01CB018C0D9D1DAE1DBF1DB7FF99
:1054D00003C00197A109B04888839983AA83BB833D
:1054E0009F77DF91CF91FF90EF90DF90CF90BF90AB
:1054F000AF909F908F9008950E94332A089580E086
:1055000091E00E94332A0895B0E0A0E0809300016A
:1055100090930101A0930201B09303010895FC014F
:105520004150504030F001900616D1F73197CF012D
:105530000895882799270895FB01DC0104C08D9107
:105540000190801921F441505040C8F7881B990BF5
:105550000895FB01DC0102C001900D9241505040C2
:10556000D8F70895F999FECF92BD81BDF89A992791
:1055700080B50895A6E1B0E044E050E00C94FC2A28
:10558000A8E1B0E042E050E00C94FC2ADC01A40F5A
:10559000B51F4150504048F0CB01840F951F2E910C
:1055A0000E94D72A41505040D0F70895262FF999EC
:1055B000FECF92BD81BDF89A019700B4021639F072
:1055C0001FBA20BD0FB6F894FA9AF99A0FBE089543
:1055D0000396272F0E94D72A0E94D62A252F0E94A1
:1055E000D72A242F0C94D72A0196272F0E94D72A36
:1055F0000C94D62ADC01CB01FC01F999FECF06C040
:10560000F2BDE1BDF89A319600B40D924150504080
:10561000B8F70895052E97FB1EF400940E94212BE5
:1056200057FD07D00E946D2907FC03D04EF40C945F
:10563000212B50954095309521953F4F4F4F5F4F0F
:10564000089590958095709561957F4F8F4F9F4FEE
:105650000895F894FFCF1D061D066D066D06D2064F
:10566000EE064C064C06F3066407730773075E1AD2
:10567000651A6C1A711A761A7B1A801A851A8A1A98
:105680008F1A941A991A9D1AA21AA51AA81AAB1A57
:10569000AE1AB01AB31AB51AB41C281DBC1C861C4D
:1056A0008A1CC01C8E1CC41CD01C9A1C211D9E1C54
:1056B000D41CA21CD81C001DA61CDC1C071DAC1C85
:1056C000E21CEA1C921CC81C961CCC1CB01CE61CDC
:1056D000F61C101D1F1D801CB81C2F1D4F205520AF
:1056E0003E2049205B2061206720EC271428FD28FC
:0E56F0001428FD2847286828FD28BF28CB284D
:1056FE00010000005E02010102000600060601190B
:10570E001A1B1C1D1E1F202122280850011E0A14C0
:10571E0001A622DC22A922D522CE2201E200E90036
:10572E00EA00B500B600B700CD008301CC008A01B7
:10573E00920194012102230224022502260227024D
:10574E002A02B300B4006F0070009F01CB019F02CC
:10575E00A002818283E200E900EA00B500B600B73C
:10576E0000CD008301CC008A019201940121022315
:10577E000224022502260227022A02B300B4006F79
:10578E000070009F01CB019F02A002818283F0F185
:10579E00C66766369431373534979633309091928A
:1057AE00939500010202020206060609090909097B
:1057BE00090F0F0F0F0F0F151515181919191919A4
:0E57CE0019191919192324252525252525002B
:00000001FF
