:100000000C9438030C9470030C9470030C947003DC
:100010000C9470030C9470030C9470030C94700394
:100020000C9470030C9470030C94F8170C94341710
:100030000C9476260C9470030C9470030C9470034B
:100040000C9470030C9470030C9470030C94700364
:100050000C9470030C9435260C9470030C9470036C
:100060000C9470030C9470030C9470030C94700344
:100070000C9470030C9470030C9470030C94700334
:100080000C9470030C9470030C9470030C94700324
:100090000C9470030C9470030C9470030C94700314
:1000A0000C9470030C9470030C94700321092109C3
:1000B00051095109EA09420B420B420B080A7B0A1B
:1000C0008E0A8E0AAB11C211C81158135813FF11B2
:1000D0000C121B12581322124D127112A312A612E7
:1000E0003A156115161761151617AD15D0151617A7
:1000F000D116E11600047F3F1F6432146432147875
:100100003C1E1E140A05FD377A585A000004E6D634
:10011000B4460200210116000000742FE5A3E000A0
:10012000A4008B5D003D8889C65436C3174FE4DDBB
:1001300061C0CE1ADF5FAE7E0918846A7BC2868BEF
:10014000B0A92B4965B8852CF1816DE08ED87C492A
:10015000730CD113DA1C29FF7217B1426821A72151
:100160001CDD07BDF5C8F876B1B6C3288A612E79C3
:100170003CCA54FB200152C3AFE6120CE1D2B77A5D
:1001800003CB58CBB87B7074ACB66EDD490715D085
:10019000BFFB640311159DAF13C7CEE636ABDE7609
:1001A000F515C02F281A65F9714BD54A3132630510
:1001B0000000E691F1C360A795CD0001A701A5015C
:1001C00000003B5F5B81B1C467FB020000000004DC
:1001D000595A05010980A101850319012AB70015A3
:1001E0000126B700950175108100C0050C0901A119
:1001F00001850419012AA002150126A002950175A6
:10020000108100C00660FF0961A101096215002686
:10021000FF009520750881020963150026FF0095EF
:100220002075089102C005010906A101050719E022
:1002300029E71500250195087501810295017508CA
:1002400081010507190029FF150026FF0095067595
:100250000881000508190129059505750191029588
:100260000175039101C009025B00030100A0FA09B6
:1002700004000001030101000921110100012240D5
:1002800000070581030800010904010002030000C2
:10029000000921110100012222000705820320002C
:1002A0000107050303200001090402000103000007
:1002B00000092111010001223200070584032000FA
:1002C000011201000200000008EDFE706001000153
:1002D0000203011C037600690061006C003A0066AD
:1002E0000036003400630032006200330063000017
:1002F00000160354006800650020004B006500797B
:100300000020007600320000000A03440072006FF3
:10031000007000000004030904FFAA7F5540222357
:10032000252628292A2C2D2F3032333536383A3BD2
:100330003D3E4042434547494A4C4E505153555724
:10034000595A5C5E6062646668696B6D6F71737543
:1003500077797B7D7F81838587898A8C8E90929443
:1003600096989A9C9E9FA1A3A5A7A8AAACAEAFB150
:10037000B3B4B6B8B9BBBCBEBFC1C2C3C5C6C7C99A
:10038000CACBCCCDCED0D1D2D2D3D4D5D6D7D7D854
:10039000D9D9DADADBDBDBDCDCDCDCDCDDDDDDDDA6
:1003A000DCDCDCDCDCDBDBDBDADAD9D9D8D7D7D6AE
:1003B000D5D4D3D2D2D1D0CECDCCCBCAC9C7C6C565
:1003C000C3C2C1BFBEBCBBB9B8B6B4B3B1AFAEACAB
:1003D000AAA8A7A5A3A19F9E9C9A98969492908E56
:1003E0008C8A89878583817F7D7B79777573716F2F
:1003F0006D6B6968666462605E5C5A59575553510B
:10040000504E4C4A4947454342403E3D3B3A3836C0
:10041000353332302F2D2C2A2928262523221E0061
:100420001F00200001000100010001000100010087
:100430000100010034039A25CC25000002000200CF
:1004400030039A25CC2500000300010035039A25CE
:10045000CC250000040002001A039A25CC25E724CD
:100460000500010036039A25CC2500000600020095
:100470001C039A25CC2500000700020032039A25B0
:10048000CC2500000800010037039A25CC25000088
:100490001200020038039A25CC2500001300020048
:1004A0003A039A25CC250000140001003C039A254C
:1004B000CC25000015000000000060241C25000071
:1004C000000000000000000000000000000000002C
:1004D000000000000000000000000000000000001C
:1004E000000000007E0F00D4FFFFFFC7000000786F
:1004F00000000000000000002A2B2800000000007F
:1005000000000000000000000000002900000000C2
:100510002C1E3420212224342627252E362D373830
:10052000271E1F202122232425263333362E373839
:100530001F0405060708090A0B0C0D0E0F101112F7
:10054000131415161718191A1B1C1D2F3130232DC3
:10055000350405060708090A0B0C0D0E0F101112C1
:10056000131415161718191A1B1C1D2F3130354C72
:100570000001010101010101010102020202020266
:100580000202020303030303030303040404040439
:100590000404050505050506060606060707070700
:1005A0000708080808090909090A0A0A0B0B0B0CB5
:1005B0000C0C0D0D0D0E0E0E0F0F0F101011111152
:1005C00012121313141415151616171718181919D3
:1005D0001A1A1B1B1C1D1D1E1E1F20202122222338
:1005E0002424252626272829292A2B2C2D2D2E2F79
:1005F00030313232333435363738393A3B3C3D3E90
:100600003F404142434445464748494A4C4D4E4F7E
:1006100050515354555658595A5B5D5E5F61626440
:10062000656668696B6C6D6F7072737577787A7BCD
:100630007D7E8082838587888A8C8E8F9193959624
:10064000989A9C9EA0A2A3A5A7A9ABADAFB1B3B544
:10065000B7BABCBEC0C2C4C6C9CBCDCFD1D4D6D820
:10066000DBDDDFE2E4E7E9EBEEF0F3F5F8FAFDFFBE
:1006700011241FBECFEFDAE0DEBFCDBF04B603FE0C
:1006800018C08091670490916804A0916904B091AA
:100690006A048730904BA740B04B59F4109267041E
:1006A000109268041092690410926A04E0E0F8E382
:1006B000099511E0A0E0B1E0EEE3FBE602C0059091
:1006C0000D92A439B107D9F724E0A4E9B1E001C043
:1006D0001D92A736B207E1F70E94BD0C0C949D3520
:1006E0000C9400006F927F928F929F92AF92BF9274
:1006F000CF92DF92EF92FF920F931F93CF93DF93EE
:1007000000D000D0CDB7DEB77C01DC0113964D914F
:100710005C91149711966C9111978C910E94D1273E
:1007200081110C94AA0C61E0C7010E942A308C014F
:10073000F7018281811106C0D70112968C91811137
:100740003EC0F0C080910C0190910D010196A1F383
:1007500064E4C62E63E0D62EA12CB12C9924939488
:1007600080910C0190910D018A159B052CF3F601E7
:1007700086818823E9F0818592850817190739F465
:1007800080914203909143030817190789F0D6011D
:100790001F969C921F971C961C930E931B97C60145
:1007A0000E943827C60106960E94F1261092410346
:1007B000BFEFAB1ABB0AE6E1CE0ED11CD1CFC80108
:1007C00082519F45409708F0CFC08FEF93E00E9481
:1007D00081348111B1C0025153E0A52EBB24B394E2
:1007E000002379F0A114F4E0BF0609F4A5C0C50107
:1007F0000E948134811101C001502FEFA21AB20A68
:10080000EFCF19821A821B821C82CC24CA948501E4
:100810000F5F1F4FC5010E94813489831A8288238C
:1008200009F48AC0813009F078C0450182E0880E61
:10083000911CC8010E948134D82E8A83882309F430
:100840007BC08FEF8D0D833050F40E5F1F4FC401BE
:100850000E9481348B83811160C05801D8CF8BEF07
:100860008D0D833070F5350193E0690E711CC40164
:100870000E9481348B83811102C08301EECF8501F8
:100880000C5F1F4FC3010E9481348C83882329F39E
:100890002B813C812130AFEF3A0718F0922F80E096
:1008A00001C0C901B6E0DB1631F0E7E0DE1631F039
:1008B0000E94AA1BD2CF0E94791BCFCF0E94F01AB0
:1008C000CCCFF4E0DF1611F08401C7CFC4010E9441
:1008D0008134D82E85010C5F1F4FC50103960E94FD
:1008E0008134DD2049F1882339F1282F30E021506F
:1008F0003109C29EA001C39E500D11248D2D90E0A0
:100900000197840F951F019708F4A7CFAFE9BFE0C7
:100910001197F1F700C00000F6CFCE0101960E94BA
:100920004E2F9BCF00318FE5180709F0FDC681E0FF
:100930000E9460200E94471480915704877011F430
:100940000C94AA0CD70112968C91882311F40C9464
:10095000AA0C80914C0282FF02C00C94AA0C82E087
:100960000E94D12D0C94AA0C0031BFE51B0711F495
:1009700081E005C00131EFE51E07A1F482E00E948D
:100980006C20D8CF6801F7E5DF1A2FEFC216D1042B
:1009900009F040F46AEE71E08C2D0E945319892B06
:1009A00009F4C9C6C80197558F3F910511F008F0A9
:1009B00053C020910C0130910D012817390724F400
:1009C00090930D0180930C01D70112962C911297F0
:1009D00036E1389F5001399FB00C1124F501EC5BD2
:1009E000FC4F6F01208B12969C918681992351F1C7
:1009F000128701878F5F86830E946A26D6011E9622
:100A00009C938E931D978091620417968C931797F1
:100A10009091410380914D02892B18968C931897E1
:100A2000ED91FC911197309741F054966D917C9126
:100A30005597C501865B9C4F09951093430300931E
:100A400042030AC0882341F08189882329F0C50127
:100A5000865B9C4F0E94F1268091350380FFBFC0CA
:100A60000E946A266C01D70112968C918823D9F1D5
:100A70008091210182FF08C02FE931E040E0B601FA
:100A800080E090E00E946B290B31BCE51B0779F0F8
:100A90000C31ECE51E0789F00A31FCE51F07A1F4D3
:100AA00080912101982F909590FB80F909C0809149
:100AB000210181608093210107C0809121018E7FF7
:100AC000809321010E942E29C8019056811520E2B1
:100AD000920720F0905E8115904180F5109271028E
:100AE000109270027CC0013E110521F48091210119
:100AF0008F7E06C0053E110531F4809121018F7D66
:100B0000809321011BC0C80190568115B0E29B075C
:100B100020F0905E8115904188F48091210182FF40
:100B20005EC08091370381FD5AC02FE931E040E07B
:100B3000B60180E090E00E946B2951C080912101B4
:100B400080FF4DC0D70112968C910832110538F400
:100B50000E311105B8F40430110578F41CC00933C6
:100B6000110538F40D32110590F40B32110579F0AE
:100B700012C00436110559F00EC09091350394FD52
:100B80000AC0B7C19091350393FD05C0B2C19091E1
:100B9000350392FFAEC1882311F1109271021092B9
:100BA0007002033FBCE51B07D1F178F4083DFCE57A
:100BB0001F0761F1093D2CE5120709F451C0073DFB
:100BC0008CE5180709F057C01BC0053F9CE51907C5
:100BD000B9F180F1063FBCE51B07E1F14CC0033FD2
:100BE000FCE51F07E1F008F5083D8CE5180771F0FA
:100BF000093D9CE51907A1F1073DACE51A07B1F5E0
:100C000006E221EE41EE67ED7CE505C007E225EE48
:100C100045EE68ED7CE5C7010E945A278DCE06E2BD
:100C200021EE40EE63EF7CE5F6CF053FBCE51B0708
:100C300039F060F407E225EE44EE64EF7CE5EBCF9B
:100C400006E221EE42EE65EF7CE5E5CF063FFCE5EE
:100C50001F0761F407E225EE46EE66EF7CE5DBCF89
:100C600008E221E045EE69ED7CE5D5CFF701228170
:100C7000222309F438C2109240030330FDE51F0718
:100C800058F40A3F2CE5120780F4C80182509C45B5
:100C9000449708F0DBC109C001368DE5180729F03B
:100CA000053A9DE5190709F0D1C10E94112D9093D5
:100CB0004C0280934B020131ACE51A0709F4C6C01F
:100CC00008F042C00930ECE51E0709F49BC000F5AE
:100CD00005302CE5120709F485C078F403309CE553
:100CE000190709F478C008F07AC002301C4509F0F1
:100CF000F7C080914B028160F1C00730ECE51E0720
:100D000009F478C008F07AC080914B028061E6C097
:100D10000D302CE5120709F487C058F40B309CE520
:100D2000190709F479C008F07BC080914B028860F4
:100D30006FC00F30BCE51B0709F480C008F082C00B
:100D400080914B02877FCAC00D3FFCE51F0709F465
:100D500071C000F505318CE5180709F485C068F409
:100D60000331ACE51A0709F475C008F095C00E947C
:100D7000A52080914B028F77B1C00B3FECE51E0799
:100D8000A9F108F054C00A3F1C4509F0A9C08091A0
:100D90004C0240C001308DE5180709F489C058F4B1
:100DA0000F3FACE51A0709F45AC008F069C08091FA
:100DB0004C0282602FC00136EDE51E0709F47EC0AB
:100DC000053AFDE51F0709F483C002301D4509F00F
:100DD00087C060E06EC080914B0282607FC08091CE
:100DE0004B0216C080914B02886078C080914C0203
:100DF00082604FC080914B02806270C080914B0234
:100E000080646CC00E94A52080914B02806866C0FF
:100E1000846064C081603DC080914B028E7F5EC063
:100E200080914B028D7F5AC080914B0216C08091F9
:100E30004C0218C080914C028D7F2BC080914B02D8
:100E40008F7E4CC080914B028F7D48C080914B02B9
:100E50008F7B44C080914B02877F8B7F3FC0809106
:100E60004C028D7F8E7F15C080914B0282FB222722
:100E700020F991E0922790FB82F990FB83F92EC034
:100E800080914C02982F909591708E7F892B90FBCA
:100E900081F980934C0224C00E94A52080914B02CE
:100EA00087FB222720F991E0922790FB87F916C053
:100EB00061E08EE090E00E94953412C080914B0278
:100EC00084FB222720F991E0922790FB84F906C049
:100ED00080914B02982F909590FB80F980934B0264
:100EE00080914B0290914C020E94042D0E94A520FB
:100EF00023CD882309F4A3C020914D028091620480
:100F0000982F922B392F3D7F79F110927102109218
:100F100070023091350331FD27C0F80143E0F695AA
:100F2000E7954A95E1F7EE71FF27E25BFD4F9801E7
:100F30002F70332781E090E002C0880F991F2A9517
:100F4000E2F78095909520813181822393239183CC
:100F50008083A70160E0C8010E944C29809162044F
:100F60008D7F0E94A22D67C038E0F701AFE9B1E0A4
:100F700001900D923A95E1F71092A1011092A30110
:100F80001092A2014091700250917102041715074E
:100F9000D1F53091350335FF36C04091210141FF35
:100FA00002C036FF30C040916E0250916F02B60110
:100FB000641B750B4091320350913303641775071E
:100FC00010F521FF08C080912101806180932101EB
:100FD00082E00E94BD2D80914D0285FF08C0809166
:100FE000210180628093210180E20E94BD2D6091E9
:100FF000210166956170A701809170029091710244
:101000000E944C2999CC969591702091210190FBDA
:1010100021F9209321018D7F0E94A22D109371024E
:1010200000937002D0926F02C0926E0280912101F3
:1010300084608093210182E00E94D12D7DCC9701B4
:1010400040E0B601C8010E946B2976CC06312CE540
:10105000120709F06AC021E080914D02982F9A7A18
:101060003091340330FF04C0482F447409F090E0FD
:1010700031FF04C0482F417109F090E032FF04C0F5
:10108000482F487809F090E033FF02C0827261F483
:101090002223A1F081E0911101C080E080939601AC
:1010A000992331F065E305C0222341F010929601A7
:1010B00069E282E094E00E949F2612C0809196012E
:1010C000882311F085E301C089E2E2E0F4E0928137
:1010D000891301C01282319694E0E830F907B9F71C
:1010E0000E94332E29CC0631ACE51A0709F4B4CF9F
:1010F00080914D0282720C3CACE51A0709F407C4DA
:1011000008F08AC3063CECE51E0709F4ECC308F0BE
:101110005FC3033C2CE5120709F4DBC308F049C3A5
:10112000023CACE51A0709F4AFC3D70112968C91C3
:10113000882389F10A35BDE51B0741F150F40115FB
:10114000FCE51F07A9F00E3D1C4529F50E942D2D39
:10115000F3CB0B358DE51807D9F00C351D45D9F4C7
:1011600080914C0282FB882780F991E0892711C089
:101170000E94A520AFEFB4E3ECE0A150B040E04006
:10118000E1F700C000000E941126D6CB81E001C02B
:1011900080E00E94EE2DD70116968D919C911797B5
:1011A0000097B9F4F701828100811181882349F009
:1011B000C8010E94C31FD82E682FC8010E942F208B
:1011C00004C0C8010E94FF1FD82EB8018D2D0E94B7
:1011D000972A0E947B2B182F092FD7011296BC90BB
:1011E00012971596CC90C2943FE0C3228091570489
:1011F0008770B9F0BB20A9F0892F807F803421F05F
:1012000080E2810F883068F080914C0282FD09C035
:1012100082E00E94D12D809157048770AA24A39464
:101220008111A12C902E92942FE09222892D90E092
:101230008C30910508F026C2FC01EA5AFF4F0C944D
:101240002935902F9F70802F807FD92E19F0D2944E
:1012500090EFD922BB20A9F0DD2009F4F3C180E290
:10126000810F883010F0111104C08D2D0E94C42D03
:1012700005C080914103D82AD09241030E94332EA9
:10128000E1C1812F0E94CF20DD2009F4FBC180E263
:10129000810F883068F1112359F18D2D0E94B62DF0
:1012A0002AC0902F9F70802F807FD92E803219F016
:1012B000D29480EFD822112321F0113009F45CC0C0
:1012C00067C080914C0282FF19C0BB2059F0DD201D
:1012D00029F08D2D0E94C42D0E94332E80E00E94A3
:1012E0000021D0C180E00E94CF20DD2009F4CAC1D6
:1012F0008D2D0E94BD2D0E94332EC4C1BB2001F153
:10130000CC20D1F0B1E0CB1206C0809162048D29CF
:101310000E94A22DB7C180913603823068F0C812B6
:101320000BC00E94972D80915404D812D09254047F
:101330008D2D0E94C820A6C1809162048D29F9CF0D
:10134000CC2079F080913603E1E0CE1210C08230DB
:1013500008F498C180914D028D2109F493C10E9437
:101360007E2E0E94972D8D2D0E94C1208BC1823030
:10137000C0F3C812F6CF86C180913C03BB2021F098
:101380008C1508F47FC1D4CFC81608F07BC1EBCF11
:10139000BB20E9F0CC2061F220E0D7014C911196FE
:1013A0005C91119712966C91129713967C911397FA
:1013B00014968C910E9401308091370381FD42C1C7
:1013C000F701858180FF3EC18F708583B1CFC11049
:1013D00042C1C9CF802F86958695837019F08130E0
:1013E00061F050C1BB2021F0812F902F937002C07B
:1013F00080E090E00E94CF264BC1BB2021F0812FDE
:10140000902F937002C080E090E00E94B92640C106
:10141000802F8370A1F5B11039C1412F42954695B7
:101420004770440F440F212F2F7030E0C901042E64
:1014300001C0880F0A94EAF714FF08C02FE030E0DB
:1014400001C0220F4A95EAF7209501C020E0302F15
:10145000369536953370323069F040F4409163042C
:10146000313019F0822B842302C0842B822B0E94FE
:1014700077200CC1282B809163048227F8CFBB20F2
:1014800019F0802F817001C08695882309F4FEC071
:10149000412F429546954770440F440F212F2F70DE
:1014A00030E0C901042E01C0880F0A94EAF714FF46
:1014B00008C02FE030E001C0220F4A95EAF72095DE
:1014C00001C020E0302F369536953370323051F020
:1014D00070F44091C201313019F0822B842308C08E
:1014E000842B05C0282B8091C201822701C0822B4A
:1014F0000E945C20CBC0F02FFF70DF2EBB2039F0A4
:101500008F2F0E946C20812F0E94C820BFC0812F86
:101510000E94C1208D2D0E946020B8C0123F11F1A1
:1015200028F4103F41F0113FA9F188C0133F01F1A9
:10153000143F61F183C080913C03BB2021F0C816A9
:1015400008F0A0C003C08C1508F49CC0202F2F7198
:1015500081E090E001C0880F2A95EAF79091C201DE
:1015600089270FC0802F8F71BB2009F46FC086C000
:10157000BB2051F081E0902F9F7101C0880F9A9598
:10158000EAF70E945C207EC080E0FBCF80914C0295
:1015900082FF06C0802F8F71BB2009F46FC056C038
:1015A000809136038230A0F180915404BB20E1F099
:1015B0000E94BD2D809157048770843039F40E94B9
:1015C000CA2D802F8F710E9460205BC080913603EE
:1015D000C81608F056C0202F2F71D22E822F0E94DD
:1015E0006C2063E08D2D0DC00E94C42D80913603C8
:1015F000C81650F00E94CA2D0E947E2E64E0802FF3
:101600008F710E94032E3DC081E00E94D12D39C010
:10161000BB2051F0802F8F71D82E0E946C2063E088
:101620008D2D0E94032E2EC081E00E94D12D91E0CD
:101630009C1540F582E00E94D12D24C0BB2049F0CA
:10164000CC2011F0812F4BCE802F8F710E946C2007
:1016500019C0CC2089F0193329F480913A03909174
:101660003B0304C080913803909139030E946029A4
:10167000812F0E94CF2006C0802F8F710E94602092
:1016800001C0A12C88EF890D843010F40E94E5265A
:10169000812F902F0E947B20811105C0109298010C
:1016A0001092970125C0BB2019F0C110F7CF20C0C0
:1016B000C110F4CF20E0D7014C9111965C911197A5
:1016C00012966C91129713967C91139714968C91A5
:1016D0000E9401308091370383FFE0CF8091970112
:1016E000909198010297D1F6812F0E945221D6CF76
:1016F000AA20A9F08091570480FD11C0F701128241
:101700008595859585950E946C20C7010E9472037E
:10171000809157048595859585950E94602060E0AD
:10172000C7010E942A3016C101319FE5190709F04F
:1017300029C982E0FDC886E18C9DF0018D9DF00DE8
:101740001124EC5BFC4F86818130E1F48091EA0149
:101750009091EB01892B09F425C98091EC019091BE
:10176000ED01892B09F41EC98091EE019091EF01E2
:10177000892B09F017C98091F0019091F101892B13
:1017800059F010C9823009F00DC98091EE01909195
:10179000EF01892B09F406C926E12C9DC0012D9D7E
:1017A000900D11248C5B9C4FFC01108A0E943827FD
:1017B000F9C8043CBCE51B0709F490C0053CECE506
:1017C0001E0709F0B2CC42E053E36BE073E3A3C021
:1017D000093CFCE51F0709F490C078F4073C9CE540
:1017E000190709F485C0083CACE51A0709F09DCC3F
:1017F00046EF52E36AEE72E38EC00A3CBCE51B077B
:1018000009F480C00B3CECE51E0709F08ECC49E3DF
:1018100053E36AE473E37FC0013DFCE51F0709F46D
:1018200087C0A0F40E3C8CE5180709F47BC008F4CF
:1018300076C00F3CACE51A0709F477C0003DBCE563
:101840001B0709F072CC6EE089E07AC0043DECE53C
:101850001E0709F473C068F4023D2CE5120709F471
:101860006AC0033D8CE5180709F05FCC61E088E1B0
:101870006DC0053D9CE5190709F466C00D35ADE561
:101880001A0709F459C851CC8091DD0180FF1BC0B3
:101890008E7F8093DD016091DD017091DE0180918A
:1018A000DF019091E0010E9427331092CA01BFEF3F
:1018B000E0E7F2E0B150E040F040E1F700C00000A6
:1018C0000E94ED1C39C881608093DD0161E086953E
:1018D0003DC046E953E36FE973E31DC04FE953E3AD
:1018E00066E973E318C04BE053E362E073E313C0AF
:1018F0004AEE52E366EF72E30EC042ED52E36EED44
:1019000072E309C04EED52E362ED72E304C04AE4B3
:1019100053E369E373E30E94D11C0C949C0461E0DF
:1019200081E014C065E082E00BC068E086E008C09A
:1019300064E18FE005C067E185E102C062E289E110
:101940000E94BF1C0C949C0461E083E20E945B3304
:101950000C949C040F900F900F900F90DF91CF91FB
:101960001F910F91FF90EF90DF90CF90BF90AF90BD
:101970009F908F907F906F900895CF93DF93CDB716
:10198000DEB7E4970FB6F894DEBF0FBECDBF84B7C5
:10199000877F84BF0FB6F894A89580916000886116
:1019A00080936000109260000FBE90E080E80FB658
:1019B000F89480936100909361000FBE85B78068B2
:1019C00085BF85B7806885BF83EB9AE290939501C8
:1019D000809394010E949A1A0E94411A0E94332A0D
:1019E0000E9478170E9497178091E200846080938C
:1019F000E20078948091B8018823A1F01091E90069
:101A00001F709091EC00892F817090FD80E8182B59
:101A10001092E9008091E80083FD0E9452141F702B
:101A20001093E90082E084BD93E095BD9AEF97BDE5
:101A300080936E000E94A61C811102C00E94971C18
:101A400082E90E94F82A81E90E94F82A80E90E942E
:101A5000F82A84E90E94F82A1092AA0110929901AA
:101A60000E94222D811102C00E942D2D82E090E063
:101A70000E94813480939D010E94112D90934C020D
:101A800080934B020E940F2B2FEF46E781E02150FD
:101A900040408040E1F700C000000E940F2B809181
:101AA000AA0180FF08C06FEF7FEF80E090E00E9406
:101AB000B3340E94112683E090E00E9481340E949A
:101AC000772080919A01811133C00E94222D8111CB
:101AD00004C00E942D2D0E94A93388E090E00E944E
:101AE00089346093DD017093DE018093DF01909370
:101AF000E0016E7F71F40E94A93388E090E00E94BB
:101B000089346093DD017093DE018093DF0190934F
:101B1000E0010E9414331092CA018091DD0180FF20
:101B200004C060E086950E945B3381E080939A0157
:101B300080E091E09093F7038093F60328E1E22E92
:101B4000F12C30E4A32EBB24B3948091B8018530EE
:101B500009F080C000E112E18091B801853009F000
:101B600064C08091B801843009F43DC01092CA016C
:101B700080919C01811116C0B0929C018091DD0181
:101B8000982F917090939B018E7F8093DD019FEF42
:101B9000A0E7B2E09150A040B040E1F700C00000E3
:101BA0000E94ED1C1092FA030FB6F894A895E092EB
:101BB00060000FBEA092600083B7817F846083BF06
:101BC00083B7816083BF7894889583B78E7F83BF06
:101BD0000FB6F894A89580916000886180936000AA
:101BE000109260000FBE8091B701882309F4B4CF32
:101BF0000E940F2B8091AA01882309F4ADCF09BD63
:101C000019BD09B400FEFDCF8091D8008F7D80936F
:101C1000D8008091E00082608093E0008091E00035
:101C200081FDFCCF0E94A52097CF0E94A5200E9495
:101C3000E52610929C0180919B01882349F08091B8
:101C4000DD0181608093DD0160E086950E945B3359
:101C50000E94D71C0E940F2B882359F08FB7F8944D
:101C60004091FB035091FC036091FD037091FE03D2
:101C70008FBF2091AA0190919E01922711F180E0DF
:101C800011E0312F3923C9F08BA71CA6212381E055
:101C900009F480E08DA70E946A268160782F9FA7B3
:101CA0008EA74BA55CA56DA58FA50E9438308091AD
:101CB0009E01182710939E0114C08F5F110F83306F
:101CC00001F78FEF88AB89AB1AAA0E946A26816060
:101CD000782F9CAB8BAB48A959A96AA98CA90E9403
:101CE000383080910C0190910D01019669F1712CB1
:101CF00096E1692E20C0689EF001699EF00D1124C6
:101D0000EC5BFC4F028913890115110521F4009148
:101D1000320310913303689E6001699ED00C112438
:101D2000C6018C5B9C4F4C01DC0116968C9116977A
:101D300081110FC07394872D90E020910C01309198
:101D40000D0128173907BCF680912201811113C0BB
:101D50003AC01D968D919C911E970E945B26081794
:101D6000190740F7C4010E943827C601865B9C4FC3
:101D70000E94F126DFCF80911803909119030097FC
:101D800011F10E945B262091720230917302281794
:101D90003907C8F49091160380911703981759F0EA
:101DA0000E947F28109273021092720210921903FF
:101DB0001092180308C00E940E2810921903109266
:101DC00018030E9460288091350380FF1EC0809117
:101DD000210182FF1AC00E946A2620916E02309172
:101DE0006F02AC01421B530B20911F013091200167
:101DF0004217530750F02FE931E041E0BC018091D8
:101E00007002909171020E946B298091CA0188230F
:101E100009F493C08091C901E091DD01E695E81BCA
:101E2000E093C501823059F4F0E0EE5FFE4FE4919B
:101E30000E2F10E08FE3C82E89E1D82E59C08630CE
:101E400059F4F0E0E150FF4FE4910E2F10E0BFE2B3
:101E5000CB2EB9E1DB2E4CC0893061F4E695F0E081
:101E6000E450FF4FE4910E2F10E0A1EACA2EAEE13C
:101E7000DA2E3EC08F3061F4E695F0E0E750FF4F78
:101E8000E4910E2F10E0F4E3CF2EFEE1DF2E30C000
:101E9000853159F4F0E0EA50FF4FE4910E2F10E045
:101EA000E6EECE2EEDE1DE2E23C08831A1F08332A6
:101EB00049F4E4EFF0E0059114917CEDC72E7EE14A
:101EC000D72E16C0843271F000ED17E06EE2C62EF8
:101ED00069E1D62E0DC008E210E05DE5C52E5DE19A
:101EE000D52E06C004EF11E043E2C42E4DE1D42EFE
:101EF0008091C601882361F01092C6010E946A2673
:101F00009093C4018093C3011092C8011092C7013D
:101F10000E946A26E091C301F091C4018E1B9F0BC1
:101F20008F3F9F4750F40E0F1F1F1093C401009363
:101F3000C30183EC91E0F60109950E94E52690919A
:101F4000A70189138093A7018091B801843009F01B
:101F5000FCCD83E08093E9008091E80082FFF5CD1D
:101F60008091E80085FF21C00E94CF1881111BC01D
:101F700000E210E0CE0101966C0108C08091F100F2
:101F8000D6018D936D010150110969F08091E8002F
:101F900085FDF4CF8091E8008B778093E8000E9464
:101FA000CF18882399F391E001C090E08091E80078
:101FB0008B778093E800992309F4C7CD00914902FB
:101FC00010914A0289810115110561F08E3F09F0D7
:101FD0006FC38A81833008F4B2C18550833008F022
:101FE00067C3ADC1893009F4DFC0D0F4843009F48F
:101FF00063C050F48230A1F108F051C0813009F083
:1020000055C31A8289E086C3863009F467C008F494
:102010005AC0873009F465C0883009F4A4C046C3AB
:10202000803109F42BC180F48D3009F4C8C028F444
:102030008C3009F03BC380E1B9C28E3009F4C3C0D3
:102040008F3009F4ECC032C3823109F41CC108F4AA
:1020500018C1833109F441C18E3F09F470C126C310
:102060008A81823009F44BC3833089F0813009F0D2
:102070001DC32FB7F8948091FB039091FC03A091AE
:10208000FD03B091FE032FBFBB83AC831AC08091C8
:102090001D0190911E01892B09F03AC309C38A8161
:1020A000823009F003C36B817C818D819E810E9407
:1020B0002F350E94751CFCC24C816B818A810E9465
:1020C000181A9D8323C32D813E813227232732276F
:1020D0004C816B818A810E946819EAC20E94991919
:1020E000E7C28A818138B1F050F4803809F0E0C24B
:1020F00020E04B816091DF018091DE0131C08238A8
:1021000059F1833809F0D4C220E04091E0016C819C
:102110008B8126C060E08B810E945B339B81809124
:10212000DD01911111C08E7F8093DD011092CA01F3
:10213000BFEFE0E7F2E0B150E040F040E1F700C06F
:1021400000000E94ED1CB4C281608093DD0160E05C
:1021500086950E945B33ACC28B818093E101A8C25B
:102160000E941C1FA5C28A81813899F030F4803802
:1021700009F09EC28091E001CDC2823891F083388F
:1021800009F096C28091DE018B838091DF018C8300
:102190008FC28091DD0180FF02C08695BBC280E0C6
:1021A000B9C28091E101B6C26091DD017091DE019A
:1021B0008091DF019091E0010E94273379C282E093
:1021C0008A838DEFA7C20A811B8110270127102760
:1021D0008C80912C2DE18216910408F069C2CE0109
:1021E00001963C016C01C8018D5F9E4F9601261936
:1021F00037092815390508F05BC20D3FA2E01A0720
:1022000028F40E948134F601848303C0D601149619
:102210001C920F5F1F4FBFEFCB1ADB0AE4CF8091F8
:102220001D0190911E01892B09F442C20A811B8174
:10223000102701271027CC80D12CEDE1CE16D10438
:1022400008F036C2CE0101963C014C01C8018D5FF9
:102250009E4F9401261937092C153D0508F028C218
:102260000D3FA2E01A0720F4F40164810E94953426
:102270000F5F1F4FFFEF8F1A9F0AE8CF0E94872A38
:1022800017C284E093C10A811B8110270127102700
:102290008C80912C2DE18216910408F009C2CE01A8
:1022A00001963C016C01C8018796960126193709F1
:1022B0002815390508F0FCC10831110530F40E94D9
:1022C0008134D60114968C9302C0F60114820F5FFC
:1022D0001F4FFFEFCF1ADF0AE6CF0A811B811027BD
:1022E00001271027CC80D12C2DE1C216D10408F093
:1022F000DFC10831110508F0DBC1C701801B910B5C
:102300008C159D0508F4D4C1CE0101963C014C0109
:10231000C80187969401261937092C153D0508F048
:10232000C7C10831110528F4D40114966C910E949C
:1023300095340F5F1F4FBFEF8B1A9B0AE9CFEA81DD
:102340008E2F90E08E30910508F0B2C1FC01EE595D
:10235000FF4F0C94293588E0E3E2F1E0DE0191962D
:1023600001900D928A95E1F7FE01319680E2DF013E
:102370001D928A95E9F785E0898388E0B096DE01B1
:1023800015966AC18CEC89831A821B821C8290C1CB
:102390008C8190E0982F88272B81820F911D092E28
:1023A000000CAA0BBB0B35E0880F991FAA1FBB1F9F
:1023B0003A95D1F7AC01BD01405E5F4F6F4F7F4F43
:1023C000481759076A077B0708F472C18C3C9105CE
:1023D000A105B10508F06CC14D3C510561057105C1
:1023E00020F04CEC50E060E070E0481B590BBC0161
:1023F0006A5F7E4FCE0101960E94683459C140E267
:1024000050E06FEF70E0CE0101960E94963580910A
:102410001D0189830A834CC181E090E090934A02B8
:102420008093490282E390E09093A9018093A801F0
:102430000E946A263DC180911D0189830A83809193
:10244000A80168C10B811C8140E250E06FEF70E091
:10245000CE0101960E94963520E334E080E090E0C2
:10246000AC014E5F5F4F4132510508F021C1F901C7
:10247000659174910617170748F4E1E0F0E0EC0F5E
:10248000FD1FE80FF91F71836083CA01245F3F4F6E
:10249000B4E0203C3B0721F70BC14B815C8120EC71
:1024A00034E080E394E0FC0165917491461757078E
:1024B00029F00C9628173907B1F7F8C0009709F4EE
:1024C000F5C0FC013696259134912115310509F4AA
:1024D000EDC04FE150E0BE016E5F7F4FF9010995FD
:1024E000E6C08B819C8100E314E0F80125913491D2
:1024F0008217930739F0045F1F4FF4E0003C1F0779
:10250000A1F7D4C00115110509F4D0C0F80138961F
:10251000259134912115310509F4C8C04CE150E0F2
:10252000BE016B5F7F4FC801F9010995009709F063
:10253000BEC0F8013A9685919491009711F0FC0184
:10254000099580E0B4C00E94592AB2C08B818230C4
:1025500079F1E0F4882309F1813009F0A9C08C8178
:102560001AE06E01B1E2CB0ED11CF601212F1192BF
:102570002A95E9F7B6010E9453198983F601DE0115
:10258000129601900D921A95E1F792C0833009F4EA
:1025900046C0843009F465C08BC0FE01319680E2EC
:1025A000DF011D928A95E9F788E089838A8380C0DC
:1025B0001C818AE0FE013596DE01919601900D9214
:1025C0008A95E1F789A19AA10E94651C9AA389A323
:1025D0008BA19CA10E94651C9CA38BA38DA19EA195
:1025E0000E94651C9EA38DA38FA198A50E94651CC7
:1025F00098A78FA3183070F44AE0149FB0011124FB
:102600006D597F4F4AE050E0CE0181960E94B93467
:1026100080E001C08FEF89830E949A1A49C06C81C3
:10262000CE0181962AE0DC011D922A95E9F76830F7
:1026300060F4BAE06B9FB00111246D547F4F4AE003
:1026400050E00E94713480E001C08FEF89838AE0FE
:10265000FE01B196DE01129601900D928A95E1F786
:1026600027C01C818AE0FE013596DE01919601901B
:102670000D928A95E1F789A59AA50E94651C9AA7F3
:1026800089A7183070F4EAE01E9FB00111246D5440
:102690007F4F4AE050E0CE0181960E94B93480E03D
:1026A00001C08FEF89830E94411A02C08FEF898396
:1026B0008091B801843009F048CA1091E9001F7078
:1026C0009091EC00892F817090FD80E8182B82E0BA
:1026D0008093E9008091E80080FF0DC040E050E069
:1026E00060E270E0CE0101960E9402198091E8003C
:1026F0008E778093E8001F701093E90026CA86E267
:1027000090E00E9481341B821C821D828E83D0CF78
:102710008091AA018B83CCCF8091BA0187FF11C031
:102720008091E80082FD05C08091B8018111F8CF49
:1027300011C08091E8008B770BC08091B80188238D
:1027400049F08091E80080FFF8CF8091E8008E7713
:102750008093E8000895982F973068F59093E900EA
:10276000981739F07091EC002091ED005091F00035
:1027700003C0242F762F50E021FD02C09F5FECCFD5
:102780003091EB003E7F3093EB003091ED003D7FC8
:102790003093ED003091EB0031603093EB0070939B
:1027A000EC002093ED005093F0002091EE0027FD07
:1027B000E5CF80E008958F708093E90081E008956F
:1027C0002091C0013091C1012617370748F06115EB
:1027D000710539F42091E8002E772093E80001C0BC
:1027E000B901FC0120E06115710579F18091B80112
:1027F0008823F1F18530F1F18091E80083FD3CC040
:102800008091E80082FD2EC08091E80080FFEBCF30
:102810002091F3008091F20090E0922B61157105F8
:1028200051F08830910538F421912093F1006150E6
:1028300071090196F3CF21E0089709F020E080911B
:10284000E8008E778093E800CECF2111CFCF0AC069
:102850008091B801882361F0853061F08091E800B3
:1028600083FD0AC08091E80082FFF2CF80E00895E6
:1028700082E0089583E0089581E008950895BC0101
:1028800084E00C94E725BC0183E00C94E72580915B
:10289000C201982F9670963011F4886001C0877F2E
:1028A0000C945C201F93CF93DF93CDB7DEB7AA972C
:1028B0000FB6F894DEBF0FBECDBFEAEBF1E082ECBD
:1028C00091E02091F10021938E179F07D1F780911D
:1028D000BB01833009F463C030F4813071F0823081
:1028E00009F49DC0B4C08A3009F489C08B3009F462
:1028F0006EC0893009F0ABC020C08091BA01813A26
:1029000009F0A5C08091E800877F8093E80080915E
:10291000BE019091BF01892B21F468E08EEA91E01D
:1029200003C060E080E090E070E00E94E0138091DE
:10293000E8008B778093E8008AC08091BA018132E9
:1029400009F085C08091BE019091BF01009719F0F8
:10295000029709F07CC08091E800877F8093E800AF
:102960008091E80082FD05C08091B8018111F8CF07
:102970006EC02091F3008091F20090E0922B0297BC
:1029800031F48091F100813011F0863021F4809192
:10299000F1008093AD018091E8008B7754C0809165
:1029A000BA01813A09F053C08091BE019091BF01F4
:1029B000892B09F04CC08091E800877F8093E80064
:1029C0008091E80080FFFCCF80910E0137C080919C
:1029D000BA018132E1F58091BE019091BF01892B4E
:1029E000B1F58091E800877F8093E8000E948C1306
:1029F0008091BC0180930E010E94A52028C0809187
:102A0000BA01813221F58091E800877F8093E80048
:102A10000E948C138091BD018093AC0118C08091FD
:102A2000BA01813AA1F48091E800877F8093E800A1
:102A30008091E80080FFFCCF8091AC018093F10091
:102A40008091E8008E778093E8000E948C1380913B
:102A5000E80083FFEBC18091BA019091BB01492F3F
:102A600050E04A30510508F0E1C1FA01E059FF4F4A
:102A70000C942935803821F0823809F0D7C108C07C
:102A80008091B6019091B701992389F082600FC0BF
:102A90008091BE018F70873008F0C8C18093E90033
:102AA0008091EB0085FB882780F91092E9009091D6
:102AB000E800977F9093E8008093F1001092F10076
:102AC0007CC1282F2D7F09F0B1C1882319F08230F5
:102AD00061F0ACC18091BC01813009F0A7C1933095
:102AE00009F080E08093B7012EC08091BC01811174
:102AF0002AC08091BE018F702FEF280F263008F07A
:102B000095C18093E9002091EB0020FF1CC0933019
:102B100021F48091EB00806214C09091EB009061F1
:102B20009093EB0021E030E0A90102C0440F551F53
:102B30008A95E2F74093EA001092EA008091EB0058
:102B400088608093EB001092E9008091E800877F15
:102B50008093E8000E948C1369C1811167C11091B4
:102B6000BC011F778091E3008078812B8093E30084
:102B70008091E800877F8093E8000E948C13809109
:102B8000E80080FFFCCF8091E30080688093E30041
:102B9000111102C082E001C083E08093B80146C1F8
:102BA0008058823008F042C12091BC013091BD01B3
:102BB0002C3D53E0350779F583E08A838AE28983E7
:102BC0004FB7F894DE01139620E03EE051E2E32F88
:102BD000F0E050935700E49120FF03C0E295EF70BE
:102BE0003F5FEF708E2F90E0EA3010F0C79601C083
:102BF000C0968D939D932F5F243149F74FBF8091ED
:102C0000E800877F8093E8006AE270E0CE010196D9
:102C10000E94E013C0C08091BE019091BF01432F7C
:102C2000552743305105B1F068F44130510509F49E
:102C30000CC14230510509F0F9C08BE590E0E6E6A1
:102C4000F2E057C04132510589F14232510509F491
:102C50003CC0ECC0C901992781309105B9F070F0F2
:102C600082309105D9F0039709F0E0C0E3EDF2E07E
:102C7000E4918E2F90E0E3EDF2E038C0E5E1F3E07F
:102C8000E4918E2F90E0E5E1F3E030C0E9E0F3E07D
:102C9000E4918E2F90E0E9E0F3E028C0E1EFF2E06C
:102CA000E4918E2F90E0E1EFF2E020C083309105B7
:102CB00008F0BCC0880F991FFC01E95CFE4F019031
:102CC000F081E02D89E090E014C08330910508F098
:102CD000ADC0FC01EE0FFF1FEF5CFE4F0190F081D5
:102CE000E02DDC01A25DBE4F8C9190E0009709F4CD
:102CF0009DC02091E800277F2093E8002091C0012B
:102D00003091C1012817390708F4C90140E0009744
:102D100089F12091B801222309F43DC02530D9F171
:102D20002091E80023FD37C02091E80022FD2FC04C
:102D30002091E80020FFEBCF4091F3002091F200BA
:102D400030E0342B009759F02830310540F444919D
:102D50004093F100319601972F5F3F4FF3CF41E051
:102D60002830310509F040E02091E8002E772093CB
:102D7000E800CDCF4111CDCF0AC08091B8018823A2
:102D800051F0853041F08091E80083FD04C08091CE
:102D9000E80082FFF2CF8091E8008B778093E80013
:102DA00045C0803809F042C08091E800877F809359
:102DB000E8008091B9018093F1008091E8008E775E
:102DC000C7CE811133C08091BC019091BD0199277C
:102DD000029764F58091E800877F8093E800109166
:102DE000BC011093B9010E948C13111106C080918F
:102DF000E30087FD02C081E001C084E08093B80158
:102E000042E061EC81E00E94AB1342E261EC84E0BD
:102E10000E94AB1342E261EC82E00E94AB1342E2FB
:102E200060EC83E00E94AB138091B8018091E800D0
:102E300083FF10C08091E800877F8093E800809135
:102E4000EB0080628093EB0005C082E190E0E1EC52
:102E5000F2E04FCFAA960FB6F894DEBF0FBECDBFFB
:102E6000DF91CF911F9108951F920F920FB60F928D
:102E700011242F933F934F935F936F937F938F937F
:102E80009F93AF93BF93CF93DF93EF93FF93C09143
:102E9000E900CF708091EC00D82FD17080FDD0E890
:102EA0001092E9008091F000877F8093F000789481
:102EB0000E9452141092E9008091F0008860809383
:102EC000F000CD2BCF70C093E900FF91EF91DF911F
:102ED000CF91BF91AF919F918F917F916F915F91B2
:102EE0004F913F912F910F900FBE0F901F9018950B
:102EF000E8EDF0E080818E7F80831092E2001092F6
:102F0000DA001092E100A0EEB0E08C9181608C9329
:102F100080818F77808319BCA7EDB0E08C918E7F84
:102F20008C9380818F7E80831092AB010895CF9225
:102F3000DF92EF92FF920F931F93CF93DF93C8ED31
:102F4000D0E088818F7E8883E7EDF0E0808181602A
:102F5000808384E082BF81E08093AB0188818E7F93
:102F6000888302EE10E0F80110821092DA0081EE00
:102F7000C82ED12CF601108288818F7788838881B2
:102F80008068888388818F7D888319BC1092B801FE
:102F90001092B9011092B7011092B60190EEE92E8D
:102FA000F12CF70180818B7F808388818160888309
:102FB00042E060E080E00E94AB13F60180818E7FEA
:102FC0008083F80180818160808380818860808334
:102FD000F70180818E7F8083888180618883DF9183
:102FE000CF911F910F91FF90EF90DF90CF900895B8
:102FF0001F920F920FB60F9211242F933F934F936E
:103000005F936F937F938F939F93AF93BF93EF9350
:10301000FF938091E10082FF09C08091E20082FF6E
:1030200005C08091E1008B7F8093E1008091DA0000
:1030300080FF2AC08091D80080FF26C08091DA00EE
:103040008E7F8093DA008091D90080FF18C080E1E4
:1030500089BD82E189BD09B400FEFDCF81E0809386
:10306000B8018091AB0181110FC00E9478170E94B6
:1030700097178091E20084608093E20005C019BC3C
:103080001092B8011092AB018091E10080FF17C04F
:103090008091E20080FF13C08091E2008E7F8093D8
:1030A000E2008091E20080618093E2008091D8008C
:1030B00080628093D80019BC85E08093B80180912C
:1030C000E10084FF30C08091E20084FF2CC080E1E9
:1030D00089BD82E189BD09B400FEFDCF8091D80091
:1030E0008F7D8093D8008091E1008F7E8093E100F6
:1030F0008091E2008F7E8093E2008091E200816007
:103100008093E2008091B901882311F084E007C028
:103110008091E30087FD02C081E001C083E08093DD
:10312000B8018091B8018091E10083FF27C08091B0
:10313000E20083FF23C08091E100877F8093E1005C
:1031400082E08093B8011092B9018091E1008E7FF6
:103150008093E1008091E2008E7F8093E200809175
:10316000E20080618093E20042E060E080E00E9443
:10317000AB138091F00088608093F000FF91EF9195
:10318000BF91AF919F918F917F916F915F914F917F
:103190003F912F910F900FBE0F901F901895209187
:1031A000E4003091E50095E64091EC00842F8170B9
:1031B00040FF23C08091E80080FD1DC08091B801D0
:1031C000882399F0853099F08091EB0085FD11C03E
:1031D0004091E4005091E5002417350729F3915000
:1031E00011F09A01E1CF84E0089582E0089583E030
:1031F000089581E0089580E008954091E80042FF3D
:10320000DDCF0895EF92FF920F931F93CF93DF933B
:103210007C018B010E94CF18811119C0E7010115B3
:103220001105A1F08091E80085FD0AC08091E800B9
:103230008E778093E8000E94CF18882381F307C01F
:1032400089918093F10001501109E9CF80E0DF916D
:10325000CF911F910F91FF90EF9008950895CF9314
:10326000DF93EC01EDEDF1E0438162818C810E94FE
:103270004E348C818F5F8C83DF91CF910895CF93F3
:10328000DF93EC01EC81F0E0E25EFC4F4491EDED68
:10329000F1E0628181810E944E348C818F5F8C834A
:1032A000DF91CF910895883080F49B01982F8AE0B8
:1032B000989FB00111246D597F4F4AE050E0C90139
:1032C0000E94713480E090E008958FEF9FEF0895A1
:1032D0000F931F93CF93DF93843030F5611124C097
:1032E000433010F521159CE5390731F460911D013B
:1032F00070911E01672BC1F08901C42FD0E0CC0F63
:10330000DD1F96E0899FC00DD11D1124612FCE01D4
:1033100087960E949534602FCE018896DF91CF91D9
:103320001F910F910C949534DF91CF911F910F91C4
:103330000895BF92CF92DF92EF92FF920F931F9367
:10334000CF93DF93CDB7DEB764970FB6F894DEBFA7
:103350000FBECDBFC0901D01D0901E0181E090E056
:1033600090931E0180931D01B12CE12CF12C00E003
:1033700010E0F801EE0DFF1DEE0FFF1FE25EFB4FA8
:1033800025913491402F60E08B2D0E9468190F5FCA
:103390001F4F0330110569F783E0E80EF11CB39469
:1033A000E4E0BE12E4CF0E94592A1A8219821C82DC
:1033B0001B821E821D8218861F8288EC90E09A87ED
:1033C000898703E610E04AE050E0B801CE0101969B
:1033D0000E94B934065F1F4F033B1105A1F77E0120
:1033E000FBE0EF0EF11C8AE0F70111928A95E9F7F4
:1033F0004AE050E0B801C7010E94B934065F1F4F90
:103400000330F1E01F07A1F7D0921E01C0921D0109
:1034100064960FB6F894DEBF0FBECDBFDF91CF919B
:103420001F910F91FF90EF90DF90CF90BF90089584
:103430000F931F93CF93DF938430E0F461111AC090
:103440004330C0F4C42FD0E0CC0FDD1F26E0829FB4
:10345000C00DD11D1124CE0187960E94813490E0C9
:10346000182F0027CE0188960E9481349801282BBE
:10347000C90102C080E090E0DF91CF911F910F91D0
:103480000895CF92DF92EF92FF920F931F93CF9305
:10349000DF93CDB7DEB72A970FB6F894DEBF0FBE25
:1034A000CDBF80E5E4EFF1E0DF011D928A95E9F7F9
:1034B00088E3E6EDF2E0DF011D928A95E9F784EFFB
:1034C000C82E81E0D82E7F0103EB10E0F701D182F6
:1034D000C0824AE050E0B801CE0101960E947134EA
:1034E00088E0FE013196D60101900D928A95E1F7B0
:1034F00089859A85D70113969C938E931297BAE08B
:10350000CB0ED11CE7E0EE0EF11C065F1F4F03301F
:10351000F1E01F07D9F62A960FB6F894DEBF0FBE6A
:10352000CDBFDF91CF911F910F91FF90EF90DF9072
:10353000CF9008958F929F92AF92BF92CF92DF92D9
:10354000EF92FF920F931F93CF93DF93CDB7DEB728
:103550002A970FB6F894DEBF0FBECDBF04E413E088
:10356000E12CF12C8AEBC82E8BE1D82E95EEA92EFA
:103570009BE1B92E20E2822E2BE1922EF801D1821E
:10358000C082B382A28295828482F58AE48ABE01D7
:103590006F5F7F4F8E2D0E945319892B29F48985E7
:1035A0009A85F801938B828BFFEFEF1AFF0A0A5E70
:1035B0001F4F88E0E816F10409F72A960FB6F89431
:1035C000DEBF0FBECDBFDF91CF911F910F91FF9056
:1035D000EF90DF90CF90BF90AF909F908F90089525
:1035E000CF93DF9300D000D01F92CDB7DEB790937A
:1035F000480280934702811520E2920748F40F9019
:103600000F900F900F900F90DF91CF910C949F32FD
:103610008EEF89838A831B820E946A268160782FBD
:103620009D838C8349815A816B818D810E943830C2
:103630000F900F900F900F900F90DF91CF91089502
:103640000F931F93CF93DF938C01EB016AEE71E030
:103650008C2F0E945319892B09F046C080913803A2
:10366000909139030E946029DD27CE51DE4F888179
:10367000F80110821882833079F048F4813041F1EA
:10368000823091F58091EC019091ED0109C0843078
:1036900051F08530E9F028C08091EE019091EF0162
:1036A0000097B1F01BC08091F0019091F10100975B
:1036B000A9F42091EA013091EB018091EC01909105
:1036C000ED012115310541F0009741F4C90106C013
:1036D0008091EA019091EB01009731F0DF91CF9159
:1036E0001F910F910C94F01ADF91CF911F910F91C0
:1036F0000895CF93DF9300D000D01F92CDB7DEB7EF
:103700009093480280934702811520E2920748F483
:103710000F900F900F900F900F90DF91CF910C941E
:10372000B9328EEF89838A8381E08B830E946A2677
:103730008160782F9D838C8349815A816B818D8133
:103740000E9438300F900F900F900F900F90DF91E4
:10375000CF910895CF93DF93EC010E94791B809164
:103760003803909139030E946029CE01DF91CF91F7
:103770000C94F01A0F931F93CF93DF938C01862F35
:103780006AEE71E00E945319892BD1F4C091EA01CD
:10379000D091EB012097A1F0F8018081833039F4BA
:1037A000CE010E94AA1BCE010E94AA1B02C0843037
:1037B00038F0CE01DF91CF911F910F910C94AA1B8D
:1037C000DF91CF911F910F9108950F931F93CF9386
:1037D000DF938C01EB016AEE71E08C2F0E9453198C
:1037E000892B09F06DC0DD27F8018081813041F41B
:1037F0009185911115C09285992391F082E010C0B6
:10380000823049F4F8018185811107C082858111D8
:1038100006C083E005C086E003C085E001C084E007
:10382000CE51DE4F88838330B1F028F4813071F0BF
:10383000823031F045C08430A9F0853079F140C044
:103840008091EC019091ED010097A1F58091EA0142
:103850009091EB0120C08091EE019091EF010097D3
:10386000E9F028C08091F0019091F101009711F5E5
:103870008091EA019091EB01009749F00E94AA1B08
:103880008091EC019091ED01009781F013C080913F
:10389000EC019091ED01009799F00CC08091EA0144
:1038A0009091EB01009761F00E94AA1B8091EA01C0
:1038B0009091EB01DF91CF911F910F910C94791BA7
:1038C000DF91CF911F910F91089581152CE59207FB
:1038D00059F480911D0190911E01892B19F480E00B
:1038E00090E0089580E09CE5089586E290E00C94D5
:1038F0009534CF93C82F811102C06FEF01C06AE9E0
:1039000083E290E00E949534C11102C06FEF01C0C4
:103910006AE684E290E00E949534C11102C06FEF24
:1039200001C064E685E290E0CF910C94953480E08C
:103930000E94791C60E070E0CB010E94751C0E941F
:1039400099190E94872A81E00C94791C83E290E007
:103950000E9481348A3981F484E290E00E948134AB
:103960008A3651F485E290E00E94813491E08436F9
:1039700009F090E0892F01C080E081700895909156
:10398000DD0190FF04C09695981740F003C08111A7
:1039900005C090E0961710F40C949F3361E00C94EE
:1039A0005B33882311F0FA0101C0FB010994609197
:1039B000DD01669570E04BE050E08FE091E00E9401
:1039C0007335892B19F481E08093CA010E946A261D
:1039D0009093C4018093C30108958091DD0180FF1D
:1039E0000AC0219A85B18D7F95B192602FB7F89466
:1039F000EEECF1E00BC0EEECF1E0118210821282ED
:103A0000339631E0ED3DF307C1F7EBCF31E0ED3D0B
:103A1000F30789F0319148E095B9000000C037FF05
:103A200085B9330F000000C000C000C085B900C0D8
:103A30004A9591F7EBCF2FBF8FE594E00197F1F70F
:103A400000C000000895EF92FF920F931F93CF9351
:103A5000DF938C01CEECD1E0E12CF12CF8018481D4
:103A6000F2E0EF16F1041CF4882339F002C0811152
:103A700004C09E014091E00102C09E0140E06091BF
:103A8000DF018091DE010E94B8338FEFE81AF80A57
:103A9000239695E0E916F10409F70E94ED1CF80160
:103AA000848190E00196817099278483DF91CF9182
:103AB0001F910F91FF90EF9008958F929F92AF9278
:103AC000BF92CF92DF92EF92FF920F931F93CF930B
:103AD000DF93EC014C81042F10E09801D8010E9483
:103AE0003E359B01AC010E9454356B017C01E0E244
:103AF000F0E0E01BF10BA5E5B0E09B01AC010E94FA
:103B000054354B015C019F01DF010E9436359B015A
:103B1000AC010E945F359B01AC012C0D3D1D4E1D7B
:103B20005F1DC501B4010E940735822FF22E99E274
:103B3000921728F093E0299F900111240DC025E5EC
:103B400030E0281B3109C901880F991F280F391F40
:103B500037FF02C02F5F3F4F35952795122F1095E5
:103B60009EECC92E91E0D92E00E085E5E82EEF18F5
:103B700001FD02C08E2D01C08F2D9601412F609155
:103B8000DF010E94B8330F5F83E0C80ED11C0530FF
:103B900079F70E94ED1C8C81811102C091E003C075
:103BA000803219F49FEF90931C0190911C01890FB2
:103BB0008C83DF91CF911F910F91FF90EF90DF9059
:103BC000CF90BF90AF909F908F9008950F931F93C9
:103BD000CF93DF93CEECD1E0FE01118210821282EE
:103BE000339681E0ED3DF807C1F700E010E08091E9
:103BF000CC01082E000C990B0817190794F080913E
:103C00001B01082E000C990B8017910754F09E01A0
:103C10004091E0016091DF018091DE010E94B833A4
:103C200003C0198218821A820F5F1F4F2396053036
:103C30001105E9F60E94ED1C80911A019091CC01CA
:103C4000980F9093CC0120911B01280F20931B010A
:103C5000121614F494301CF0819580931A01DF91B0
:103C6000CF911F910F910895BF92CF92DF92EF9263
:103C7000FF920F931F93CF93DF93FC01828180FF0C
:103C800003C0DD24DA9402C0DD24D3940EEC11E0ED
:103C9000C0E0D0E025E0B22EF8011182108212823D
:103CA00094E0E92EF12CC12C8091CB018C0D863053
:103CB0002CF06B2D0E94D134892F02C087FD8B5FC1
:103CC000082E000C990BC817D90791F48091E001D8
:103CD0008E9DA0018F9D500D1124559547955595AA
:103CE000479598016091DF018091DE010E94B83311
:103CF000CD0CF1E0EF1AF108B9F621960D5F1F4FD8
:103D0000C530D10549F60E94ED1C8091CB0191E0B0
:103D1000D91206C0811102C084E007C0815005C0DD
:103D200090E00196BE010E94F3348093CB01DF91B5
:103D3000CF911F910F91FF90EF90DF90CF90BF90A8
:103D40000895EF92FF921F93CF93DF93EC018EECD7
:103D5000E82E81E0F82E10E08C8197014091E0017F
:103D60006091DF01810F0E94B8331D5C83E0E80E93
:103D7000F11C1F3F89F70E94ED1C9A818C8190FFF6
:103D800002C08F5F01C081508C83DF91CF911F9162
:103D9000FF90EF9008959091DD0190FF0CC0EEEC44
:103DA000F1E0818360834283339691E0ED3DF90732
:103DB000C1F70C94ED1C08950F931F93CF93DF93DD
:103DC00000D01F92CDB7DEB78C018091CD0181115B
:103DD0000AC09E012F5F3F4F4FEF6FEF0E94B83335
:103DE0008A818093CD01F8018481813051F028F0DF
:103DF000823061F44091CD010AC08091CD0140E054
:103E000007C06091CD0140E080E003C040E080E069
:103E100060E00E94CB1EF801848190E0019663E08F
:103E200070E00E94F33484830F900F900F90DF9125
:103E3000CF911F910F9108955F926F927F928F9211
:103E40009F92AF92BF92CF92DF92EF92FF920F9329
:103E50001F93CF93DF9300D01F92CDB7DEB7182FFB
:103E6000762E042F622E9091DD0190FF6DC0E92F18
:103E7000E695AE2FB0E0A35CBE4F8C918093C90154
:103E80009E7F923061F49E012F5F3F4F812F0E94F1
:103E9000B8334B8169818A810E94CB1E43C0823036
:103EA00019F40091E0013EC0863019F41091DE0152
:103EB00039C08930D9F38931A9F5E9518E2F817044
:103EC000582EE695F0E0E75EFC4FA590B4908EEC9E
:103ED000C82E81E0D82EE12CF12CBB2495E0892E50
:103EE000912CAE9CC001AF9C900DBE9C900D1124F6
:103EF000B4010E94DF34812F511002C0860F01C02F
:103F0000861B9601402F672D0E94B8338FEFE81A69
:103F1000F80A83E0C80ED11C85E0E816F10409F721
:103F20000E94ED1C1093DE017092DF010093E0010E
:103F3000662051F06091DD017091DE018091DF011A
:103F40009091E0010E9427330F900F900F90DF9126
:103F5000CF911F910F91FF90EF90DF90CF90BF9086
:103F6000AF909F908F907F906F905F90089580E0CA
:103F700090E00E94CF2680E090E00E94B926109247
:103F800041030C94332ECF92DF92FF920F931F9335
:103F9000CF93DF936C010091C20180916304082BE1
:103FA000C7E0D0E010E0C8010C2E02C095958795BF
:103FB0000A94E2F780FD04C02197A8F7F12C09C00C
:103FC000FC2EB6018C2F0E94972A0E947B2B019712
:103FD00099F38F2DDF91CF911F910F91FF90DF907B
:103FE000CF900895CF93DF93EC010E94C31FBE01D1
:103FF0000E94972A0E947B2BDF91CF9108959E3FCC
:1040000061F1292F220F920F890F682F669566950F
:104010006695982F977083E0689FB001112440E067
:1040200050E080E0FB01E40FF51FEC5BFD4F2081C9
:1040300030E0092E02C0369527950A94E2F72170E8
:104040003327042E01C0220F0A94EAF7822B4F5F18
:104050005F4F4330510531F7089580E008959E3F4A
:1040600051F1292F220F920F890FE82FE695E6953F
:10407000E695877051E001C0550F8A95EAF783E015
:10408000E89FF0011124EC5BFD4F20E030E070E090
:104090004081CB01022E02C0969587950A94E2F7E3
:1040A0008170819584278523842781932F5F3F4FDB
:1040B0002330310569F708958093C2010C94B71F2E
:1040C00021E030E001C0220F8A95EAF72095809127
:1040D000C20182230C945C2021E030E001C0220F59
:1040E0008A95EAF78091C201822B0C945C20809320
:1040F00063040C94B71F92959F70963079F010F47A
:10410000925001C09A50923068F4803F69F018F4E0
:10411000883E40F409C0843F29F406C0883E20F060
:10412000813F11F080E0089581E00895FC018681CF
:104130009781009719F00E947B2B04C080819181A8
:104140000E94F21F0E947B20089510924D0286E08B
:10415000E4E0F4E0DF011D928A95E9F70C94B71FC3
:10416000882321F00E94B62D0C94332E08958823C5
:1041700039F090914103892B809341030C94332EA5
:104180000895882321F00E94BD2D0C94332E0895AC
:10419000882321F00E94C42D0C94332E0895882387
:1041A00071F19CEF980F913A60F4E2E0F4E09281B3
:1041B000891301C01282319694E0E830F907B9F70B
:1041C0000DC090E2980F983058F4982F977081E0C6
:1041D00001C0880F9A95EAF70E94BD2D0C94332EEA
:1041E0009BE5980F933020F480E090E00C94CF266C
:1041F000885A873120F480E090E00C94B926089525
:10420000CF93882309F44CC0C82F8CEF8C0F813AD0
:10421000F0F4E4E0F4E08AE094E02191C21721F0A8
:104220008E179F07D1F70DC0E2E0F4E08281C8133A
:1042300001C01282319684E0E830F807B9F70E9495
:10424000332E6C2F82E094E00E949F260CC080E207
:104250008C0F883058F4C77081E001C0880FCA9570
:10426000EAF70E94C42DCF910C94332EEBE5EC0FAE
:10427000E33040F4F0E0EE59FE4F808190E0CF91C2
:104280000C94CF26C85AC73158F4EC2FF0E0EE0F4B
:10429000FF1FEB59FE4F80819181CF910C94B9267D
:1042A000CF9108951F93CF93DF93182F893329F46B
:1042B000C0913A03D0913B0304C0C0913803D09120
:1042C0003903812F0E940021209741F08FE99FE060
:1042D0000197F1F700C000002197F6CF812FDF9101
:1042E000CF911F910C94CF202F923F924F925F92CB
:1042F0006F927F928F929F92AF92BF92CF92DF92F6
:10430000EF92FF920F931F93CF93DF93CDB7DEB75A
:1043100065970FB6F894DEBF0FBECDBF8C0185E068
:10432000F801DE01519601900D928A95E1F7D801CE
:104330004C9011965C9011971296EC9012971396F0
:10434000CD90DC90149760E08AE094E00E942A30DF
:104350008AE0A82E84E0B82E80900D0490900E0480
:10436000A40160910B0480910A040E94D127F82EC9
:104370008111E5C130900C04F601E819F9094F01EB
:1043800060E0332009F469C1C5010E942A306090C1
:1043900032037090330320900F048614970408F0C2
:1043A00014C140910D0450910E04B0900A04A090E5
:1043B0000B04822D807F6A2D09F097C08B2D0E94FF
:1043C000D127811124C0D80111968C9111978A119F
:1043D0001EC08C918B111BC02091100430911104D0
:1043E00016968D919C9117972817390781F4E11043
:1043F0000EC0822D8F70806180930F048AE094E05C
:104400000E94720380910F04F8018583B4C1F4EF18
:104410006F16F1E07F0620F48091370380FF21C002
:10442000A601652D842D0E94D127811103C081E052
:104430008E2502C080E090E080FF13C04E2D652DD8
:10444000842D0E94842E882361F08AE094E00E94EB
:104450007203EAE0F4E088E0DF011D928A95E9F753
:104460008AC1A601652D842D0E94D127811103C028
:1044700081E08E2502C080E090E0B82FB170CB2E95
:1044800080FF2AC04E2D652D842D0E94842ED82EAB
:10449000811122C0498A5A8A89899A890E94F21F09
:1044A000292F22952F70223018F0243078F405C07F
:1044B0009F7049F0811107C00DC09F7021F0F80175
:1044C0009581907F39F0805E883020F0C8010E948D
:1044D0007203DC2CFD2C4FC1EE2009F44BC18091FE
:1044E0000F04816080930F0446C18B2D0E94D12759
:1044F000811124C0D80111968C9111978A111EC088
:104500008C918B111BC020911004309111041696D0
:104510008D919C9117972817390781F4E1100EC0EF
:1045200015962C92C8010E94720388E0F801AAE057
:10453000B4E001900D928A95E1F76FC0C8010E9426
:1045400096208823E1F1EE20D1F120910F04822FF3
:1045500082958F7090E00297A4F080910A04909168
:104560000B049A8789871B86DD86CC862E878091EF
:10457000100490911104988B8F87CE0109960E94A8
:10458000720388E0F801AAE0B4E001900D928A95E8
:10459000E1F70E94AE2E16C0F0900A0490900B0432
:1045A00040910D0450910E04692D8F2D0E94D1274A
:1045B000882399F0C8010E949620811130C0C8015B
:1045C0000E947203FF24F394D6C0822D807F21F7CE
:1045D0008AE094E00E947203ACC0D80111968C91DD
:1045E00011978911E7CF8C918F11E4CF209110049E
:1045F0003091110416968D919C91179728173907C1
:10460000C9F6E110D7CF15962C92C8010E9472030B
:1046100088E0F50111928A95E9F7F32CACC0EE2001
:1046200071F220910F04822F82958F7090E0029793
:104630000CF4A7CF80910A0490910B049A8389838C
:104640001B82DD82CC822E83809110049091110414
:1046500098878F83CE01019692CF8AE094E00E94E2
:104660002A3080913203909133038816990608F01E
:1046700060C0FE2CEE2009F4A2CFE0900A04D09096
:104680000B0440910D0450910E046D2D8E2D0E944F
:10469000D127811140C0D80111968C9111978D11AD
:1046A0003AC08C918E1137C02091100430911104C2
:1046B00016968D919C9117972817390761F580916F
:1046C000370382FD1FC080910F0480FD1BC08295BF
:1046D0008F70482F50E041155105A1F020910F0433
:1046E00015962C9315974F30510549F08F5F982FF1
:1046F0009295907F822F8F70892B15968C93C8018D
:104700000E94720388E0F801AAE0B4E001900D92E3
:104710008A95E1F730C0C8010E949620811131CFFF
:1047200080910F04816080930F04C8010E9472037E
:1047300022C088E0F50111928A95E9F71CC0EE20AD
:1047400009F43DCFC8010E949620F82E882309F471
:1047500036CF88E0F801AAE0B4E001900D928A9586
:10476000E1F780910A0490910B040E94F21F0E94CD
:10477000AE2E01C0F12C8F2D65960FB6F894DEBFDA
:104780000FBECDBFDF91CF911F910F91FF90EF90A2
:10479000DF90CF90BF90AF909F908F907F906F9061
:1047A0005F904F903F902F900895EF92FF920F935C
:1047B0001F93CF93DF93CDB7DEB760970FB6F89412
:1047C000DEBF0FBECDBF29873A874B875C876D87D9
:1047D0007E878F87988BCE0109960E947421811164
:1047E0004AC088E0FE013996DE01119601900D92D3
:1047F0008A95E1F7E984FA840C851D85A8016F2D5F
:104800008E2D0E94D127811136C0A0911204B0E0F4
:10481000CD010196877099272091530430E08217CB
:10482000930781F1E982FA821D830C8393E0AA0F3A
:10483000BB1F9A95E1F7AD5EBB4F98E0FE01319644
:1048400001900D929A95E1F7809312040E94A42E94
:1048500012C028E0829FC00111248D5E9B4F0E94F0
:1048600074218823E1F08091530490E001968770D1
:1048700099278093530480915304909112048913D3
:10488000E8CF0DC00E94A52010921204109253048C
:10489000EAE0F4E088E0DF011D928A95E9F760968E
:1048A0000FB6F894DEBF0FBECDBFDF91CF911F9141
:1048B0000F91FF90EF90089508958091AD010895B4
:1048C000AF92BF92CF92DF92EF92FF920F931F931E
:1048D000CF93DF934430510508F46CC040914B02F4
:1048E00041FBCC24C0F8D12CCC0CDD1C42FB88272A
:1048F00080F9C82FE0E0DE2FCC0FDD1FCC0FDD1FCD
:10490000CC2ADD2A40FBEE24E0F8F12CEC28FD282F
:1049100043FBAA27A0F9B0E023E0AA0FBB1F2A950A
:10492000E1F7EA2AFB2A44FBEE27E0F9F0E034E065
:10493000EE0FFF1F3A95E1F7EE29FF2945FB2227ED
:1049400020F930E055E0220F331F5A95E1F72E2B66
:104950003F2B46FB882780F990E0E6E0880F991FFF
:10496000EA95E1F7822B932B47FB442740F950E06F
:104970005695542F442757954795842B952B209176
:104980004C02322F3170132F00E0082B192B269583
:104990002170B22EBB0CA12C0A291B29012E000C60
:1049A000220B330BFB01008311832283338380E0CE
:1049B00090E002C08FEF9FEFDF91CF911F910F9199
:1049C000FF90EF90DF90CF90BF90AF9008958091CF
:1049D0001A0390911B039093200180931F01089567
:1049E000CF93DF9321E02093E9002FEF3091E8008F
:1049F000215035FD06C035ED3A95F1F70000211143
:104A0000F5CF2091E80025FF14C0EC0140E050E014
:104A100068E070E00E9402198091E8008E77809330
:104A2000E80088E0FE01AEEAB1E001900D928A95BF
:104A3000E1F7DF91CF910895CF92DF92EF92FF924D
:104A40004430510508F46FC0FB01C080D180E28082
:104A5000F3800E94A52080914B02C0FA80F9B70133
:104A6000A601769567955795479540FB81F9B70163
:104A7000A60122E076956795579547952A95D1F737
:104A800040FB82F9B701A60133E07695679557950B
:104A900047953A95D1F740FB83F9B701A601E4E0C9
:104AA0007695679557954795EA95D1F740FB84F938
:104AB000B701A601F5E07695679557954795FA9564
:104AC000D1F740FB85F9B701A601A6E07695679579
:104AD00057954795AA95D1F740FB86F9B701A601EE
:104AE000B7E07695679557954795BA95D1F740FB0E
:104AF00087F980934B0280914C02D0FA80F999E0BB
:104B0000F694E794D794C7949A95D1F7C0FA81F9AF
:104B100080934C0280914B0290914C020E94042D94
:104B200080E090E002C08FEF9FEFFF90EF90DF906A
:104B3000CF9008959C01CA01F90132964591549194
:104B40008417950750F0CB01F90134966591749163
:104B50000E948D3580E090E008958FEF9FEF0895DB
:104B60000F931F93CF93DF930AE113E0CFE3D0E0DD
:104B7000CE010E948134F80161918F01681719F00C
:104B8000CE010E9495342196C336D10589F7DF9175
:104B9000CF911F910F910895DA019C012E5F3F4F35
:104BA000F90145915491F90125913491A217B30768
:104BB00058F0FC013496859194910E948D350E94A5
:104BC000B02580E090E008958FEF9FEF08958093E7
:104BD000FF0370930104609300048091B801843056
:104BE000F9F48093E9008FEF9091E800815095FDF2
:104BF00006C095ED9A95F1F700008111F5CF8091EF
:104C0000E80085FF0DC040E050E063E070E08FEF0A
:104C100093E00E9402198091E8008E778093E8006B
:104C2000089581E08093E00080E28093D8001092A4
:104C3000C9008FE19EE40197F1F700C0000087E012
:104C400090EBDC018093670490936804A09369045F
:104C5000B0936A049CE088E10FB6F894A89580931D
:104C600060000FBE90936000FFCF78941F920F9268
:104C70000FB60F9211248F939F93AF93BF938091A0
:104C8000FB039091FC03A091FD03B091FE030196FC
:104C9000A11DB11D8093FB039093FC03A093FD0322
:104CA000B093FE03BF91AF919F918F910F900FBE74
:104CB0000F901F9018959C014FB7F8948091FB03BB
:104CC0009091FC03A091FD03B091FE034FBF821BA6
:104CD000930B08952FB7F8948091FB039091FC03F8
:104CE000A091FD03B091FE032FBF08951F920F9274
:104CF0000FB60F9211248F939F93AF93BF93809120
:104D0000FA03811113C08091FB039091FC03A091E1
:104D1000FD03B091FE034196A11DB11D8093FB03DD
:104D20009093FC03A093FD03B093FE03BF91AF915A
:104D30009F918F910F900FBE0F901F9018959C011F
:104D4000FC0132969FEF80E04191461789F09F3F2A
:104D500019F4411101C0982F8F5F8630A9F79F3F4A
:104D600039F0F901E90FF11D97FDFA956283089575
:104D700008952091F8033091F9032817390771F04D
:104D80009093F9038093F803E091F603F091F70311
:104D9000309721F00084F185E02D09940895209149
:104DA000F4033091F5032817390771F09093F50358
:104DB0008093F403E091F603F091F703309721F02C
:104DC0000680F781E02D09940895E091F603F091B3
:104DD000F703309721F00190F081E02D099480E0F5
:104DE0000895EF92FF920F931F93CF93DF93FC01EF
:104DF0002285211136C0EC01E380F480F7E5FF1A2B
:104E000026E12E9DC0012F9D900D1124DC01AC5B8D
:104E1000BC4F1496ED91FC911597865B9C4F309793
:104E200029F054966D917C915597099586E18E9D58
:104E300080018F9D100D11240C5B1C4FF8018781A0
:104E40000E94BD2DF80180850E94B62D0E94332E50
:104E5000188219861B861E821D82109243031092AF
:104E60004203DF91CF911F910F91FF90EF90089532
:104E7000CF93DF93FC012189211119C0EC0181E05E
:104E8000818B87810E94C42D909141038885892B55
:104E9000809341030E94332EEA81FB81CE01069666
:104EA000309729F06C897D89DF91CF910994DF914A
:104EB000CF9108950F931F93CF93DF93C42FD22FD9
:104EC000FC0182818823C9F0409340030E946A2636
:104ED00090933F0380933E0380E28C0F883008F06C
:104EE0005BC0C77081E001C0880FCA95EAF7DF9107
:104EF000CF911F910F910C94C820809140034813CB
:104F000034C080913E0390913F030E945B26209124
:104F10003203309133038217930738F510E21D0FE7
:104F2000CD17B9F080E28C0F883040F4C77081E073
:104F300001C0880FCA95EAF70E94C120183028F5F1
:104F400081E09D2F977001C0880F9A95EAF70E9423
:104F5000C820802F0E9452211830F0F4D77081E0D1
:104F600001C0880FDA95EAF70AC080E28C0F88301A
:104F700098F4C77081E001C0880FCA95EAF7DF9105
:104F8000CF911F910F910C94C120802FDF91CF9171
:104F90001F910F910C945221DF91CF911F910F918E
:104FA0000895452B41F06F3F41F491E08F3F09F0A8
:104FB00090E0892F03C081E001C080E081700895F6
:104FC000BC014091160380911703942F981729F183
:104FD000292F30E0F901EE0FFF1FE25FFC4F019037
:104FE000F081E02DE617F70799F487E0869FF0013E
:104FF000879FF00D1124EA52FD4F81E084839413C2
:105000000CC02F5F3F4F2370332720931603089562
:105010002F5F3F4F922F9370D9CF0895EF92FF9259
:105020000F931F93CF93DF9380917502882309F428
:1050300040C0009174028CE0F82E80917502081730
:10504000A0F5EE24E394E00EE092740210E0F09EEE
:10505000E001F19ED00D1124CA58DD4F4B815C81D7
:10506000698188810E94D12781111DC08E819F8115
:10507000892B21F488859985019651F428813981FD
:105080004A815B816C817D818E819F810E94D523C5
:10509000F09EF001F19EF00D1124EA58FD4F1482AC
:1050A0001382109241030E2DC8CF109275021092F8
:1050B0007402DF91CF911F910F91FF90EF900895AF
:1050C0001092730210927202E6EDF2E08581811176
:1050D00002C014821682379683E0EE30F807B1F7EB
:1050E00008951092190310921803109222018091D2
:1050F0001703809316030E9460280C940E283F9299
:105100004F925F926F927F928F929F92AF92BF92D7
:10511000CF92DF92EF92FF920F931F93CF93DF9383
:10512000C091160397E0892E01E010E02CE0322EAA
:105130003EEF932E4424439480911703C81709F43B
:1051400078C0D0E0FE01EE0FFF1FE25FFC4F8081D0
:105150009181889ED001899EB00D1124AA52BD4F25
:1051600014962C911497211161C050907502E6E7B6
:10517000F2E020E030E0712C5D01251508F054C00C
:10518000E284F384D501CD90DC906FEF7FEF612C4A
:10519000462D50E0DA01AA0FBB1FAC0DBD1D0D90CE
:1051A000BC91A02D109731F0EA16FB0609F4BA0164
:1051B0006394EECF6F3FBFEF7B0791F1D80102C040
:1051C000AA0FBB1F6A95E2F77A2AB80102C0660FE0
:1051D000771F6A94E2F7AB0141505109672D70E0E7
:1051E00046175707D9F4329EF001339EF00D112473
:1051F000EA58FD4F889ED001899EB00D1124AA5215
:10520000BD4F12962D913C91139737832683908240
:1052100091829187808715964C9206C014821382E2
:105220002F5F3F4F3C96A9CF0E94E0272196C37085
:1052300083CF0E940E28DF91CF911F910F91FF9095
:10524000EF90DF90CF90BF90AF909F908F907F9026
:105250006F905F904F903F900C9460288091210157
:10526000877F8093210182E00E94B62D80912101E9
:1052700084FF06C08F7E8093210182E00E94C42DAE
:105280008091210185FF06C08F7D8093210180E2FE
:105290000E94C42D0C94332E662329F020914103E3
:1052A0002260209341039C013056211540E23407CF
:1052B00020F0305E2115304108F499270C94B93262
:1052C000009741F0EFE9FFE03197F1F700C00000EF
:1052D0000197F6CF0895AF92BF92CF92DF92EF92EF
:1052E000FF920F931F93CF93DF935C017B01C42E3A
:1052F00089018091210182FF8DC0C0917002D091FF
:105300007102CA15DB0521F0A114B10409F082C0B5
:10531000809121018B7F8093210181FD11C08091BB
:105320006E0290916F02A701481B590B81E02091FA
:105330001F01309120014217530718F480E001C08B
:1053400081E08170D82E80912101D0FA81F980937B
:105350002101FE01FF2784E0F695E7958A95E1F7A4
:105360009E012F703327EE0FFF1FE25BFD4F81E0A0
:1053700090E002C0880F991F2A95E2F7DD2029F0FE
:1053800020813181822B932B06C0809590952081BE
:105390003181822393239183808380914D0281FF09
:1053A00008C08091210180618093210182E00E94E8
:1053B000BD2D80914D0285FF08C080912101806242
:1053C0008093210180E20E94BD2DA8016D2DCE01A8
:1053D0000E944C29CC2031F08091350385FF02C01A
:1053E00086FF36C080913803909139030E9460296E
:1053F00080917002909171029C013056211540E21B
:10540000340720F0305E2115304108F499270E94BE
:105410009F3218C095013327C5019056811540E28F
:10542000940720F0905E8115904110F4C90101C0ED
:10543000C5010E949F328091700290917102A8165E
:10544000B90611F40E942E29F0926F02E0926E02CA
:10545000DF91CF911F910F91FF90EF90DF90CF9050
:10546000BF90AF9008950F931F93CF93DF930AE1FE
:1054700013E0CFE3D0E0CE010E948134F8018193A4
:105480008F012196C336D105B1F7C0E0D0E0FE010F
:10549000E65CFB4F85919491009711F0FC01099512
:1054A0002C96C039D10599F7DF91CF911F910F91BB
:1054B0000895EAE1F3E0128E138E8FEA90E0918373
:1054C000808385E0848F28E833E13383228322E3DD
:1054D00030E0378B268B28EC30E0318F208F158E13
:1054E0002AE030E0378F268F20E530E031A320A37B
:1054F00082A30E94B0250E94A52010924C02109217
:105500004B0280E090E00E94042D0C94332ACF934C
:10551000DF93C3E0D1E060E0CE010E949534219694
:10552000C11584E0D807B9F7DF91CF910895462FD0
:105530002091490230914A02232B91F47E3F39F4A5
:105540006E3F71F480914702909148020895843033
:1055500038F4711105C0633018F460E00C94181A27
:1055600080E090E0089580E0089590914B0292FFD2
:105570000DC0282F2871283019F4877F846006C059
:10558000282F2471243011F48B7F886093FF0DC085
:10559000282F2871283119F4877E846106C0282FAE
:1055A0002471243111F48B7E886120914C0220FFFC
:1055B0000DC0382F3871383019F4877F816006C0EC
:1055C000382F3171313011F48E7F886021FF0DC08A
:1055D000282F2871283119F4877E816106C0282F71
:1055E0002171213111F48E7E886194FD877E0895AA
:1055F000F894E82FE295EF70F0E031A1282F2F709A
:1056000081E090E001C0880F2A95EAF7982F9095E5
:10561000932391A392A1892B82A378940895EF926A
:10562000FF920F931F93CF93DF930BE211E0C0E043
:10563000D1E0EE24E394F12CF80180818F3F39F121
:10564000F894E82FE295EF70F0E021A18F70A701A8
:1056500002C0440F551F8A95E2F7CA01922F982B7A
:1056600091A392A18095892382A3789400C04C993C
:1056700002C0CD2B03C08D2F8095C823F8018081F7
:105680008F3F11F00E94F82AF0EAFA95F1F7DD0F4A
:105690000F5F1F4F41E00E32140771F680919901A0
:1056A000D1E08C1301C0D0E08C1759F0C093990160
:1056B00081E0809366040E946A269093650480933B
:1056C000640480916604882371F080916404909151
:1056D00065040E945B26059730F0809199018093C4
:1056E000AA01109266048D2FDF91CF911F910F9127
:1056F000FF90EF900895CF93DF938238910569F181
:10570000B0F48133910509F46FC048F489329105F2
:1057100009F465C08A32910509F46BC08AC08533EB
:10572000910509F457C089339105B9F082C0833ED1
:10573000910571F138F4803E9105B1F0823E9105FA
:1057400011F177C0863E9105B9F1873E9105C9F107
:10575000843E910509F06DC024C020914B0220FDCC
:1057600053C021FD51C065C080914B0280FD46C0F1
:1057700080914C0280FF48C080914B0284FD3FC164
:1057800083EE90E03EC180914B0282FF3AC0F4CF9D
:1057900080914B0282FD35C080914C0280FD34C067
:1057A000EBCF80914C0281FF35C080914B0284FD8C
:1057B00026C187EE90E025C180914B0283FF27C070
:1057C000F4CF80914B0283FD22C080914C0281FD79
:1057D00021C0EBCF80914B0285FD1FC021C080917D
:1057E0004B0285FD1DC019C080914B0286FD1BC078
:1057F0001DC080914B0286FD19C015C089E390E061
:1058000000C182EE90E0FDC080EE90E0FAC086EE2E
:1058100090E0F7C084EE90E0F4C089E290E0F1C03F
:1058200085E390E0EEC08AE290E0EBC081E390E097
:10583000E8C0811532E5930708F069C0811541E59C
:10584000940728F0982F8827816F906ADAC0883EE5
:10585000910568F5803E910508F0D3C0883A91051E
:10586000B8F4853A910548F0855AE82FF0E0EE59F2
:10587000FE4F808190E09064C4C08130910509F4AE
:10588000BBC008F4BCC08430910508F4B8C0B9C0EE
:105890008F3B910508F0B3C0885AE82FF0E0EE0F77
:1058A000FF1FEB59FE4F808191819464AAC081153E
:1058B00020E59207F0F09C0174E0369527957A95E3
:1058C000E1F7922F9370482F437021E030E002C03F
:1058D000220F331F4A95E2F73C68392B8F70982FBF
:1058E0009695969540E2949FC0011124822B932BAC
:1058F00088C0811530E4930718F09F70906A81C0CA
:105900009C013A9521153F4108F47BC078C0EC0119
:10591000C11586E5D807E8F5C11525E5D20748F099
:105920008C2F0E94B52A8F7190E0982F8827906263
:1059300068C0C11534E5D30728F09C2F8827846FF1
:10594000906A5FC0AE01437055272C2F269526958F
:10595000C115D34578F481E090E002C0880F991F0B
:105960004A95E2F740E2249F90011124822B932B69
:105970009C6847C081E090E002C0880F991F4A955B
:10598000E2F740E2249F90011124822B932B9A6826
:1059900038C0C1152AE5D207F8F4C11539E5D30797
:1059A00090F08C2F8F700E94B52A94E0D695C79501
:1059B0009A95E1F7CF70D0E0DC2FCC27D0699E011B
:1059C000282BC9011EC0C11548E5D407C0F09C2F83
:1059D0008827806F906A15C0CE019056811590423D
:1059E00070F48D2F8F710E94B52A282F2F71CE0150
:1059F00099279062922B05C081E090E002C080E080
:105A000090E0DF91CF910895CF93C92F682F84E064
:105A100090E00E9495346C2F82E290E0CF910C943C
:105A20009534CF9384E090E00E948134C82F82E2C5
:105A300090E00E9481342C2F30E0A901582BCA013C
:105A4000CF91089580E090E00E948F34893E9E4F70
:105A500011F40C94A61C80E0089569EE7EEF80E0BE
:105A600090E00E94B33460E082E090E00E949534C0
:105A700060E083E090E00E9495341092630460E05F
:105A800084E090E00E94953460E082E290E00E9421
:105A9000953460E085E090E00E94953460E086E017
:105AA00090E00E9495346FEF87E090E00E9495347B
:105AB00040E050E0BA0188E090E00E94A73460E046
:105AC0008DE090E00E94953440E050E0BA0188E11A
:105AD00090E00E94A73460E087E190E00E94953456
